{
  "_format": "hh-sol-artifact-1",
  "contractName": "ContratoCadena",
  "sourceName": "contracts/ContratoCadena.sol",
  "abi": [
    {
      "inputs": [],
      "stateMutability": "nonpayable",
      "type": "constructor"
    },
    {
      "anonymous": false,
      "inputs": [
        {
          "indexed": false,
          "internalType": "uint256",
          "name": "BalanceUsuario",
          "type": "uint256"
        }
      ],
      "name": "BalanceAsignadoUsuario",
      "type": "event"
    },
    {
      "anonymous": false,
      "inputs": [
        {
          "indexed": false,
          "internalType": "string",
          "name": "mensaje1",
          "type": "string"
        },
        {
          "indexed": false,
          "internalType": "uint256",
          "name": "",
          "type": "uint256"
        },
        {
          "indexed": false,
          "internalType": "string",
          "name": "mensaje2",
          "type": "string"
        },
        {
          "indexed": false,
          "internalType": "uint256",
          "name": "",
          "type": "uint256"
        }
      ],
      "name": "Depuracion",
      "type": "event"
    },
    {
      "anonymous": false,
      "inputs": [
        {
          "indexed": false,
          "internalType": "string",
          "name": "mensaje",
          "type": "string"
        }
      ],
      "name": "LogString",
      "type": "event"
    },
    {
      "anonymous": false,
      "inputs": [
        {
          "indexed": false,
          "internalType": "string",
          "name": "mensaje",
          "type": "string"
        }
      ],
      "name": "MensajeAUsuario",
      "type": "event"
    },
    {
      "inputs": [],
      "name": "ActualizarCuota",
      "outputs": [],
      "stateMutability": "nonpayable",
      "type": "function"
    },
    {
      "inputs": [
        {
          "internalType": "address",
          "name": "NuevaDireccion",
          "type": "address"
        }
      ],
      "name": "AgregarDireccionesDeUsuarios",
      "outputs": [],
      "stateMutability": "nonpayable",
      "type": "function"
    },
    {
      "inputs": [],
      "name": "DuenoCadena",
      "outputs": [
        {
          "internalType": "address payable",
          "name": "",
          "type": "address"
        }
      ],
      "stateMutability": "view",
      "type": "function"
    },
    {
      "inputs": [],
      "name": "IniciarContrato",
      "outputs": [],
      "stateMutability": "nonpayable",
      "type": "function"
    },
    {
      "inputs": [],
      "name": "MostrarBalanceUsuarios",
      "outputs": [
        {
          "internalType": "int256",
          "name": "",
          "type": "int256"
        },
        {
          "internalType": "int256",
          "name": "",
          "type": "int256"
        },
        {
          "internalType": "uint256",
          "name": "",
          "type": "uint256"
        }
      ],
      "stateMutability": "view",
      "type": "function"
    },
    {
      "inputs": [
        {
          "internalType": "uint256",
          "name": "Indice",
          "type": "uint256"
        }
      ],
      "name": "MostrarInformacionUsuarios",
      "outputs": [
        {
          "internalType": "address",
          "name": "",
          "type": "address"
        },
        {
          "internalType": "uint256",
          "name": "",
          "type": "uint256"
        },
        {
          "internalType": "uint256",
          "name": "",
          "type": "uint256"
        },
        {
          "internalType": "uint256",
          "name": "",
          "type": "uint256"
        },
        {
          "internalType": "bool",
          "name": "",
          "type": "bool"
        },
        {
          "internalType": "bool",
          "name": "",
          "type": "bool"
        },
        {
          "internalType": "bool",
          "name": "",
          "type": "bool"
        }
      ],
      "stateMutability": "view",
      "type": "function"
    },
    {
      "inputs": [],
      "name": "RecibirIngresosCuotasUsuarios",
      "outputs": [],
      "stateMutability": "payable",
      "type": "function"
    },
    {
      "inputs": [],
      "name": "RecibirIngresosDeParticipacionUsuarios",
      "outputs": [],
      "stateMutability": "payable",
      "type": "function"
    },
    {
      "inputs": [],
      "name": "RecibirPagoDuenoCadena",
      "outputs": [],
      "stateMutability": "payable",
      "type": "function"
    },
    {
      "inputs": [
        {
          "internalType": "uint256",
          "name": "",
          "type": "uint256"
        }
      ],
      "name": "Usuarios",
      "outputs": [
        {
          "internalType": "address",
          "name": "direccionUsuario",
          "type": "address"
        },
        {
          "internalType": "uint256",
          "name": "valorCuota",
          "type": "uint256"
        },
        {
          "internalType": "uint256",
          "name": "montoAsignado",
          "type": "uint256"
        },
        {
          "internalType": "uint256",
          "name": "BalanceUsuario",
          "type": "uint256"
        },
        {
          "internalType": "bool",
          "name": "estadoUsuario",
          "type": "bool"
        },
        {
          "internalType": "bool",
          "name": "estadoUsuarioExpulsion",
          "type": "bool"
        },
        {
          "internalType": "bool",
          "name": "EstadoPagoCuota",
          "type": "bool"
        },
        {
          "internalType": "bool",
          "name": "EstadoMontoAsignado",
          "type": "bool"
        }
      ],
      "stateMutability": "view",
      "type": "function"
    }
  ],
  "bytecode": "0x608060405234801561001057600080fd5b5073abc5761a3551a3976d60e483a9b5a83825b6d1f3600f60006101000a81548173ffffffffffffffffffffffffffffffffffffffff021916908373ffffffffffffffffffffffffffffffffffffffff1602179055506000601060006101000a81548173ffffffffffffffffffffffffffffffffffffffff021916908373ffffffffffffffffffffffffffffffffffffffff16021790555030601160006101000a81548173ffffffffffffffffffffffffffffffffffffffff021916908373ffffffffffffffffffffffffffffffffffffffff160217905550642e90edd0006006819055506409502f90006007819055506409502f90006008819055506000600960006101000a81548160ff0219169083151502179055506000600960026101000a81548160ff0219169083151502179055506000600c60006101000a81548160ff0219169083151502179055506000600a819055506000600b819055506000600d819055506000600e8190555064012a05f200600081905550600060018190555060006002819055506000600360006101000a81548160ff0219169083151502179055506000600360016101000a81548160ff0219169083151502179055506000600360026101000a81548160ff02191690831515021790555060006003806101000a81548160ff0219169083151502179055506000600960016101000a81548160ff021916908315150217905550600060128190555060006013819055506000601481905550600060158190555060006016819055506142bb806102576000396000f3fe6080604052600436106100915760003560e01c80637946a632116100595780637946a6321461013d578063dda3ae0614610180578063ec091412146101ad578063ef7d74a7146101b7578063f35b5dba146101c157610091565b806323cc291014610096578063296a46ea146100ad57806351755ac7146100c45780635ce639e4146100ce57806376879e2c14610112575b600080fd5b3480156100a257600080fd5b506100ab6101ea565b005b3480156100b957600080fd5b506100c26104b1565b005b6100cc61055a565b005b3480156100da57600080fd5b506100f560048036038101906100f09190612568565b6109d7565b604051610109989796959493929190612600565b60405180910390f35b34801561011e57600080fd5b50610127610a73565b604051610134919061269f565b60405180910390f35b34801561014957600080fd5b50610164600480360381019061015f9190612568565b610a99565b60405161017797969594939291906126ba565b60405180910390f35b34801561018c57600080fd5b50610195610c54565b6040516101a493929190612742565b60405180910390f35b6101b5610d1c565b005b6101bf611272565b005b3480156101cd57600080fd5b506101e860048036038101906101e391906127a5565b611926565b005b601060009054906101000a900473ffffffffffffffffffffffffffffffffffffffff1673ffffffffffffffffffffffffffffffffffffffff163373ffffffffffffffffffffffffffffffffffffffff1614801561025a575060011515600960009054906101000a900460ff161515145b610299576040517f08c379a000000000000000000000000000000000000000000000000000000000815260040161029090612855565b60405180910390fd5b6002600b54106103a75760001515600960029054906101000a900460ff1615150361036c576001600960026101000a81548160ff021916908315150217905550600f60009054906101000a900473ffffffffffffffffffffffffffffffffffffffff1673ffffffffffffffffffffffffffffffffffffffff166108fc6008549081150290604051600060405180830381858888f19350505050158015610343573d6000803e3d6000fd5b506008546012600082825461035891906128a4565b9250508190555060006014819055506103a2565b7f8219e183178a3d081fd913cf45272e0941a3458fb72727c776d4fdde9713909860405161039990612934565b60405180910390a15b6104af565b7f8219e183178a3d081fd913cf45272e0941a3458fb72727c776d4fdde971390986040516103d490612aab565b60405180910390a160005b600a548110156104ad57600115156004600083815260200190815260200160002060040160009054906101000a900460ff161515036104a0576004600082815260200190815260200160002060000160009054906101000a900473ffffffffffffffffffffffffffffffffffffffff1673ffffffffffffffffffffffffffffffffffffffff166108fc6008549081150290604051600060405180830381858888f19350505050158015610496573d6000803e3d6000fd5b5060006014819055505b80806001019150506103df565b505b565b60011515600960029054906101000a900460ff16151514610507576040517f08c379a00000000000000000000000000000000000000000000000000000000081526004016104fe90612b17565b60405180910390fd5b61050f611d8f565b7fcbf8d47eb9e359ce110566fd758d0fee801f4c7065f4950422263aed2a6aa4096015546040516105409190612b37565b60405180910390a1610550611ee1565b6000601581905550565b33601060006101000a81548173ffffffffffffffffffffffffffffffffffffffff021916908373ffffffffffffffffffffffffffffffffffffffff16021790555060001515600960009054906101000a900460ff161515036109365760065434111561074f577f8219e183178a3d081fd913cf45272e0941a3458fb72727c776d4fdde971390986040516105ed90612c36565b60405180910390a1601060009054906101000a900473ffffffffffffffffffffffffffffffffffffffff1673ffffffffffffffffffffffffffffffffffffffff166108fc6006543461063f9190612c56565b9081150290604051600060405180830381858888f1935050505015801561066a573d6000803e3d6000fd5b506006546013600082825461067f9190612c8a565b92505081905550600f60009054906101000a900473ffffffffffffffffffffffffffffffffffffffff1673ffffffffffffffffffffffffffffffffffffffff166108fc6008546006546106d29190612c56565b9081150290604051600060405180830381858888f193505050501580156106fd573d6000803e3d6000fd5b5060085460065461070e9190612c8a565b6012600082825461071f91906128a4565b925050819055506008546014819055506001600960006101000a81548160ff021916908315150217905550610931565b600654341015610817577f8219e183178a3d081fd913cf45272e0941a3458fb72727c776d4fdde9713909860405161078690612d3f565b60405180910390a1601060009054906101000a900473ffffffffffffffffffffffffffffffffffffffff1673ffffffffffffffffffffffffffffffffffffffff166108fc349081150290604051600060405180830381858888f193505050501580156107f6573d6000803e3d6000fd5b506000600960006101000a81548160ff021916908315150217905550610930565b600654340361092f577f8219e183178a3d081fd913cf45272e0941a3458fb72727c776d4fdde9713909860405161084d90612df7565b60405180910390a1600f60009054906101000a900473ffffffffffffffffffffffffffffffffffffffff1673ffffffffffffffffffffffffffffffffffffffff166108fc6008543461089f9190612c56565b9081150290604051600060405180830381858888f193505050501580156108ca573d6000803e3d6000fd5b5034601360008282546108dd9190612c8a565b92505081905550600854346108f29190612c8a565b6012600082825461090391906128a4565b925050819055506008546014819055506001600960006101000a81548160ff0219169083151502179055505b5b5b6109d5565b7f8219e183178a3d081fd913cf45272e0941a3458fb72727c776d4fdde9713909860405161096390612e89565b60405180910390a1601060009054906101000a900473ffffffffffffffffffffffffffffffffffffffff1673ffffffffffffffffffffffffffffffffffffffff166108fc349081150290604051600060405180830381858888f193505050501580156109d3573d6000803e3d6000fd5b505b565b60046020528060005260406000206000915090508060000160009054906101000a900473ffffffffffffffffffffffffffffffffffffffff16908060010154908060020154908060030154908060040160009054906101000a900460ff16908060040160019054906101000a900460ff16908060040160029054906101000a900460ff16908060040160039054906101000a900460ff16905088565b601060009054906101000a900473ffffffffffffffffffffffffffffffffffffffff1681565b6000806000806000806000601060009054906101000a900473ffffffffffffffffffffffffffffffffffffffff1673ffffffffffffffffffffffffffffffffffffffff163373ffffffffffffffffffffffffffffffffffffffff16148015610b14575060011515600960009054906101000a900460ff161515145b610b53576040517f08c379a0000000000000000000000000000000000000000000000000000000008152600401610b4a90612855565b60405180910390fd5b6004600089815260200190815260200160002060000160009054906101000a900473ffffffffffffffffffffffffffffffffffffffff16600460008a815260200190815260200160002060010154600460008b815260200190815260200160002060020154600460008c815260200190815260200160002060030154600460008d815260200190815260200160002060040160009054906101000a900460ff16600460008e815260200190815260200160002060040160029054906101000a900460ff16600460008f815260200190815260200160002060040160039054906101000a900460ff169650965096509650965096509650919395979092949650565b6000806000601060009054906101000a900473ffffffffffffffffffffffffffffffffffffffff1673ffffffffffffffffffffffffffffffffffffffff163373ffffffffffffffffffffffffffffffffffffffff16148015610cc9575060011515600960009054906101000a900460ff161515145b610d08576040517f08c379a0000000000000000000000000000000000000000000000000000000008152600401610cff90612855565b60405180910390fd5b601354601254601454925092509250909192565b60001515600960029054906101000a900460ff16151514610d72576040517f08c379a0000000000000000000000000000000000000000000000000000000008152600401610d6990612f8d565b60405180910390fd5b60005b600a548110156111bc576004600082815260200190815260200160002060000160009054906101000a900473ffffffffffffffffffffffffffffffffffffffff1673ffffffffffffffffffffffffffffffffffffffff163373ffffffffffffffffffffffffffffffffffffffff16036111af57600015156004600083815260200190815260200160002060040160009054906101000a900460ff1615150361111657600754341115610f7c5760016004600083815260200190815260200160002060040160006101000a81548160ff021916908315150217905550600b6000815480929190610e6390612fad565b91905055507f8219e183178a3d081fd913cf45272e0941a3458fb72727c776d4fdde97139098604051610e95906130d9565b60405180910390a13373ffffffffffffffffffffffffffffffffffffffff166108fc60075434610ec59190612c56565b9081150290604051600060405180830381858888f19350505050158015610ef0573d6000803e3d6000fd5b50601060009054906101000a900473ffffffffffffffffffffffffffffffffffffffff1673ffffffffffffffffffffffffffffffffffffffff166108fc6007549081150290604051600060405180830381858888f19350505050158015610f5b573d6000803e3d6000fd5b5060075460136000828254610f7091906128a4565b92505081905550611111565b600754341015611007577f8219e183178a3d081fd913cf45272e0941a3458fb72727c776d4fdde97139098604051610fb3906131dd565b60405180910390a13373ffffffffffffffffffffffffffffffffffffffff166108fc349081150290604051600060405180830381858888f19350505050158015611001573d6000803e3d6000fd5b50611110565b600754340361110f5760016004600083815260200190815260200160002060040160006101000a81548160ff021916908315150217905550600b600081548092919061105290612fad565b91905055507f8219e183178a3d081fd913cf45272e0941a3458fb72727c776d4fdde9713909860405161108490613295565b60405180910390a1601060009054906101000a900473ffffffffffffffffffffffffffffffffffffffff1673ffffffffffffffffffffffffffffffffffffffff166108fc349081150290604051600060405180830381858888f193505050501580156110f4573d6000803e3d6000fd5b50346013600082825461110791906128a4565b925050819055505b5b5b611193565b7f8219e183178a3d081fd913cf45272e0941a3458fb72727c776d4fdde971390986040516111439061334d565b60405180910390a13373ffffffffffffffffffffffffffffffffffffffff166108fc349081150290604051600060405180830381858888f19350505050158015611191573d6000803e3d6000fd5b505b6001600960016101000a81548160ff0219169083151502179055505b8080600101915050610d75565b5060001515600960019054906101000a900460ff16151503611255577f8219e183178a3d081fd913cf45272e0941a3458fb72727c776d4fdde9713909860405161120590613561565b60405180910390a13373ffffffffffffffffffffffffffffffffffffffff166108fc349081150290604051600060405180830381858888f19350505050158015611253573d6000803e3d6000fd5b505b6000600960016101000a81548160ff021916908315150217905550565b60011515600960029054906101000a900460ff161515146112c8576040517f08c379a00000000000000000000000000000000000000000000000000000000081526004016112bf906135f3565b60405180910390fd5b60005b600a54811015611870576004600082815260200190815260200160002060000160009054906101000a900473ffffffffffffffffffffffffffffffffffffffff1673ffffffffffffffffffffffffffffffffffffffff163373ffffffffffffffffffffffffffffffffffffffff160361186357600115156004600083815260200190815260200160002060040160009054906101000a900460ff161515036117ca57600015156004600083815260200190815260200160002060040160019054906101000a900460ff1615150361174857600015156004600083815260200190815260200160002060040160029054906101000a900460ff161515036116c657600460008281526020019081526020016000206001015434111561152c577f8219e183178a3d081fd913cf45272e0941a3458fb72727c776d4fdde97139098604051611416906136ab565b60405180910390a160016004600083815260200190815260200160002060040160026101000a81548160ff02191690831515021790555060046000828152602001908152602001600020600101546015600082825461147591906136cb565b9250508190555060046000828152602001908152602001600020600101546004600083815260200190815260200160002060030160008282546114b891906136cb565b925050819055503373ffffffffffffffffffffffffffffffffffffffff166108fc6004600084815260200190815260200160002060010154346114fb9190612c56565b9081150290604051600060405180830381858888f19350505050158015611526573d6000803e3d6000fd5b506116c1565b60046000828152602001908152602001600020600101543410156115cb577f8219e183178a3d081fd913cf45272e0941a3458fb72727c776d4fdde9713909860405161157790613797565b60405180910390a13373ffffffffffffffffffffffffffffffffffffffff166108fc349081150290604051600060405180830381858888f193505050501580156115c5573d6000803e3d6000fd5b506116c0565b600460008281526020019081526020016000206001015434036116bf577f8219e183178a3d081fd913cf45272e0941a3458fb72727c776d4fdde9713909860405161161590613829565b60405180910390a160016004600083815260200190815260200160002060040160026101000a81548160ff02191690831515021790555060046000828152602001908152602001600020600101546015600082825461167491906136cb565b9250508190555060046000828152602001908152602001600020600101546004600083815260200190815260200160002060030160008282546116b791906136cb565b925050819055505b5b5b611743565b7f8219e183178a3d081fd913cf45272e0941a3458fb72727c776d4fdde971390986040516116f3906138bb565b60405180910390a13373ffffffffffffffffffffffffffffffffffffffff166108fc349081150290604051600060405180830381858888f19350505050158015611741573d6000803e3d6000fd5b505b6117c5565b7f8219e183178a3d081fd913cf45272e0941a3458fb72727c776d4fdde97139098604051611775906139e5565b60405180910390a13373ffffffffffffffffffffffffffffffffffffffff166108fc349081150290604051600060405180830381858888f193505050501580156117c3573d6000803e3d6000fd5b505b611847565b7f8219e183178a3d081fd913cf45272e0941a3458fb72727c776d4fdde971390986040516117f790613ae9565b60405180910390a13373ffffffffffffffffffffffffffffffffffffffff166108fc349081150290604051600060405180830381858888f19350505050158015611845573d6000803e3d6000fd5b505b6001600960016101000a81548160ff0219169083151502179055505b80806001019150506112cb565b5060001515600960019054906101000a900460ff16151503611909577f8219e183178a3d081fd913cf45272e0941a3458fb72727c776d4fdde971390986040516118b990613c13565b60405180910390a13373ffffffffffffffffffffffffffffffffffffffff166108fc349081150290604051600060405180830381858888f19350505050158015611907573d6000803e3d6000fd5b505b6000600960016101000a81548160ff021916908315150217905550565b601060009054906101000a900473ffffffffffffffffffffffffffffffffffffffff1673ffffffffffffffffffffffffffffffffffffffff163373ffffffffffffffffffffffffffffffffffffffff16148015611996575060011515600960009054906101000a900460ff161515145b6119d5576040517f08c379a00000000000000000000000000000000000000000000000000000000081526004016119cc90612855565b60405180910390fd5b60001515600960029054906101000a900460ff16151503611d565760011515600960009054906101000a900460ff16151503611d1b5760005b600a54811015611aaa578173ffffffffffffffffffffffffffffffffffffffff166004600083815260200190815260200160002060000160009054906101000a900473ffffffffffffffffffffffffffffffffffffffff1673ffffffffffffffffffffffffffffffffffffffff1603611a9d576001600c60006101000a81548160ff0219169083151502179055505b8080600101915050611a0e565b5060001515600c60009054906101000a900460ff16151503611cc5576040518061010001604052808273ffffffffffffffffffffffffffffffffffffffff168152602001600054815260200160015481526020016002548152602001600360009054906101000a900460ff1615158152602001600360019054906101000a900460ff1615158152602001600360029054906101000a900460ff161515815260200160038054906101000a900460ff16151581525060046000600d54815260200190815260200160002060008201518160000160006101000a81548173ffffffffffffffffffffffffffffffffffffffff021916908373ffffffffffffffffffffffffffffffffffffffff16021790555060208201518160010155604082015181600201556060820151816003015560808201518160040160006101000a81548160ff02191690831515021790555060a08201518160040160016101000a81548160ff02191690831515021790555060c08201518160040160026101000a81548160ff02191690831515021790555060e08201518160040160036101000a81548160ff021916908315150217905550905050600a6000815480929190611c6e90612fad565b9190505550600d6000815480929190611c8690612fad565b91905055507f8219e183178a3d081fd913cf45272e0941a3458fb72727c776d4fdde97139098604051611cb890613ca5565b60405180910390a1611d16565b7f8219e183178a3d081fd913cf45272e0941a3458fb72727c776d4fdde97139098604051611cf290613d11565b60405180910390a16000600c60006101000a81548160ff0219169083151502179055505b611d51565b7f8219e183178a3d081fd913cf45272e0941a3458fb72727c776d4fdde97139098604051611d4890613da3565b60405180910390a15b611d8c565b7f8219e183178a3d081fd913cf45272e0941a3458fb72727c776d4fdde97139098604051611d8390613e5b565b60405180910390a15b50565b60005b600a54811015611ede57600115156004600083815260200190815260200160002060040160009054906101000a900460ff161515148015611dfa5750600015156004600083815260200190815260200160002060040160029054906101000a900460ff161515145b8015611e2d5750600015156004600083815260200190815260200160002060040160019054906101000a900460ff161515145b15611e9b577f8219e183178a3d081fd913cf45272e0941a3458fb72727c776d4fdde97139098604051611e5f90613ffa565b60405180910390a160016004600083815260200190815260200160002060040160016101000a81548160ff021916908315150217905550611ecb565b60006004600083815260200190815260200160002060040160026101000a81548160ff0219169083151502179055505b8080611ed690612fad565b915050611d92565b50565b6000805b600a546016541015612144576001151560046000601654815260200190815260200160002060040160009054906101000a900460ff161515148015611f5357506000151560046000601654815260200190815260200160002060040160039054906101000a900460ff161515145b1561212757600e6000815480929190611f6b90612fad565b91905055507f5a6a6b6346ad9f320415c39c64020f70afda843975cc98d6b8c858b530be81fb600b54600e54604051611fa59291906140b2565b60405180910390a1600b54600e5410156120c25760155460046000601654815260200190815260200160002060020181905550600160046000601654815260200190815260200160002060040160036101000a81548160ff021916908315150217905550600e54600b546120199190612c56565b9150600460006016548152602001908152602001600020600301546015546120419190612c8a565b9050600081131561209e5781600460006016548152602001908152602001600020600301546015546120739190612c56565b61207d9190614130565b600460006016548152602001908152602001600020600101819055506120bd565b6000600460006016548152602001908152602001600020600101819055505b612108565b7f8219e183178a3d081fd913cf45272e0941a3458fb72727c776d4fdde971390986040516120ef906141d3565b60405180910390a16120ff612149565b6121076122a5565b5b6016600081548092919061211b90612fad565b91905055505050612147565b6016600081548092919061213a90612fad565b9190505550611ee5565b50505b565b60005b600a548110156122a25760046000828152602001908152602001600020600301544710156121af576040517f08c379a00000000000000000000000000000000000000000000000000000000081526004016121a690614265565b60405180910390fd5b600060046000838152602001908152602001600020600301541180156121fc5750600115156004600083815260200190815260200160002060040160009054906101000a900460ff161515145b15612295576004600082815260200190815260200160002060000160009054906101000a900473ffffffffffffffffffffffffffffffffffffffff1673ffffffffffffffffffffffffffffffffffffffff166108fc60046000848152602001908152602001600020600301549081150290604051600060405180830381858888f19350505050158015612293573d6000803e3d6000fd5b505b808060010191505061214c565b50565b60005b600a5481101561245357604051806101000160405280600073ffffffffffffffffffffffffffffffffffffffff168152602001600054815260200160015481526020016002548152602001600360009054906101000a900460ff1615158152602001600360019054906101000a900460ff1615158152602001600360029054906101000a900460ff161515815260200160038054906101000a900460ff1615158152506004600083815260200190815260200160002060008201518160000160006101000a81548173ffffffffffffffffffffffffffffffffffffffff021916908373ffffffffffffffffffffffffffffffffffffffff16021790555060208201518160010155604082015181600201556060820151816003015560808201518160040160006101000a81548160ff02191690831515021790555060a08201518160040160016101000a81548160ff02191690831515021790555060c08201518160040160026101000a81548160ff02191690831515021790555060e08201518160040160036101000a81548160ff02191690831515021790555090505080806001019150506122a8565b506000600960026101000a81548160ff0219169083151502179055506000600e819055506000600960006101000a81548160ff0219169083151502179055506000600960026101000a81548160ff0219169083151502179055506000600c60006101000a81548160ff0219169083151502179055506000600a819055506000600b819055506000600d819055506000600e819055506000600960016101000a81548160ff02191690831515021790555060006012819055506000601381905550600060148190555060006015819055506000601681905550565b600080fd5b6000819050919050565b61254581612532565b811461255057600080fd5b50565b6000813590506125628161253c565b92915050565b60006020828403121561257e5761257d61252d565b5b600061258c84828501612553565b91505092915050565b600073ffffffffffffffffffffffffffffffffffffffff82169050919050565b60006125c082612595565b9050919050565b6125d0816125b5565b82525050565b6125df81612532565b82525050565b60008115159050919050565b6125fa816125e5565b82525050565b600061010082019050612616600083018b6125c7565b612623602083018a6125d6565b61263060408301896125d6565b61263d60608301886125d6565b61264a60808301876125f1565b61265760a08301866125f1565b61266460c08301856125f1565b61267160e08301846125f1565b9998505050505050505050565b600061268982612595565b9050919050565b6126998161267e565b82525050565b60006020820190506126b46000830184612690565b92915050565b600060e0820190506126cf600083018a6125c7565b6126dc60208301896125d6565b6126e960408301886125d6565b6126f660608301876125d6565b61270360808301866125f1565b61271060a08301856125f1565b61271d60c08301846125f1565b98975050505050505050565b6000819050919050565b61273c81612729565b82525050565b60006060820190506127576000830186612733565b6127646020830185612733565b61277160408301846125d6565b949350505050565b612782816125b5565b811461278d57600080fd5b50565b60008135905061279f81612779565b92915050565b6000602082840312156127bb576127ba61252d565b5b60006127c984828501612790565b91505092915050565b600082825260208201905092915050565b7f536f6c6f20656c206475656e6f206465206c6120636164656e6120707565646560008201527f207265616c697a6172206573746120616363696f6e0000000000000000000000602082015250565b600061283f6035836127d2565b915061284a826127e3565b604082019050919050565b6000602082019050818103600083015261286e81612832565b9050919050565b7f4e487b7100000000000000000000000000000000000000000000000000000000600052601160045260246000fd5b60006128af82612729565b91506128ba83612729565b9250828201905082811215600083121683821260008412151617156128e2576128e1612875565b5b92915050565b7f5961207365206861206461646f20696e6963696f2061206c6120636164656e61600082015250565b600061291e6020836127d2565b9150612929826128e8565b602082019050919050565b6000602082019050818103600083015261294d81612911565b9050919050565b7f456c206e756d65726f206465207573756172696f732061637469766f7320646560008201527f62652073657220616c6d656e6f7320646520646f73207061726120696e69636960208201527f6172206c6120636164656e612c2020202020202020202020202020202020202060408201527f202020202020202020202020202020656c206d6f6e746f20636f6e7369676e6160608201527f646f207661206120736572207265746f726e61646f20646520666f726d61206960808201527f6e6d65646961746120616c20756e69636f207573756172696f2020202020202060a08201527f202020202020202020202020202020202020202020202020202020616374697660c08201527f6f20656e206c6120636164656e612e000000000000000000000000000000000060e082015250565b6000612a9460ef836127d2565b9150612a9f82612954565b61010082019050919050565b60006020820190508181036000830152612ac481612a87565b9050919050565b7f4c6120636164656e61206e6f206861207369646f20696e696369616461000000600082015250565b6000612b01601d836127d2565b9150612b0c82612acb565b602082019050919050565b60006020820190508181036000830152612b3081612af4565b9050919050565b6000602082019050612b4c60008301846125d6565b92915050565b7f5375207061676f206861207369646f207265616c697a61646f20636f6e20657860008201527f69746f20792061686f726120657320656c206475656e6f206465206c6120636160208201527f64656e612020202020202020202020202020202020202020202020202020202060408201527f20202020202020202c207365206c65206465766f6c7665726120656c2063616d60608201527f62696f2061207375206375656e74610000000000000000000000000000000000608082015250565b6000612c20608f836127d2565b9150612c2b82612b52565b60a082019050919050565b60006020820190508181036000830152612c4f81612c13565b9050919050565b6000612c6182612532565b9150612c6c83612532565b9250828203905081811115612c8457612c83612875565b5b92915050565b6000612c9582612729565b9150612ca083612729565b9250828203905081811260008412168282136000851215161715612cc757612cc6612875565b5b92915050565b7f5375207061676f206573206d656e6f7220616c2065737461626c656369646f2c60008201527f20656c2061637469766f20736572612072657665727469646f00000000000000602082015250565b6000612d296039836127d2565b9150612d3482612ccd565b604082019050919050565b60006020820190508181036000830152612d5881612d1c565b9050919050565b7f5375207061676f206861207369646f207265616c697a61646f20636f6e20657860008201527f69746f20792061686f726120657320656c206475656e6f206465206c6120636160208201527f64656e6100000000000000000000000000000000000000000000000000000000604082015250565b6000612de16044836127d2565b9150612dec82612d5f565b606082019050919050565b60006020820190508181036000830152612e1081612dd4565b9050919050565b7f5961207365206861207265616c697a61646f20656c207061676f20706172612060008201527f686162696c6974617220656c20696e6963696f206465206c6120636164656e61602082015250565b6000612e736040836127d2565b9150612e7e82612e17565b604082019050919050565b60006020820190508181036000830152612ea281612e66565b9050919050565b7f5961206e6f207365206163657074616e207061676f732070617261207061727460008201527f69636970617220656e206c6120636164656e612c20202020202020202020202060208201527f202020202020202020202020202020202020202020202020202020207961207160408201527f75652065737461206861207369646f20696e696369616461207920737520706c60608201527f617a6f206465207061676f2068612076656e6369646f2e000000000000000000608082015250565b6000612f776097836127d2565b9150612f8282612ea9565b60a082019050919050565b60006020820190508181036000830152612fa681612f6a565b9050919050565b6000612fb882612532565b91507fffffffffffffffffffffffffffffffffffffffffffffffffffffffffffffffff8203612fea57612fe9612875565b5b600182019050919050565b7f5375207061676f206861207369646f2070726f63657361646f20657869746f7360008201527f616d656e74652079206861207369646f20616772656761646f2061206c61206360208201527f6164656e6120202020202020202020202020202020202020202020202020202060408201527f202020202020202020202020202020202020202c7365206c65206465766f6c7660608201527f65726120656c2063616d62696f2061207375206375656e746100000000000000608082015250565b60006130c36099836127d2565b91506130ce82612ff5565b60a082019050919050565b600060208201905081810360008301526130f2816130b6565b9050919050565b7f4572726f7220616c2070726f6365736172207375207061676f3a20656c206d6f60008201527f6e746f20696e6772657361646f206573206d656e6f7220616c2065737461626c60208201527f656369646f2e202020202020202020202020202020202020202020202020202060408201527f20202020202020202020202020202020202020205375207061676f207365726160608201527f2072657665727469646f00000000000000000000000000000000000000000000608082015250565b60006131c7608a836127d2565b91506131d2826130f9565b60a082019050919050565b600060208201905081810360008301526131f6816131ba565b9050919050565b7f5375207061676f206861207369646f2070726f63657361646f20657869746f7360008201527f616d656e74652079206861207369646f20616772656761646f2061206c61206360208201527f6164656e61000000000000000000000000000000000000000000000000000000604082015250565b600061327f6045836127d2565b915061328a826131fd565b606082019050919050565b600060208201905081810360008301526132ae81613272565b9050919050565b7f5573746564207961206861207265616c697a61646f20656c207061676f20616e60008201527f746572696f726d656e74652c207375207061676f20736572612072657665727460208201527f69646f2e00000000000000000000000000000000000000000000000000000000604082015250565b60006133376044836127d2565b9150613342826132b5565b606082019050919050565b600060208201905081810360008301526133668161332a565b9050919050565b7f537520646972656363696f6e206465207573756172696f206e6f20686120736960008201527f646f20616772656761646120706f7220656c20646573706c656761646f72206460208201527f656c20636f6e747261746f2e202020202020202020202020202020202020202060408201527f2020202020202020202020202020506f72206c6f2074616e746f2c207375207060608201527f61676f206861207369646f2064656e656761646f2e205369206465736561206660808201527f6f726d6172207061727465206465206573746520636f6e747261746f2c20202060a08201527f202020202020202020202020202020202020202020202020202020202020207060c08201527f6f72206661766f722c20706f6e6761736520656e20636f6e746163746f20636f60e08201527f6e20656c20646573706c656761646f722064656c20636f6e747261746f2070616101008201527f726120717565206c6f20202020202020202020202020202020202020202020206101208201527f2020202020202020202020616772656775652061206573746120636164656e616101408201527f2e0000000000000000000000000000000000000000000000000000000000000061016082015250565b600061354a610161836127d2565b91506135558261336d565b61018082019050919050565b6000602082019050818103600083015261357a8161353c565b9050919050565b7f456c20636f6e747261746f206e6f206861207369646f20646573706c6567616460008201527f6f00000000000000000000000000000000000000000000000000000000000000602082015250565b60006135dd6021836127d2565b91506135e882613581565b604082019050919050565b6000602082019050818103600083015261360c816135d0565b9050919050565b7f456c207061676f2064652073752063756f7461206861207369646f207265616c60008201527f697a61646f20636f6e20657869746f2c207365206c65206465766f6c7665726160208201527f20656c2063616d62696f2061207375206375656e746100000000000000000000604082015250565b60006136956056836127d2565b91506136a082613613565b606082019050919050565b600060208201905081810360008301526136c481613688565b9050919050565b60006136d682612532565b91506136e183612532565b92508282019050808211156136f9576136f8612875565b5b92915050565b7f456c207061676f2064652073752063756f7461206573206d656e6f7220616c2060008201527f65737461626c656369646f2c20656c2061637469766f2073657261207265766560208201527f727469646f000000000000000000000000000000000000000000000000000000604082015250565b60006137816045836127d2565b915061378c826136ff565b606082019050919050565b600060208201905081810360008301526137b081613774565b9050919050565b7f456c207061676f2064652073752063756f7461206861207369646f207265616c60008201527f697a61646f20636f6e20657869746f0000000000000000000000000000000000602082015250565b6000613813602f836127d2565b915061381e826137b7565b604082019050919050565b6000602082019050818103600083015261384281613806565b9050919050565b7f5961206861207265616c697a61646f20656c207061676f20706172612073752060008201527f63756f7461000000000000000000000000000000000000000000000000000000602082015250565b60006138a56025836127d2565b91506138b082613849565b604082019050919050565b600060208201905081810360008301526138d481613898565b9050919050565b7f4e6f2070756564652070616761722073752063756f74612064656269646f206160008201527f20717565207375207573756172696f2066756520696e686162696c697461646f60208201527f206465206c6120636164656e612020202020202020202020202020202020202060408201527f202020202020202020202020202020202020202020202020202020706f72206e60608201527f6f2063756d706c697220636f6e20756e207061676f2064652063756f7461206160808201527f6e746572696f720000000000000000000000000000000000000000000000000060a082015250565b60006139cf60a7836127d2565b91506139da826138db565b60c082019050919050565b600060208201905081810360008301526139fe816139c2565b9050919050565b7f4e6f2070756564652070617274696369706172206e69207265616c697a61722060008201527f7061676f2064652063756f74617320202020202020202020202020202020202060208201527f202020202020202020202020202020202020202020202020706f72717565207360408201527f75207573756172696f20736520656e6375656e74726120696e686162696c697460608201527f61646f0000000000000000000000000000000000000000000000000000000000608082015250565b6000613ad36083836127d2565b9150613ade82613a05565b60a082019050919050565b60006020820190508181036000830152613b0281613ac6565b9050919050565b7f537520646972656363696f6e206465207573756172696f206e6f20686120736960008201527f646f20616772656761646120706f7220656c20646573706c656761646f72206460208201527f656c20636f6e747261746f2e202020202020202020202020202020202020202060408201527f2020202020202020202020202020506f72206c6f2074616e746f20737520616360608201527f6365736f2065732064656e656761646f2070617261207061727469636970617260808201527f20656e206573746120636164656e612e0000000000000000000000000000000060a082015250565b6000613bfd60b0836127d2565b9150613c0882613b09565b60c082019050919050565b60006020820190508181036000830152613c2c81613bf0565b9050919050565b7f456c207573756172696f206861207369646f20616772656761646f20636f727260008201527f656374616d656e74650000000000000000000000000000000000000000000000602082015250565b6000613c8f6029836127d2565b9150613c9a82613c33565b604082019050919050565b60006020820190508181036000830152613cbe81613c82565b9050919050565b7f45737465207573756172696f207961206861207369646f20616772656761646f600082015250565b6000613cfb6020836127d2565b9150613d0682613cc5565b602082019050919050565b60006020820190508181036000830152613d2a81613cee565b9050919050565b7f44656265206465207265616c697a617220656c207061676f20616e746573206460008201527f6520706f6465722061677265676172207573756172696f730000000000000000602082015250565b6000613d8d6038836127d2565b9150613d9882613d31565b604082019050919050565b60006020820190508181036000830152613dbc81613d80565b9050919050565b7f4e6f2070756564652061677265676172206d617320696e74656772616e74657360008201527f20706f72717565207961206861206461646f20696e6963696f2061206c61206360208201527f6164656e61000000000000000000000000000000000000000000000000000000604082015250565b6000613e456045836127d2565b9150613e5082613dc3565b606082019050919050565b60006020820190508181036000830152613e7481613e38565b9050919050565b7f537520706c617a6f207061726120656c207061676f206465206c612063756f7460008201527f612068612076656e6369646f2e20436f6d6f20726573756c7461646f2c20736560208201527f726120202020202020202020202020202020202020202020202020202020202060408201527f2020202020202020696e686162696c697461646f206465206c6120636164656e60608201527f612064652061686f72726f732079206e6f20706f64726120706172746963697060808201527f6172206e69207265616c697a617220202020202020202020202020202020202060a08201527f20202020202020202020202020202020202020206d6173207061676f732e205360c08201527f752073616c646f20656e206c6120636164656e61207365206c65206465766f6c60e08201527f7665726120616c2066696e616c697a6172206c61206d69736d6100000000000061010082015250565b6000613fe361011a836127d2565b9150613fee82613e7b565b61012082019050919050565b6000602082019050818103600083015261401381613fd5565b9050919050565b7f4e756d65726f5573756172696f7341637469766f730000000000000000000000600082015250565b60006140506015836127d2565b915061405b8261401a565b602082019050919050565b7f506572696f646f735472616e736375727269646f730000000000000000000000600082015250565b600061409c6015836127d2565b91506140a782614066565b602082019050919050565b600060808201905081810360008301526140cb81614043565b90506140da60208301856125d6565b81810360408301526140eb8161408f565b90506140fa60608301846125d6565b9392505050565b7f4e487b7100000000000000000000000000000000000000000000000000000000600052601260045260246000fd5b600061413b82612532565b915061414683612532565b92508261415657614155614101565b5b828204905092915050565b7f41717569207365207375706f6e6520717565207465726d696e616e206c6f732060008201527f706572696f646f73206465207469656d706f0000000000000000000000000000602082015250565b60006141bd6032836127d2565b91506141c882614161565b604082019050919050565b600060208201905081810360008301526141ec816141b0565b9050919050565b7f456c20636f6e747261746f206e6f207469656e6520737566696369656e74652060008201527f73616c646f000000000000000000000000000000000000000000000000000000602082015250565b600061424f6025836127d2565b915061425a826141f3565b604082019050919050565b6000602082019050818103600083015261427e81614242565b905091905056fea264697066735822122059fc3fb2ec4c6af084b415221bb0cc28ea6d8ea5097c1db28380915fda78d19064736f6c63430008180033",
  "linkReferences": {},
  "deployedLinkReferences": {}
}