{"contracts/ContratoCadena.sol":{"ContratoCadena":{"abi":[{"inputs":[],"stateMutability":"nonpayable","type":"constructor"},{"anonymous":false,"inputs":[{"indexed":false,"internalType":"uint256","name":"BalanceUsuario","type":"uint256"}],"name":"BalanceAsignadoUsuario","type":"event"},{"anonymous":false,"inputs":[{"indexed":false,"internalType":"string","name":"mensaje1","type":"string"},{"indexed":false,"internalType":"uint256","name":"","type":"uint256"},{"indexed":false,"internalType":"string","name":"mensaje2","type":"string"},{"indexed":false,"internalType":"uint256","name":"","type":"uint256"}],"name":"Depuracion","type":"event"},{"anonymous":false,"inputs":[{"indexed":false,"internalType":"string","name":"mensaje","type":"string"}],"name":"LogString","type":"event"},{"anonymous":false,"inputs":[{"indexed":false,"internalType":"string","name":"mensaje","type":"string"}],"name":"MensajeAUsuario","type":"event"},{"inputs":[],"name":"ActualizarCuota","outputs":[],"stateMutability":"nonpayable","type":"function"},{"inputs":[{"internalType":"address","name":"NuevaDireccion","type":"address"}],"name":"AgregarDireccionesDeUsuarios","outputs":[],"stateMutability":"nonpayable","type":"function"},{"inputs":[],"name":"DuenoCadena","outputs":[{"internalType":"address payable","name":"","type":"address"}],"stateMutability":"view","type":"function"},{"inputs":[],"name":"IniciarContrato","outputs":[],"stateMutability":"nonpayable","type":"function"},{"inputs":[],"name":"MostrarBalanceUsuarios","outputs":[{"internalType":"int256","name":"","type":"int256"},{"internalType":"int256","name":"","type":"int256"},{"internalType":"uint256","name":"","type":"uint256"}],"stateMutability":"view","type":"function"},{"inputs":[{"internalType":"uint256","name":"Indice","type":"uint256"}],"name":"MostrarInformacionUsuarios","outputs":[{"internalType":"address","name":"","type":"address"},{"internalType":"uint256","name":"","type":"uint256"},{"internalType":"uint256","name":"","type":"uint256"},{"internalType":"uint256","name":"","type":"uint256"},{"internalType":"bool","name":"","type":"bool"},{"internalType":"bool","name":"","type":"bool"},{"internalType":"bool","name":"","type":"bool"}],"stateMutability":"view","type":"function"},{"inputs":[],"name":"RecibirIngresosCuotasUsuarios","outputs":[],"stateMutability":"payable","type":"function"},{"inputs":[],"name":"RecibirIngresosDeParticipacionUsuarios","outputs":[],"stateMutability":"payable","type":"function"},{"inputs":[],"name":"RecibirPagoDuenoCadena","outputs":[],"stateMutability":"payable","type":"function"},{"inputs":[{"internalType":"uint256","name":"","type":"uint256"}],"name":"Usuarios","outputs":[{"internalType":"address","name":"direccionUsuario","type":"address"},{"internalType":"uint256","name":"valorCuota","type":"uint256"},{"internalType":"uint256","name":"montoAsignado","type":"uint256"},{"internalType":"uint256","name":"BalanceUsuario","type":"uint256"},{"internalType":"bool","name":"estadoUsuario","type":"bool"},{"internalType":"bool","name":"estadoUsuarioExpulsion","type":"bool"},{"internalType":"bool","name":"EstadoPagoCuota","type":"bool"},{"internalType":"bool","name":"EstadoMontoAsignado","type":"bool"}],"stateMutability":"view","type":"function"}],"evm":{"bytecode":{"linkReferences":{},"object":"608060405234801561001057600080fd5b5073abc5761a3551a3976d60e483a9b5a83825b6d1f3600f60006101000a81548173ffffffffffffffffffffffffffffffffffffffff021916908373ffffffffffffffffffffffffffffffffffffffff1602179055506000601060006101000a81548173ffffffffffffffffffffffffffffffffffffffff021916908373ffffffffffffffffffffffffffffffffffffffff16021790555030601160006101000a81548173ffffffffffffffffffffffffffffffffffffffff021916908373ffffffffffffffffffffffffffffffffffffffff160217905550642e90edd0006006819055506409502f90006007819055506409502f90006008819055506000600960006101000a81548160ff0219169083151502179055506000600960026101000a81548160ff0219169083151502179055506000600c60006101000a81548160ff0219169083151502179055506000600a819055506000600b819055506000600d819055506000600e8190555064012a05f200600081905550600060018190555060006002819055506000600360006101000a81548160ff0219169083151502179055506000600360016101000a81548160ff0219169083151502179055506000600360026101000a81548160ff02191690831515021790555060006003806101000a81548160ff0219169083151502179055506000600960016101000a81548160ff021916908315150217905550600060128190555060006013819055506000601481905550600060158190555060006016819055506142bb806102576000396000f3fe6080604052600436106100915760003560e01c80637946a632116100595780637946a6321461013d578063dda3ae0614610180578063ec091412146101ad578063ef7d74a7146101b7578063f35b5dba146101c157610091565b806323cc291014610096578063296a46ea146100ad57806351755ac7146100c45780635ce639e4146100ce57806376879e2c14610112575b600080fd5b3480156100a257600080fd5b506100ab6101ea565b005b3480156100b957600080fd5b506100c26104b1565b005b6100cc61055a565b005b3480156100da57600080fd5b506100f560048036038101906100f09190612568565b6109d7565b604051610109989796959493929190612600565b60405180910390f35b34801561011e57600080fd5b50610127610a73565b604051610134919061269f565b60405180910390f35b34801561014957600080fd5b50610164600480360381019061015f9190612568565b610a99565b60405161017797969594939291906126ba565b60405180910390f35b34801561018c57600080fd5b50610195610c54565b6040516101a493929190612742565b60405180910390f35b6101b5610d1c565b005b6101bf611272565b005b3480156101cd57600080fd5b506101e860048036038101906101e391906127a5565b611926565b005b601060009054906101000a900473ffffffffffffffffffffffffffffffffffffffff1673ffffffffffffffffffffffffffffffffffffffff163373ffffffffffffffffffffffffffffffffffffffff1614801561025a575060011515600960009054906101000a900460ff161515145b610299576040517f08c379a000000000000000000000000000000000000000000000000000000000815260040161029090612855565b60405180910390fd5b6002600b54106103a75760001515600960029054906101000a900460ff1615150361036c576001600960026101000a81548160ff021916908315150217905550600f60009054906101000a900473ffffffffffffffffffffffffffffffffffffffff1673ffffffffffffffffffffffffffffffffffffffff166108fc6008549081150290604051600060405180830381858888f19350505050158015610343573d6000803e3d6000fd5b506008546012600082825461035891906128a4565b9250508190555060006014819055506103a2565b7f8219e183178a3d081fd913cf45272e0941a3458fb72727c776d4fdde9713909860405161039990612934565b60405180910390a15b6104af565b7f8219e183178a3d081fd913cf45272e0941a3458fb72727c776d4fdde971390986040516103d490612aab565b60405180910390a160005b600a548110156104ad57600115156004600083815260200190815260200160002060040160009054906101000a900460ff161515036104a0576004600082815260200190815260200160002060000160009054906101000a900473ffffffffffffffffffffffffffffffffffffffff1673ffffffffffffffffffffffffffffffffffffffff166108fc6008549081150290604051600060405180830381858888f19350505050158015610496573d6000803e3d6000fd5b5060006014819055505b80806001019150506103df565b505b565b60011515600960029054906101000a900460ff16151514610507576040517f08c379a00000000000000000000000000000000000000000000000000000000081526004016104fe90612b17565b60405180910390fd5b61050f611d8f565b7fcbf8d47eb9e359ce110566fd758d0fee801f4c7065f4950422263aed2a6aa4096015546040516105409190612b37565b60405180910390a1610550611ee1565b6000601581905550565b33601060006101000a81548173ffffffffffffffffffffffffffffffffffffffff021916908373ffffffffffffffffffffffffffffffffffffffff16021790555060001515600960009054906101000a900460ff161515036109365760065434111561074f577f8219e183178a3d081fd913cf45272e0941a3458fb72727c776d4fdde971390986040516105ed90612c36565b60405180910390a1601060009054906101000a900473ffffffffffffffffffffffffffffffffffffffff1673ffffffffffffffffffffffffffffffffffffffff166108fc6006543461063f9190612c56565b9081150290604051600060405180830381858888f1935050505015801561066a573d6000803e3d6000fd5b506006546013600082825461067f9190612c8a565b92505081905550600f60009054906101000a900473ffffffffffffffffffffffffffffffffffffffff1673ffffffffffffffffffffffffffffffffffffffff166108fc6008546006546106d29190612c56565b9081150290604051600060405180830381858888f193505050501580156106fd573d6000803e3d6000fd5b5060085460065461070e9190612c8a565b6012600082825461071f91906128a4565b925050819055506008546014819055506001600960006101000a81548160ff021916908315150217905550610931565b600654341015610817577f8219e183178a3d081fd913cf45272e0941a3458fb72727c776d4fdde9713909860405161078690612d3f565b60405180910390a1601060009054906101000a900473ffffffffffffffffffffffffffffffffffffffff1673ffffffffffffffffffffffffffffffffffffffff166108fc349081150290604051600060405180830381858888f193505050501580156107f6573d6000803e3d6000fd5b506000600960006101000a81548160ff021916908315150217905550610930565b600654340361092f577f8219e183178a3d081fd913cf45272e0941a3458fb72727c776d4fdde9713909860405161084d90612df7565b60405180910390a1600f60009054906101000a900473ffffffffffffffffffffffffffffffffffffffff1673ffffffffffffffffffffffffffffffffffffffff166108fc6008543461089f9190612c56565b9081150290604051600060405180830381858888f193505050501580156108ca573d6000803e3d6000fd5b5034601360008282546108dd9190612c8a565b92505081905550600854346108f29190612c8a565b6012600082825461090391906128a4565b925050819055506008546014819055506001600960006101000a81548160ff0219169083151502179055505b5b5b6109d5565b7f8219e183178a3d081fd913cf45272e0941a3458fb72727c776d4fdde9713909860405161096390612e89565b60405180910390a1601060009054906101000a900473ffffffffffffffffffffffffffffffffffffffff1673ffffffffffffffffffffffffffffffffffffffff166108fc349081150290604051600060405180830381858888f193505050501580156109d3573d6000803e3d6000fd5b505b565b60046020528060005260406000206000915090508060000160009054906101000a900473ffffffffffffffffffffffffffffffffffffffff16908060010154908060020154908060030154908060040160009054906101000a900460ff16908060040160019054906101000a900460ff16908060040160029054906101000a900460ff16908060040160039054906101000a900460ff16905088565b601060009054906101000a900473ffffffffffffffffffffffffffffffffffffffff1681565b6000806000806000806000601060009054906101000a900473ffffffffffffffffffffffffffffffffffffffff1673ffffffffffffffffffffffffffffffffffffffff163373ffffffffffffffffffffffffffffffffffffffff16148015610b14575060011515600960009054906101000a900460ff161515145b610b53576040517f08c379a0000000000000000000000000000000000000000000000000000000008152600401610b4a90612855565b60405180910390fd5b6004600089815260200190815260200160002060000160009054906101000a900473ffffffffffffffffffffffffffffffffffffffff16600460008a815260200190815260200160002060010154600460008b815260200190815260200160002060020154600460008c815260200190815260200160002060030154600460008d815260200190815260200160002060040160009054906101000a900460ff16600460008e815260200190815260200160002060040160029054906101000a900460ff16600460008f815260200190815260200160002060040160039054906101000a900460ff169650965096509650965096509650919395979092949650565b6000806000601060009054906101000a900473ffffffffffffffffffffffffffffffffffffffff1673ffffffffffffffffffffffffffffffffffffffff163373ffffffffffffffffffffffffffffffffffffffff16148015610cc9575060011515600960009054906101000a900460ff161515145b610d08576040517f08c379a0000000000000000000000000000000000000000000000000000000008152600401610cff90612855565b60405180910390fd5b601354601254601454925092509250909192565b60001515600960029054906101000a900460ff16151514610d72576040517f08c379a0000000000000000000000000000000000000000000000000000000008152600401610d6990612f8d565b60405180910390fd5b60005b600a548110156111bc576004600082815260200190815260200160002060000160009054906101000a900473ffffffffffffffffffffffffffffffffffffffff1673ffffffffffffffffffffffffffffffffffffffff163373ffffffffffffffffffffffffffffffffffffffff16036111af57600015156004600083815260200190815260200160002060040160009054906101000a900460ff1615150361111657600754341115610f7c5760016004600083815260200190815260200160002060040160006101000a81548160ff021916908315150217905550600b6000815480929190610e6390612fad565b91905055507f8219e183178a3d081fd913cf45272e0941a3458fb72727c776d4fdde97139098604051610e95906130d9565b60405180910390a13373ffffffffffffffffffffffffffffffffffffffff166108fc60075434610ec59190612c56565b9081150290604051600060405180830381858888f19350505050158015610ef0573d6000803e3d6000fd5b50601060009054906101000a900473ffffffffffffffffffffffffffffffffffffffff1673ffffffffffffffffffffffffffffffffffffffff166108fc6007549081150290604051600060405180830381858888f19350505050158015610f5b573d6000803e3d6000fd5b5060075460136000828254610f7091906128a4565b92505081905550611111565b600754341015611007577f8219e183178a3d081fd913cf45272e0941a3458fb72727c776d4fdde97139098604051610fb3906131dd565b60405180910390a13373ffffffffffffffffffffffffffffffffffffffff166108fc349081150290604051600060405180830381858888f19350505050158015611001573d6000803e3d6000fd5b50611110565b600754340361110f5760016004600083815260200190815260200160002060040160006101000a81548160ff021916908315150217905550600b600081548092919061105290612fad565b91905055507f8219e183178a3d081fd913cf45272e0941a3458fb72727c776d4fdde9713909860405161108490613295565b60405180910390a1601060009054906101000a900473ffffffffffffffffffffffffffffffffffffffff1673ffffffffffffffffffffffffffffffffffffffff166108fc349081150290604051600060405180830381858888f193505050501580156110f4573d6000803e3d6000fd5b50346013600082825461110791906128a4565b925050819055505b5b5b611193565b7f8219e183178a3d081fd913cf45272e0941a3458fb72727c776d4fdde971390986040516111439061334d565b60405180910390a13373ffffffffffffffffffffffffffffffffffffffff166108fc349081150290604051600060405180830381858888f19350505050158015611191573d6000803e3d6000fd5b505b6001600960016101000a81548160ff0219169083151502179055505b8080600101915050610d75565b5060001515600960019054906101000a900460ff16151503611255577f8219e183178a3d081fd913cf45272e0941a3458fb72727c776d4fdde9713909860405161120590613561565b60405180910390a13373ffffffffffffffffffffffffffffffffffffffff166108fc349081150290604051600060405180830381858888f19350505050158015611253573d6000803e3d6000fd5b505b6000600960016101000a81548160ff021916908315150217905550565b60011515600960029054906101000a900460ff161515146112c8576040517f08c379a00000000000000000000000000000000000000000000000000000000081526004016112bf906135f3565b60405180910390fd5b60005b600a54811015611870576004600082815260200190815260200160002060000160009054906101000a900473ffffffffffffffffffffffffffffffffffffffff1673ffffffffffffffffffffffffffffffffffffffff163373ffffffffffffffffffffffffffffffffffffffff160361186357600115156004600083815260200190815260200160002060040160009054906101000a900460ff161515036117ca57600015156004600083815260200190815260200160002060040160019054906101000a900460ff1615150361174857600015156004600083815260200190815260200160002060040160029054906101000a900460ff161515036116c657600460008281526020019081526020016000206001015434111561152c577f8219e183178a3d081fd913cf45272e0941a3458fb72727c776d4fdde97139098604051611416906136ab565b60405180910390a160016004600083815260200190815260200160002060040160026101000a81548160ff02191690831515021790555060046000828152602001908152602001600020600101546015600082825461147591906136cb565b9250508190555060046000828152602001908152602001600020600101546004600083815260200190815260200160002060030160008282546114b891906136cb565b925050819055503373ffffffffffffffffffffffffffffffffffffffff166108fc6004600084815260200190815260200160002060010154346114fb9190612c56565b9081150290604051600060405180830381858888f19350505050158015611526573d6000803e3d6000fd5b506116c1565b60046000828152602001908152602001600020600101543410156115cb577f8219e183178a3d081fd913cf45272e0941a3458fb72727c776d4fdde9713909860405161157790613797565b60405180910390a13373ffffffffffffffffffffffffffffffffffffffff166108fc349081150290604051600060405180830381858888f193505050501580156115c5573d6000803e3d6000fd5b506116c0565b600460008281526020019081526020016000206001015434036116bf577f8219e183178a3d081fd913cf45272e0941a3458fb72727c776d4fdde9713909860405161161590613829565b60405180910390a160016004600083815260200190815260200160002060040160026101000a81548160ff02191690831515021790555060046000828152602001908152602001600020600101546015600082825461167491906136cb565b9250508190555060046000828152602001908152602001600020600101546004600083815260200190815260200160002060030160008282546116b791906136cb565b925050819055505b5b5b611743565b7f8219e183178a3d081fd913cf45272e0941a3458fb72727c776d4fdde971390986040516116f3906138bb565b60405180910390a13373ffffffffffffffffffffffffffffffffffffffff166108fc349081150290604051600060405180830381858888f19350505050158015611741573d6000803e3d6000fd5b505b6117c5565b7f8219e183178a3d081fd913cf45272e0941a3458fb72727c776d4fdde97139098604051611775906139e5565b60405180910390a13373ffffffffffffffffffffffffffffffffffffffff166108fc349081150290604051600060405180830381858888f193505050501580156117c3573d6000803e3d6000fd5b505b611847565b7f8219e183178a3d081fd913cf45272e0941a3458fb72727c776d4fdde971390986040516117f790613ae9565b60405180910390a13373ffffffffffffffffffffffffffffffffffffffff166108fc349081150290604051600060405180830381858888f19350505050158015611845573d6000803e3d6000fd5b505b6001600960016101000a81548160ff0219169083151502179055505b80806001019150506112cb565b5060001515600960019054906101000a900460ff16151503611909577f8219e183178a3d081fd913cf45272e0941a3458fb72727c776d4fdde971390986040516118b990613c13565b60405180910390a13373ffffffffffffffffffffffffffffffffffffffff166108fc349081150290604051600060405180830381858888f19350505050158015611907573d6000803e3d6000fd5b505b6000600960016101000a81548160ff021916908315150217905550565b601060009054906101000a900473ffffffffffffffffffffffffffffffffffffffff1673ffffffffffffffffffffffffffffffffffffffff163373ffffffffffffffffffffffffffffffffffffffff16148015611996575060011515600960009054906101000a900460ff161515145b6119d5576040517f08c379a00000000000000000000000000000000000000000000000000000000081526004016119cc90612855565b60405180910390fd5b60001515600960029054906101000a900460ff16151503611d565760011515600960009054906101000a900460ff16151503611d1b5760005b600a54811015611aaa578173ffffffffffffffffffffffffffffffffffffffff166004600083815260200190815260200160002060000160009054906101000a900473ffffffffffffffffffffffffffffffffffffffff1673ffffffffffffffffffffffffffffffffffffffff1603611a9d576001600c60006101000a81548160ff0219169083151502179055505b8080600101915050611a0e565b5060001515600c60009054906101000a900460ff16151503611cc5576040518061010001604052808273ffffffffffffffffffffffffffffffffffffffff168152602001600054815260200160015481526020016002548152602001600360009054906101000a900460ff1615158152602001600360019054906101000a900460ff1615158152602001600360029054906101000a900460ff161515815260200160038054906101000a900460ff16151581525060046000600d54815260200190815260200160002060008201518160000160006101000a81548173ffffffffffffffffffffffffffffffffffffffff021916908373ffffffffffffffffffffffffffffffffffffffff16021790555060208201518160010155604082015181600201556060820151816003015560808201518160040160006101000a81548160ff02191690831515021790555060a08201518160040160016101000a81548160ff02191690831515021790555060c08201518160040160026101000a81548160ff02191690831515021790555060e08201518160040160036101000a81548160ff021916908315150217905550905050600a6000815480929190611c6e90612fad565b9190505550600d6000815480929190611c8690612fad565b91905055507f8219e183178a3d081fd913cf45272e0941a3458fb72727c776d4fdde97139098604051611cb890613ca5565b60405180910390a1611d16565b7f8219e183178a3d081fd913cf45272e0941a3458fb72727c776d4fdde97139098604051611cf290613d11565b60405180910390a16000600c60006101000a81548160ff0219169083151502179055505b611d51565b7f8219e183178a3d081fd913cf45272e0941a3458fb72727c776d4fdde97139098604051611d4890613da3565b60405180910390a15b611d8c565b7f8219e183178a3d081fd913cf45272e0941a3458fb72727c776d4fdde97139098604051611d8390613e5b565b60405180910390a15b50565b60005b600a54811015611ede57600115156004600083815260200190815260200160002060040160009054906101000a900460ff161515148015611dfa5750600015156004600083815260200190815260200160002060040160029054906101000a900460ff161515145b8015611e2d5750600015156004600083815260200190815260200160002060040160019054906101000a900460ff161515145b15611e9b577f8219e183178a3d081fd913cf45272e0941a3458fb72727c776d4fdde97139098604051611e5f90613ffa565b60405180910390a160016004600083815260200190815260200160002060040160016101000a81548160ff021916908315150217905550611ecb565b60006004600083815260200190815260200160002060040160026101000a81548160ff0219169083151502179055505b8080611ed690612fad565b915050611d92565b50565b6000805b600a546016541015612144576001151560046000601654815260200190815260200160002060040160009054906101000a900460ff161515148015611f5357506000151560046000601654815260200190815260200160002060040160039054906101000a900460ff161515145b1561212757600e6000815480929190611f6b90612fad565b91905055507f5a6a6b6346ad9f320415c39c64020f70afda843975cc98d6b8c858b530be81fb600b54600e54604051611fa59291906140b2565b60405180910390a1600b54600e5410156120c25760155460046000601654815260200190815260200160002060020181905550600160046000601654815260200190815260200160002060040160036101000a81548160ff021916908315150217905550600e54600b546120199190612c56565b9150600460006016548152602001908152602001600020600301546015546120419190612c8a565b9050600081131561209e5781600460006016548152602001908152602001600020600301546015546120739190612c56565b61207d9190614130565b600460006016548152602001908152602001600020600101819055506120bd565b6000600460006016548152602001908152602001600020600101819055505b612108565b7f8219e183178a3d081fd913cf45272e0941a3458fb72727c776d4fdde971390986040516120ef906141d3565b60405180910390a16120ff612149565b6121076122a5565b5b6016600081548092919061211b90612fad565b91905055505050612147565b6016600081548092919061213a90612fad565b9190505550611ee5565b50505b565b60005b600a548110156122a25760046000828152602001908152602001600020600301544710156121af576040517f08c379a00000000000000000000000000000000000000000000000000000000081526004016121a690614265565b60405180910390fd5b600060046000838152602001908152602001600020600301541180156121fc5750600115156004600083815260200190815260200160002060040160009054906101000a900460ff161515145b15612295576004600082815260200190815260200160002060000160009054906101000a900473ffffffffffffffffffffffffffffffffffffffff1673ffffffffffffffffffffffffffffffffffffffff166108fc60046000848152602001908152602001600020600301549081150290604051600060405180830381858888f19350505050158015612293573d6000803e3d6000fd5b505b808060010191505061214c565b50565b60005b600a5481101561245357604051806101000160405280600073ffffffffffffffffffffffffffffffffffffffff168152602001600054815260200160015481526020016002548152602001600360009054906101000a900460ff1615158152602001600360019054906101000a900460ff1615158152602001600360029054906101000a900460ff161515815260200160038054906101000a900460ff1615158152506004600083815260200190815260200160002060008201518160000160006101000a81548173ffffffffffffffffffffffffffffffffffffffff021916908373ffffffffffffffffffffffffffffffffffffffff16021790555060208201518160010155604082015181600201556060820151816003015560808201518160040160006101000a81548160ff02191690831515021790555060a08201518160040160016101000a81548160ff02191690831515021790555060c08201518160040160026101000a81548160ff02191690831515021790555060e08201518160040160036101000a81548160ff02191690831515021790555090505080806001019150506122a8565b506000600960026101000a81548160ff0219169083151502179055506000600e819055506000600960006101000a81548160ff0219169083151502179055506000600960026101000a81548160ff0219169083151502179055506000600c60006101000a81548160ff0219169083151502179055506000600a819055506000600b819055506000600d819055506000600e819055506000600960016101000a81548160ff02191690831515021790555060006012819055506000601381905550600060148190555060006015819055506000601681905550565b600080fd5b6000819050919050565b61254581612532565b811461255057600080fd5b50565b6000813590506125628161253c565b92915050565b60006020828403121561257e5761257d61252d565b5b600061258c84828501612553565b91505092915050565b600073ffffffffffffffffffffffffffffffffffffffff82169050919050565b60006125c082612595565b9050919050565b6125d0816125b5565b82525050565b6125df81612532565b82525050565b60008115159050919050565b6125fa816125e5565b82525050565b600061010082019050612616600083018b6125c7565b612623602083018a6125d6565b61263060408301896125d6565b61263d60608301886125d6565b61264a60808301876125f1565b61265760a08301866125f1565b61266460c08301856125f1565b61267160e08301846125f1565b9998505050505050505050565b600061268982612595565b9050919050565b6126998161267e565b82525050565b60006020820190506126b46000830184612690565b92915050565b600060e0820190506126cf600083018a6125c7565b6126dc60208301896125d6565b6126e960408301886125d6565b6126f660608301876125d6565b61270360808301866125f1565b61271060a08301856125f1565b61271d60c08301846125f1565b98975050505050505050565b6000819050919050565b61273c81612729565b82525050565b60006060820190506127576000830186612733565b6127646020830185612733565b61277160408301846125d6565b949350505050565b612782816125b5565b811461278d57600080fd5b50565b60008135905061279f81612779565b92915050565b6000602082840312156127bb576127ba61252d565b5b60006127c984828501612790565b91505092915050565b600082825260208201905092915050565b7f536f6c6f20656c206475656e6f206465206c6120636164656e6120707565646560008201527f207265616c697a6172206573746120616363696f6e0000000000000000000000602082015250565b600061283f6035836127d2565b915061284a826127e3565b604082019050919050565b6000602082019050818103600083015261286e81612832565b9050919050565b7f4e487b7100000000000000000000000000000000000000000000000000000000600052601160045260246000fd5b60006128af82612729565b91506128ba83612729565b9250828201905082811215600083121683821260008412151617156128e2576128e1612875565b5b92915050565b7f5961207365206861206461646f20696e6963696f2061206c6120636164656e61600082015250565b600061291e6020836127d2565b9150612929826128e8565b602082019050919050565b6000602082019050818103600083015261294d81612911565b9050919050565b7f456c206e756d65726f206465207573756172696f732061637469766f7320646560008201527f62652073657220616c6d656e6f7320646520646f73207061726120696e69636960208201527f6172206c6120636164656e612c2020202020202020202020202020202020202060408201527f202020202020202020202020202020656c206d6f6e746f20636f6e7369676e6160608201527f646f207661206120736572207265746f726e61646f20646520666f726d61206960808201527f6e6d65646961746120616c20756e69636f207573756172696f2020202020202060a08201527f202020202020202020202020202020202020202020202020202020616374697660c08201527f6f20656e206c6120636164656e612e000000000000000000000000000000000060e082015250565b6000612a9460ef836127d2565b9150612a9f82612954565b61010082019050919050565b60006020820190508181036000830152612ac481612a87565b9050919050565b7f4c6120636164656e61206e6f206861207369646f20696e696369616461000000600082015250565b6000612b01601d836127d2565b9150612b0c82612acb565b602082019050919050565b60006020820190508181036000830152612b3081612af4565b9050919050565b6000602082019050612b4c60008301846125d6565b92915050565b7f5375207061676f206861207369646f207265616c697a61646f20636f6e20657860008201527f69746f20792061686f726120657320656c206475656e6f206465206c6120636160208201527f64656e612020202020202020202020202020202020202020202020202020202060408201527f20202020202020202c207365206c65206465766f6c7665726120656c2063616d60608201527f62696f2061207375206375656e74610000000000000000000000000000000000608082015250565b6000612c20608f836127d2565b9150612c2b82612b52565b60a082019050919050565b60006020820190508181036000830152612c4f81612c13565b9050919050565b6000612c6182612532565b9150612c6c83612532565b9250828203905081811115612c8457612c83612875565b5b92915050565b6000612c9582612729565b9150612ca083612729565b9250828203905081811260008412168282136000851215161715612cc757612cc6612875565b5b92915050565b7f5375207061676f206573206d656e6f7220616c2065737461626c656369646f2c60008201527f20656c2061637469766f20736572612072657665727469646f00000000000000602082015250565b6000612d296039836127d2565b9150612d3482612ccd565b604082019050919050565b60006020820190508181036000830152612d5881612d1c565b9050919050565b7f5375207061676f206861207369646f207265616c697a61646f20636f6e20657860008201527f69746f20792061686f726120657320656c206475656e6f206465206c6120636160208201527f64656e6100000000000000000000000000000000000000000000000000000000604082015250565b6000612de16044836127d2565b9150612dec82612d5f565b606082019050919050565b60006020820190508181036000830152612e1081612dd4565b9050919050565b7f5961207365206861207265616c697a61646f20656c207061676f20706172612060008201527f686162696c6974617220656c20696e6963696f206465206c6120636164656e61602082015250565b6000612e736040836127d2565b9150612e7e82612e17565b604082019050919050565b60006020820190508181036000830152612ea281612e66565b9050919050565b7f5961206e6f207365206163657074616e207061676f732070617261207061727460008201527f69636970617220656e206c6120636164656e612c20202020202020202020202060208201527f202020202020202020202020202020202020202020202020202020207961207160408201527f75652065737461206861207369646f20696e696369616461207920737520706c60608201527f617a6f206465207061676f2068612076656e6369646f2e000000000000000000608082015250565b6000612f776097836127d2565b9150612f8282612ea9565b60a082019050919050565b60006020820190508181036000830152612fa681612f6a565b9050919050565b6000612fb882612532565b91507fffffffffffffffffffffffffffffffffffffffffffffffffffffffffffffffff8203612fea57612fe9612875565b5b600182019050919050565b7f5375207061676f206861207369646f2070726f63657361646f20657869746f7360008201527f616d656e74652079206861207369646f20616772656761646f2061206c61206360208201527f6164656e6120202020202020202020202020202020202020202020202020202060408201527f202020202020202020202020202020202020202c7365206c65206465766f6c7660608201527f65726120656c2063616d62696f2061207375206375656e746100000000000000608082015250565b60006130c36099836127d2565b91506130ce82612ff5565b60a082019050919050565b600060208201905081810360008301526130f2816130b6565b9050919050565b7f4572726f7220616c2070726f6365736172207375207061676f3a20656c206d6f60008201527f6e746f20696e6772657361646f206573206d656e6f7220616c2065737461626c60208201527f656369646f2e202020202020202020202020202020202020202020202020202060408201527f20202020202020202020202020202020202020205375207061676f207365726160608201527f2072657665727469646f00000000000000000000000000000000000000000000608082015250565b60006131c7608a836127d2565b91506131d2826130f9565b60a082019050919050565b600060208201905081810360008301526131f6816131ba565b9050919050565b7f5375207061676f206861207369646f2070726f63657361646f20657869746f7360008201527f616d656e74652079206861207369646f20616772656761646f2061206c61206360208201527f6164656e61000000000000000000000000000000000000000000000000000000604082015250565b600061327f6045836127d2565b915061328a826131fd565b606082019050919050565b600060208201905081810360008301526132ae81613272565b9050919050565b7f5573746564207961206861207265616c697a61646f20656c207061676f20616e60008201527f746572696f726d656e74652c207375207061676f20736572612072657665727460208201527f69646f2e00000000000000000000000000000000000000000000000000000000604082015250565b60006133376044836127d2565b9150613342826132b5565b606082019050919050565b600060208201905081810360008301526133668161332a565b9050919050565b7f537520646972656363696f6e206465207573756172696f206e6f20686120736960008201527f646f20616772656761646120706f7220656c20646573706c656761646f72206460208201527f656c20636f6e747261746f2e202020202020202020202020202020202020202060408201527f2020202020202020202020202020506f72206c6f2074616e746f2c207375207060608201527f61676f206861207369646f2064656e656761646f2e205369206465736561206660808201527f6f726d6172207061727465206465206573746520636f6e747261746f2c20202060a08201527f202020202020202020202020202020202020202020202020202020202020207060c08201527f6f72206661766f722c20706f6e6761736520656e20636f6e746163746f20636f60e08201527f6e20656c20646573706c656761646f722064656c20636f6e747261746f2070616101008201527f726120717565206c6f20202020202020202020202020202020202020202020206101208201527f2020202020202020202020616772656775652061206573746120636164656e616101408201527f2e0000000000000000000000000000000000000000000000000000000000000061016082015250565b600061354a610161836127d2565b91506135558261336d565b61018082019050919050565b6000602082019050818103600083015261357a8161353c565b9050919050565b7f456c20636f6e747261746f206e6f206861207369646f20646573706c6567616460008201527f6f00000000000000000000000000000000000000000000000000000000000000602082015250565b60006135dd6021836127d2565b91506135e882613581565b604082019050919050565b6000602082019050818103600083015261360c816135d0565b9050919050565b7f456c207061676f2064652073752063756f7461206861207369646f207265616c60008201527f697a61646f20636f6e20657869746f2c207365206c65206465766f6c7665726160208201527f20656c2063616d62696f2061207375206375656e746100000000000000000000604082015250565b60006136956056836127d2565b91506136a082613613565b606082019050919050565b600060208201905081810360008301526136c481613688565b9050919050565b60006136d682612532565b91506136e183612532565b92508282019050808211156136f9576136f8612875565b5b92915050565b7f456c207061676f2064652073752063756f7461206573206d656e6f7220616c2060008201527f65737461626c656369646f2c20656c2061637469766f2073657261207265766560208201527f727469646f000000000000000000000000000000000000000000000000000000604082015250565b60006137816045836127d2565b915061378c826136ff565b606082019050919050565b600060208201905081810360008301526137b081613774565b9050919050565b7f456c207061676f2064652073752063756f7461206861207369646f207265616c60008201527f697a61646f20636f6e20657869746f0000000000000000000000000000000000602082015250565b6000613813602f836127d2565b915061381e826137b7565b604082019050919050565b6000602082019050818103600083015261384281613806565b9050919050565b7f5961206861207265616c697a61646f20656c207061676f20706172612073752060008201527f63756f7461000000000000000000000000000000000000000000000000000000602082015250565b60006138a56025836127d2565b91506138b082613849565b604082019050919050565b600060208201905081810360008301526138d481613898565b9050919050565b7f4e6f2070756564652070616761722073752063756f74612064656269646f206160008201527f20717565207375207573756172696f2066756520696e686162696c697461646f60208201527f206465206c6120636164656e612020202020202020202020202020202020202060408201527f202020202020202020202020202020202020202020202020202020706f72206e60608201527f6f2063756d706c697220636f6e20756e207061676f2064652063756f7461206160808201527f6e746572696f720000000000000000000000000000000000000000000000000060a082015250565b60006139cf60a7836127d2565b91506139da826138db565b60c082019050919050565b600060208201905081810360008301526139fe816139c2565b9050919050565b7f4e6f2070756564652070617274696369706172206e69207265616c697a61722060008201527f7061676f2064652063756f74617320202020202020202020202020202020202060208201527f202020202020202020202020202020202020202020202020706f72717565207360408201527f75207573756172696f20736520656e6375656e74726120696e686162696c697460608201527f61646f0000000000000000000000000000000000000000000000000000000000608082015250565b6000613ad36083836127d2565b9150613ade82613a05565b60a082019050919050565b60006020820190508181036000830152613b0281613ac6565b9050919050565b7f537520646972656363696f6e206465207573756172696f206e6f20686120736960008201527f646f20616772656761646120706f7220656c20646573706c656761646f72206460208201527f656c20636f6e747261746f2e202020202020202020202020202020202020202060408201527f2020202020202020202020202020506f72206c6f2074616e746f20737520616360608201527f6365736f2065732064656e656761646f2070617261207061727469636970617260808201527f20656e206573746120636164656e612e0000000000000000000000000000000060a082015250565b6000613bfd60b0836127d2565b9150613c0882613b09565b60c082019050919050565b60006020820190508181036000830152613c2c81613bf0565b9050919050565b7f456c207573756172696f206861207369646f20616772656761646f20636f727260008201527f656374616d656e74650000000000000000000000000000000000000000000000602082015250565b6000613c8f6029836127d2565b9150613c9a82613c33565b604082019050919050565b60006020820190508181036000830152613cbe81613c82565b9050919050565b7f45737465207573756172696f207961206861207369646f20616772656761646f600082015250565b6000613cfb6020836127d2565b9150613d0682613cc5565b602082019050919050565b60006020820190508181036000830152613d2a81613cee565b9050919050565b7f44656265206465207265616c697a617220656c207061676f20616e746573206460008201527f6520706f6465722061677265676172207573756172696f730000000000000000602082015250565b6000613d8d6038836127d2565b9150613d9882613d31565b604082019050919050565b60006020820190508181036000830152613dbc81613d80565b9050919050565b7f4e6f2070756564652061677265676172206d617320696e74656772616e74657360008201527f20706f72717565207961206861206461646f20696e6963696f2061206c61206360208201527f6164656e61000000000000000000000000000000000000000000000000000000604082015250565b6000613e456045836127d2565b9150613e5082613dc3565b606082019050919050565b60006020820190508181036000830152613e7481613e38565b9050919050565b7f537520706c617a6f207061726120656c207061676f206465206c612063756f7460008201527f612068612076656e6369646f2e20436f6d6f20726573756c7461646f2c20736560208201527f726120202020202020202020202020202020202020202020202020202020202060408201527f2020202020202020696e686162696c697461646f206465206c6120636164656e60608201527f612064652061686f72726f732079206e6f20706f64726120706172746963697060808201527f6172206e69207265616c697a617220202020202020202020202020202020202060a08201527f20202020202020202020202020202020202020206d6173207061676f732e205360c08201527f752073616c646f20656e206c6120636164656e61207365206c65206465766f6c60e08201527f7665726120616c2066696e616c697a6172206c61206d69736d6100000000000061010082015250565b6000613fe361011a836127d2565b9150613fee82613e7b565b61012082019050919050565b6000602082019050818103600083015261401381613fd5565b9050919050565b7f4e756d65726f5573756172696f7341637469766f730000000000000000000000600082015250565b60006140506015836127d2565b915061405b8261401a565b602082019050919050565b7f506572696f646f735472616e736375727269646f730000000000000000000000600082015250565b600061409c6015836127d2565b91506140a782614066565b602082019050919050565b600060808201905081810360008301526140cb81614043565b90506140da60208301856125d6565b81810360408301526140eb8161408f565b90506140fa60608301846125d6565b9392505050565b7f4e487b7100000000000000000000000000000000000000000000000000000000600052601260045260246000fd5b600061413b82612532565b915061414683612532565b92508261415657614155614101565b5b828204905092915050565b7f41717569207365207375706f6e6520717565207465726d696e616e206c6f732060008201527f706572696f646f73206465207469656d706f0000000000000000000000000000602082015250565b60006141bd6032836127d2565b91506141c882614161565b604082019050919050565b600060208201905081810360008301526141ec816141b0565b9050919050565b7f456c20636f6e747261746f206e6f207469656e6520737566696369656e74652060008201527f73616c646f000000000000000000000000000000000000000000000000000000602082015250565b600061424f6025836127d2565b915061425a826141f3565b604082019050919050565b6000602082019050818103600083015261427e81614242565b905091905056fea264697066735822122059fc3fb2ec4c6af084b415221bb0cc28ea6d8ea5097c1db28380915fda78d19064736f6c63430008180033","opcodes":"PUSH1 0x80 PUSH1 0x40 MSTORE CALLVALUE DUP1 ISZERO PUSH2 0x10 JUMPI PUSH1 0x0 DUP1 REVERT JUMPDEST POP PUSH20 0xABC5761A3551A3976D60E483A9B5A83825B6D1F3 PUSH1 0xF PUSH1 0x0 PUSH2 0x100 EXP DUP2 SLOAD DUP2 PUSH20 0xFFFFFFFFFFFFFFFFFFFFFFFFFFFFFFFFFFFFFFFF MUL NOT AND SWAP1 DUP4 PUSH20 0xFFFFFFFFFFFFFFFFFFFFFFFFFFFFFFFFFFFFFFFF AND MUL OR SWAP1 SSTORE POP PUSH1 0x0 PUSH1 0x10 PUSH1 0x0 PUSH2 0x100 EXP DUP2 SLOAD DUP2 PUSH20 0xFFFFFFFFFFFFFFFFFFFFFFFFFFFFFFFFFFFFFFFF MUL NOT AND SWAP1 DUP4 PUSH20 0xFFFFFFFFFFFFFFFFFFFFFFFFFFFFFFFFFFFFFFFF AND MUL OR SWAP1 SSTORE POP ADDRESS PUSH1 0x11 PUSH1 0x0 PUSH2 0x100 EXP DUP2 SLOAD DUP2 PUSH20 0xFFFFFFFFFFFFFFFFFFFFFFFFFFFFFFFFFFFFFFFF MUL NOT AND SWAP1 DUP4 PUSH20 0xFFFFFFFFFFFFFFFFFFFFFFFFFFFFFFFFFFFFFFFF AND MUL OR SWAP1 SSTORE POP PUSH5 0x2E90EDD000 PUSH1 0x6 DUP2 SWAP1 SSTORE POP PUSH5 0x9502F9000 PUSH1 0x7 DUP2 SWAP1 SSTORE POP PUSH5 0x9502F9000 PUSH1 0x8 DUP2 SWAP1 SSTORE POP PUSH1 0x0 PUSH1 0x9 PUSH1 0x0 PUSH2 0x100 EXP DUP2 SLOAD DUP2 PUSH1 0xFF MUL NOT AND SWAP1 DUP4 ISZERO ISZERO MUL OR SWAP1 SSTORE POP PUSH1 0x0 PUSH1 0x9 PUSH1 0x2 PUSH2 0x100 EXP DUP2 SLOAD DUP2 PUSH1 0xFF MUL NOT AND SWAP1 DUP4 ISZERO ISZERO MUL OR SWAP1 SSTORE POP PUSH1 0x0 PUSH1 0xC PUSH1 0x0 PUSH2 0x100 EXP DUP2 SLOAD DUP2 PUSH1 0xFF MUL NOT AND SWAP1 DUP4 ISZERO ISZERO MUL OR SWAP1 SSTORE POP PUSH1 0x0 PUSH1 0xA DUP2 SWAP1 SSTORE POP PUSH1 0x0 PUSH1 0xB DUP2 SWAP1 SSTORE POP PUSH1 0x0 PUSH1 0xD DUP2 SWAP1 SSTORE POP PUSH1 0x0 PUSH1 0xE DUP2 SWAP1 SSTORE POP PUSH5 0x12A05F200 PUSH1 0x0 DUP2 SWAP1 SSTORE POP PUSH1 0x0 PUSH1 0x1 DUP2 SWAP1 SSTORE POP PUSH1 0x0 PUSH1 0x2 DUP2 SWAP1 SSTORE POP PUSH1 0x0 PUSH1 0x3 PUSH1 0x0 PUSH2 0x100 EXP DUP2 SLOAD DUP2 PUSH1 0xFF MUL NOT AND SWAP1 DUP4 ISZERO ISZERO MUL OR SWAP1 SSTORE POP PUSH1 0x0 PUSH1 0x3 PUSH1 0x1 PUSH2 0x100 EXP DUP2 SLOAD DUP2 PUSH1 0xFF MUL NOT AND SWAP1 DUP4 ISZERO ISZERO MUL OR SWAP1 SSTORE POP PUSH1 0x0 PUSH1 0x3 PUSH1 0x2 PUSH2 0x100 EXP DUP2 SLOAD DUP2 PUSH1 0xFF MUL NOT AND SWAP1 DUP4 ISZERO ISZERO MUL OR SWAP1 SSTORE POP PUSH1 0x0 PUSH1 0x3 DUP1 PUSH2 0x100 EXP DUP2 SLOAD DUP2 PUSH1 0xFF MUL NOT AND SWAP1 DUP4 ISZERO ISZERO MUL OR SWAP1 SSTORE POP PUSH1 0x0 PUSH1 0x9 PUSH1 0x1 PUSH2 0x100 EXP DUP2 SLOAD DUP2 PUSH1 0xFF MUL NOT AND SWAP1 DUP4 ISZERO ISZERO MUL OR SWAP1 SSTORE POP PUSH1 0x0 PUSH1 0x12 DUP2 SWAP1 SSTORE POP PUSH1 0x0 PUSH1 0x13 DUP2 SWAP1 SSTORE POP PUSH1 0x0 PUSH1 0x14 DUP2 SWAP1 SSTORE POP PUSH1 0x0 PUSH1 0x15 DUP2 SWAP1 SSTORE POP PUSH1 0x0 PUSH1 0x16 DUP2 SWAP1 SSTORE POP PUSH2 0x42BB DUP1 PUSH2 0x257 PUSH1 0x0 CODECOPY PUSH1 0x0 RETURN INVALID PUSH1 0x80 PUSH1 0x40 MSTORE PUSH1 0x4 CALLDATASIZE LT PUSH2 0x91 JUMPI PUSH1 0x0 CALLDATALOAD PUSH1 0xE0 SHR DUP1 PUSH4 0x7946A632 GT PUSH2 0x59 JUMPI DUP1 PUSH4 0x7946A632 EQ PUSH2 0x13D JUMPI DUP1 PUSH4 0xDDA3AE06 EQ PUSH2 0x180 JUMPI DUP1 PUSH4 0xEC091412 EQ PUSH2 0x1AD JUMPI DUP1 PUSH4 0xEF7D74A7 EQ PUSH2 0x1B7 JUMPI DUP1 PUSH4 0xF35B5DBA EQ PUSH2 0x1C1 JUMPI PUSH2 0x91 JUMP JUMPDEST DUP1 PUSH4 0x23CC2910 EQ PUSH2 0x96 JUMPI DUP1 PUSH4 0x296A46EA EQ PUSH2 0xAD JUMPI DUP1 PUSH4 0x51755AC7 EQ PUSH2 0xC4 JUMPI DUP1 PUSH4 0x5CE639E4 EQ PUSH2 0xCE JUMPI DUP1 PUSH4 0x76879E2C EQ PUSH2 0x112 JUMPI JUMPDEST PUSH1 0x0 DUP1 REVERT JUMPDEST CALLVALUE DUP1 ISZERO PUSH2 0xA2 JUMPI PUSH1 0x0 DUP1 REVERT JUMPDEST POP PUSH2 0xAB PUSH2 0x1EA JUMP JUMPDEST STOP JUMPDEST CALLVALUE DUP1 ISZERO PUSH2 0xB9 JUMPI PUSH1 0x0 DUP1 REVERT JUMPDEST POP PUSH2 0xC2 PUSH2 0x4B1 JUMP JUMPDEST STOP JUMPDEST PUSH2 0xCC PUSH2 0x55A JUMP JUMPDEST STOP JUMPDEST CALLVALUE DUP1 ISZERO PUSH2 0xDA JUMPI PUSH1 0x0 DUP1 REVERT JUMPDEST POP PUSH2 0xF5 PUSH1 0x4 DUP1 CALLDATASIZE SUB DUP2 ADD SWAP1 PUSH2 0xF0 SWAP2 SWAP1 PUSH2 0x2568 JUMP JUMPDEST PUSH2 0x9D7 JUMP JUMPDEST PUSH1 0x40 MLOAD PUSH2 0x109 SWAP9 SWAP8 SWAP7 SWAP6 SWAP5 SWAP4 SWAP3 SWAP2 SWAP1 PUSH2 0x2600 JUMP JUMPDEST PUSH1 0x40 MLOAD DUP1 SWAP2 SUB SWAP1 RETURN JUMPDEST CALLVALUE DUP1 ISZERO PUSH2 0x11E JUMPI PUSH1 0x0 DUP1 REVERT JUMPDEST POP PUSH2 0x127 PUSH2 0xA73 JUMP JUMPDEST PUSH1 0x40 MLOAD PUSH2 0x134 SWAP2 SWAP1 PUSH2 0x269F JUMP JUMPDEST PUSH1 0x40 MLOAD DUP1 SWAP2 SUB SWAP1 RETURN JUMPDEST CALLVALUE DUP1 ISZERO PUSH2 0x149 JUMPI PUSH1 0x0 DUP1 REVERT JUMPDEST POP PUSH2 0x164 PUSH1 0x4 DUP1 CALLDATASIZE SUB DUP2 ADD SWAP1 PUSH2 0x15F SWAP2 SWAP1 PUSH2 0x2568 JUMP JUMPDEST PUSH2 0xA99 JUMP JUMPDEST PUSH1 0x40 MLOAD PUSH2 0x177 SWAP8 SWAP7 SWAP6 SWAP5 SWAP4 SWAP3 SWAP2 SWAP1 PUSH2 0x26BA JUMP JUMPDEST PUSH1 0x40 MLOAD DUP1 SWAP2 SUB SWAP1 RETURN JUMPDEST CALLVALUE DUP1 ISZERO PUSH2 0x18C JUMPI PUSH1 0x0 DUP1 REVERT JUMPDEST POP PUSH2 0x195 PUSH2 0xC54 JUMP JUMPDEST PUSH1 0x40 MLOAD PUSH2 0x1A4 SWAP4 SWAP3 SWAP2 SWAP1 PUSH2 0x2742 JUMP JUMPDEST PUSH1 0x40 MLOAD DUP1 SWAP2 SUB SWAP1 RETURN JUMPDEST PUSH2 0x1B5 PUSH2 0xD1C JUMP JUMPDEST STOP JUMPDEST PUSH2 0x1BF PUSH2 0x1272 JUMP JUMPDEST STOP JUMPDEST CALLVALUE DUP1 ISZERO PUSH2 0x1CD JUMPI PUSH1 0x0 DUP1 REVERT JUMPDEST POP PUSH2 0x1E8 PUSH1 0x4 DUP1 CALLDATASIZE SUB DUP2 ADD SWAP1 PUSH2 0x1E3 SWAP2 SWAP1 PUSH2 0x27A5 JUMP JUMPDEST PUSH2 0x1926 JUMP JUMPDEST STOP JUMPDEST PUSH1 0x10 PUSH1 0x0 SWAP1 SLOAD SWAP1 PUSH2 0x100 EXP SWAP1 DIV PUSH20 0xFFFFFFFFFFFFFFFFFFFFFFFFFFFFFFFFFFFFFFFF AND PUSH20 0xFFFFFFFFFFFFFFFFFFFFFFFFFFFFFFFFFFFFFFFF AND CALLER PUSH20 0xFFFFFFFFFFFFFFFFFFFFFFFFFFFFFFFFFFFFFFFF AND EQ DUP1 ISZERO PUSH2 0x25A JUMPI POP PUSH1 0x1 ISZERO ISZERO PUSH1 0x9 PUSH1 0x0 SWAP1 SLOAD SWAP1 PUSH2 0x100 EXP SWAP1 DIV PUSH1 0xFF AND ISZERO ISZERO EQ JUMPDEST PUSH2 0x299 JUMPI PUSH1 0x40 MLOAD PUSH32 0x8C379A000000000000000000000000000000000000000000000000000000000 DUP2 MSTORE PUSH1 0x4 ADD PUSH2 0x290 SWAP1 PUSH2 0x2855 JUMP JUMPDEST PUSH1 0x40 MLOAD DUP1 SWAP2 SUB SWAP1 REVERT JUMPDEST PUSH1 0x2 PUSH1 0xB SLOAD LT PUSH2 0x3A7 JUMPI PUSH1 0x0 ISZERO ISZERO PUSH1 0x9 PUSH1 0x2 SWAP1 SLOAD SWAP1 PUSH2 0x100 EXP SWAP1 DIV PUSH1 0xFF AND ISZERO ISZERO SUB PUSH2 0x36C JUMPI PUSH1 0x1 PUSH1 0x9 PUSH1 0x2 PUSH2 0x100 EXP DUP2 SLOAD DUP2 PUSH1 0xFF MUL NOT AND SWAP1 DUP4 ISZERO ISZERO MUL OR SWAP1 SSTORE POP PUSH1 0xF PUSH1 0x0 SWAP1 SLOAD SWAP1 PUSH2 0x100 EXP SWAP1 DIV PUSH20 0xFFFFFFFFFFFFFFFFFFFFFFFFFFFFFFFFFFFFFFFF AND PUSH20 0xFFFFFFFFFFFFFFFFFFFFFFFFFFFFFFFFFFFFFFFF AND PUSH2 0x8FC PUSH1 0x8 SLOAD SWAP1 DUP2 ISZERO MUL SWAP1 PUSH1 0x40 MLOAD PUSH1 0x0 PUSH1 0x40 MLOAD DUP1 DUP4 SUB DUP2 DUP6 DUP9 DUP9 CALL SWAP4 POP POP POP POP ISZERO DUP1 ISZERO PUSH2 0x343 JUMPI RETURNDATASIZE PUSH1 0x0 DUP1 RETURNDATACOPY RETURNDATASIZE PUSH1 0x0 REVERT JUMPDEST POP PUSH1 0x8 SLOAD PUSH1 0x12 PUSH1 0x0 DUP3 DUP3 SLOAD PUSH2 0x358 SWAP2 SWAP1 PUSH2 0x28A4 JUMP JUMPDEST SWAP3 POP POP DUP2 SWAP1 SSTORE POP PUSH1 0x0 PUSH1 0x14 DUP2 SWAP1 SSTORE POP PUSH2 0x3A2 JUMP JUMPDEST PUSH32 0x8219E183178A3D081FD913CF45272E0941A3458FB72727C776D4FDDE97139098 PUSH1 0x40 MLOAD PUSH2 0x399 SWAP1 PUSH2 0x2934 JUMP JUMPDEST PUSH1 0x40 MLOAD DUP1 SWAP2 SUB SWAP1 LOG1 JUMPDEST PUSH2 0x4AF JUMP JUMPDEST PUSH32 0x8219E183178A3D081FD913CF45272E0941A3458FB72727C776D4FDDE97139098 PUSH1 0x40 MLOAD PUSH2 0x3D4 SWAP1 PUSH2 0x2AAB JUMP JUMPDEST PUSH1 0x40 MLOAD DUP1 SWAP2 SUB SWAP1 LOG1 PUSH1 0x0 JUMPDEST PUSH1 0xA SLOAD DUP2 LT ISZERO PUSH2 0x4AD JUMPI PUSH1 0x1 ISZERO ISZERO PUSH1 0x4 PUSH1 0x0 DUP4 DUP2 MSTORE PUSH1 0x20 ADD SWAP1 DUP2 MSTORE PUSH1 0x20 ADD PUSH1 0x0 KECCAK256 PUSH1 0x4 ADD PUSH1 0x0 SWAP1 SLOAD SWAP1 PUSH2 0x100 EXP SWAP1 DIV PUSH1 0xFF AND ISZERO ISZERO SUB PUSH2 0x4A0 JUMPI PUSH1 0x4 PUSH1 0x0 DUP3 DUP2 MSTORE PUSH1 0x20 ADD SWAP1 DUP2 MSTORE PUSH1 0x20 ADD PUSH1 0x0 KECCAK256 PUSH1 0x0 ADD PUSH1 0x0 SWAP1 SLOAD SWAP1 PUSH2 0x100 EXP SWAP1 DIV PUSH20 0xFFFFFFFFFFFFFFFFFFFFFFFFFFFFFFFFFFFFFFFF AND PUSH20 0xFFFFFFFFFFFFFFFFFFFFFFFFFFFFFFFFFFFFFFFF AND PUSH2 0x8FC PUSH1 0x8 SLOAD SWAP1 DUP2 ISZERO MUL SWAP1 PUSH1 0x40 MLOAD PUSH1 0x0 PUSH1 0x40 MLOAD DUP1 DUP4 SUB DUP2 DUP6 DUP9 DUP9 CALL SWAP4 POP POP POP POP ISZERO DUP1 ISZERO PUSH2 0x496 JUMPI RETURNDATASIZE PUSH1 0x0 DUP1 RETURNDATACOPY RETURNDATASIZE PUSH1 0x0 REVERT JUMPDEST POP PUSH1 0x0 PUSH1 0x14 DUP2 SWAP1 SSTORE POP JUMPDEST DUP1 DUP1 PUSH1 0x1 ADD SWAP2 POP POP PUSH2 0x3DF JUMP JUMPDEST POP JUMPDEST JUMP JUMPDEST PUSH1 0x1 ISZERO ISZERO PUSH1 0x9 PUSH1 0x2 SWAP1 SLOAD SWAP1 PUSH2 0x100 EXP SWAP1 DIV PUSH1 0xFF AND ISZERO ISZERO EQ PUSH2 0x507 JUMPI PUSH1 0x40 MLOAD PUSH32 0x8C379A000000000000000000000000000000000000000000000000000000000 DUP2 MSTORE PUSH1 0x4 ADD PUSH2 0x4FE SWAP1 PUSH2 0x2B17 JUMP JUMPDEST PUSH1 0x40 MLOAD DUP1 SWAP2 SUB SWAP1 REVERT JUMPDEST PUSH2 0x50F PUSH2 0x1D8F JUMP JUMPDEST PUSH32 0xCBF8D47EB9E359CE110566FD758D0FEE801F4C7065F4950422263AED2A6AA409 PUSH1 0x15 SLOAD PUSH1 0x40 MLOAD PUSH2 0x540 SWAP2 SWAP1 PUSH2 0x2B37 JUMP JUMPDEST PUSH1 0x40 MLOAD DUP1 SWAP2 SUB SWAP1 LOG1 PUSH2 0x550 PUSH2 0x1EE1 JUMP JUMPDEST PUSH1 0x0 PUSH1 0x15 DUP2 SWAP1 SSTORE POP JUMP JUMPDEST CALLER PUSH1 0x10 PUSH1 0x0 PUSH2 0x100 EXP DUP2 SLOAD DUP2 PUSH20 0xFFFFFFFFFFFFFFFFFFFFFFFFFFFFFFFFFFFFFFFF MUL NOT AND SWAP1 DUP4 PUSH20 0xFFFFFFFFFFFFFFFFFFFFFFFFFFFFFFFFFFFFFFFF AND MUL OR SWAP1 SSTORE POP PUSH1 0x0 ISZERO ISZERO PUSH1 0x9 PUSH1 0x0 SWAP1 SLOAD SWAP1 PUSH2 0x100 EXP SWAP1 DIV PUSH1 0xFF AND ISZERO ISZERO SUB PUSH2 0x936 JUMPI PUSH1 0x6 SLOAD CALLVALUE GT ISZERO PUSH2 0x74F JUMPI PUSH32 0x8219E183178A3D081FD913CF45272E0941A3458FB72727C776D4FDDE97139098 PUSH1 0x40 MLOAD PUSH2 0x5ED SWAP1 PUSH2 0x2C36 JUMP JUMPDEST PUSH1 0x40 MLOAD DUP1 SWAP2 SUB SWAP1 LOG1 PUSH1 0x10 PUSH1 0x0 SWAP1 SLOAD SWAP1 PUSH2 0x100 EXP SWAP1 DIV PUSH20 0xFFFFFFFFFFFFFFFFFFFFFFFFFFFFFFFFFFFFFFFF AND PUSH20 0xFFFFFFFFFFFFFFFFFFFFFFFFFFFFFFFFFFFFFFFF AND PUSH2 0x8FC PUSH1 0x6 SLOAD CALLVALUE PUSH2 0x63F SWAP2 SWAP1 PUSH2 0x2C56 JUMP JUMPDEST SWAP1 DUP2 ISZERO MUL SWAP1 PUSH1 0x40 MLOAD PUSH1 0x0 PUSH1 0x40 MLOAD DUP1 DUP4 SUB DUP2 DUP6 DUP9 DUP9 CALL SWAP4 POP POP POP POP ISZERO DUP1 ISZERO PUSH2 0x66A JUMPI RETURNDATASIZE PUSH1 0x0 DUP1 RETURNDATACOPY RETURNDATASIZE PUSH1 0x0 REVERT JUMPDEST POP PUSH1 0x6 SLOAD PUSH1 0x13 PUSH1 0x0 DUP3 DUP3 SLOAD PUSH2 0x67F SWAP2 SWAP1 PUSH2 0x2C8A JUMP JUMPDEST SWAP3 POP POP DUP2 SWAP1 SSTORE POP PUSH1 0xF PUSH1 0x0 SWAP1 SLOAD SWAP1 PUSH2 0x100 EXP SWAP1 DIV PUSH20 0xFFFFFFFFFFFFFFFFFFFFFFFFFFFFFFFFFFFFFFFF AND PUSH20 0xFFFFFFFFFFFFFFFFFFFFFFFFFFFFFFFFFFFFFFFF AND PUSH2 0x8FC PUSH1 0x8 SLOAD PUSH1 0x6 SLOAD PUSH2 0x6D2 SWAP2 SWAP1 PUSH2 0x2C56 JUMP JUMPDEST SWAP1 DUP2 ISZERO MUL SWAP1 PUSH1 0x40 MLOAD PUSH1 0x0 PUSH1 0x40 MLOAD DUP1 DUP4 SUB DUP2 DUP6 DUP9 DUP9 CALL SWAP4 POP POP POP POP ISZERO DUP1 ISZERO PUSH2 0x6FD JUMPI RETURNDATASIZE PUSH1 0x0 DUP1 RETURNDATACOPY RETURNDATASIZE PUSH1 0x0 REVERT JUMPDEST POP PUSH1 0x8 SLOAD PUSH1 0x6 SLOAD PUSH2 0x70E SWAP2 SWAP1 PUSH2 0x2C8A JUMP JUMPDEST PUSH1 0x12 PUSH1 0x0 DUP3 DUP3 SLOAD PUSH2 0x71F SWAP2 SWAP1 PUSH2 0x28A4 JUMP JUMPDEST SWAP3 POP POP DUP2 SWAP1 SSTORE POP PUSH1 0x8 SLOAD PUSH1 0x14 DUP2 SWAP1 SSTORE POP PUSH1 0x1 PUSH1 0x9 PUSH1 0x0 PUSH2 0x100 EXP DUP2 SLOAD DUP2 PUSH1 0xFF MUL NOT AND SWAP1 DUP4 ISZERO ISZERO MUL OR SWAP1 SSTORE POP PUSH2 0x931 JUMP JUMPDEST PUSH1 0x6 SLOAD CALLVALUE LT ISZERO PUSH2 0x817 JUMPI PUSH32 0x8219E183178A3D081FD913CF45272E0941A3458FB72727C776D4FDDE97139098 PUSH1 0x40 MLOAD PUSH2 0x786 SWAP1 PUSH2 0x2D3F JUMP JUMPDEST PUSH1 0x40 MLOAD DUP1 SWAP2 SUB SWAP1 LOG1 PUSH1 0x10 PUSH1 0x0 SWAP1 SLOAD SWAP1 PUSH2 0x100 EXP SWAP1 DIV PUSH20 0xFFFFFFFFFFFFFFFFFFFFFFFFFFFFFFFFFFFFFFFF AND PUSH20 0xFFFFFFFFFFFFFFFFFFFFFFFFFFFFFFFFFFFFFFFF AND PUSH2 0x8FC CALLVALUE SWAP1 DUP2 ISZERO MUL SWAP1 PUSH1 0x40 MLOAD PUSH1 0x0 PUSH1 0x40 MLOAD DUP1 DUP4 SUB DUP2 DUP6 DUP9 DUP9 CALL SWAP4 POP POP POP POP ISZERO DUP1 ISZERO PUSH2 0x7F6 JUMPI RETURNDATASIZE PUSH1 0x0 DUP1 RETURNDATACOPY RETURNDATASIZE PUSH1 0x0 REVERT JUMPDEST POP PUSH1 0x0 PUSH1 0x9 PUSH1 0x0 PUSH2 0x100 EXP DUP2 SLOAD DUP2 PUSH1 0xFF MUL NOT AND SWAP1 DUP4 ISZERO ISZERO MUL OR SWAP1 SSTORE POP PUSH2 0x930 JUMP JUMPDEST PUSH1 0x6 SLOAD CALLVALUE SUB PUSH2 0x92F JUMPI PUSH32 0x8219E183178A3D081FD913CF45272E0941A3458FB72727C776D4FDDE97139098 PUSH1 0x40 MLOAD PUSH2 0x84D SWAP1 PUSH2 0x2DF7 JUMP JUMPDEST PUSH1 0x40 MLOAD DUP1 SWAP2 SUB SWAP1 LOG1 PUSH1 0xF PUSH1 0x0 SWAP1 SLOAD SWAP1 PUSH2 0x100 EXP SWAP1 DIV PUSH20 0xFFFFFFFFFFFFFFFFFFFFFFFFFFFFFFFFFFFFFFFF AND PUSH20 0xFFFFFFFFFFFFFFFFFFFFFFFFFFFFFFFFFFFFFFFF AND PUSH2 0x8FC PUSH1 0x8 SLOAD CALLVALUE PUSH2 0x89F SWAP2 SWAP1 PUSH2 0x2C56 JUMP JUMPDEST SWAP1 DUP2 ISZERO MUL SWAP1 PUSH1 0x40 MLOAD PUSH1 0x0 PUSH1 0x40 MLOAD DUP1 DUP4 SUB DUP2 DUP6 DUP9 DUP9 CALL SWAP4 POP POP POP POP ISZERO DUP1 ISZERO PUSH2 0x8CA JUMPI RETURNDATASIZE PUSH1 0x0 DUP1 RETURNDATACOPY RETURNDATASIZE PUSH1 0x0 REVERT JUMPDEST POP CALLVALUE PUSH1 0x13 PUSH1 0x0 DUP3 DUP3 SLOAD PUSH2 0x8DD SWAP2 SWAP1 PUSH2 0x2C8A JUMP JUMPDEST SWAP3 POP POP DUP2 SWAP1 SSTORE POP PUSH1 0x8 SLOAD CALLVALUE PUSH2 0x8F2 SWAP2 SWAP1 PUSH2 0x2C8A JUMP JUMPDEST PUSH1 0x12 PUSH1 0x0 DUP3 DUP3 SLOAD PUSH2 0x903 SWAP2 SWAP1 PUSH2 0x28A4 JUMP JUMPDEST SWAP3 POP POP DUP2 SWAP1 SSTORE POP PUSH1 0x8 SLOAD PUSH1 0x14 DUP2 SWAP1 SSTORE POP PUSH1 0x1 PUSH1 0x9 PUSH1 0x0 PUSH2 0x100 EXP DUP2 SLOAD DUP2 PUSH1 0xFF MUL NOT AND SWAP1 DUP4 ISZERO ISZERO MUL OR SWAP1 SSTORE POP JUMPDEST JUMPDEST JUMPDEST PUSH2 0x9D5 JUMP JUMPDEST PUSH32 0x8219E183178A3D081FD913CF45272E0941A3458FB72727C776D4FDDE97139098 PUSH1 0x40 MLOAD PUSH2 0x963 SWAP1 PUSH2 0x2E89 JUMP JUMPDEST PUSH1 0x40 MLOAD DUP1 SWAP2 SUB SWAP1 LOG1 PUSH1 0x10 PUSH1 0x0 SWAP1 SLOAD SWAP1 PUSH2 0x100 EXP SWAP1 DIV PUSH20 0xFFFFFFFFFFFFFFFFFFFFFFFFFFFFFFFFFFFFFFFF AND PUSH20 0xFFFFFFFFFFFFFFFFFFFFFFFFFFFFFFFFFFFFFFFF AND PUSH2 0x8FC CALLVALUE SWAP1 DUP2 ISZERO MUL SWAP1 PUSH1 0x40 MLOAD PUSH1 0x0 PUSH1 0x40 MLOAD DUP1 DUP4 SUB DUP2 DUP6 DUP9 DUP9 CALL SWAP4 POP POP POP POP ISZERO DUP1 ISZERO PUSH2 0x9D3 JUMPI RETURNDATASIZE PUSH1 0x0 DUP1 RETURNDATACOPY RETURNDATASIZE PUSH1 0x0 REVERT JUMPDEST POP JUMPDEST JUMP JUMPDEST PUSH1 0x4 PUSH1 0x20 MSTORE DUP1 PUSH1 0x0 MSTORE PUSH1 0x40 PUSH1 0x0 KECCAK256 PUSH1 0x0 SWAP2 POP SWAP1 POP DUP1 PUSH1 0x0 ADD PUSH1 0x0 SWAP1 SLOAD SWAP1 PUSH2 0x100 EXP SWAP1 DIV PUSH20 0xFFFFFFFFFFFFFFFFFFFFFFFFFFFFFFFFFFFFFFFF AND SWAP1 DUP1 PUSH1 0x1 ADD SLOAD SWAP1 DUP1 PUSH1 0x2 ADD SLOAD SWAP1 DUP1 PUSH1 0x3 ADD SLOAD SWAP1 DUP1 PUSH1 0x4 ADD PUSH1 0x0 SWAP1 SLOAD SWAP1 PUSH2 0x100 EXP SWAP1 DIV PUSH1 0xFF AND SWAP1 DUP1 PUSH1 0x4 ADD PUSH1 0x1 SWAP1 SLOAD SWAP1 PUSH2 0x100 EXP SWAP1 DIV PUSH1 0xFF AND SWAP1 DUP1 PUSH1 0x4 ADD PUSH1 0x2 SWAP1 SLOAD SWAP1 PUSH2 0x100 EXP SWAP1 DIV PUSH1 0xFF AND SWAP1 DUP1 PUSH1 0x4 ADD PUSH1 0x3 SWAP1 SLOAD SWAP1 PUSH2 0x100 EXP SWAP1 DIV PUSH1 0xFF AND SWAP1 POP DUP9 JUMP JUMPDEST PUSH1 0x10 PUSH1 0x0 SWAP1 SLOAD SWAP1 PUSH2 0x100 EXP SWAP1 DIV PUSH20 0xFFFFFFFFFFFFFFFFFFFFFFFFFFFFFFFFFFFFFFFF AND DUP2 JUMP JUMPDEST PUSH1 0x0 DUP1 PUSH1 0x0 DUP1 PUSH1 0x0 DUP1 PUSH1 0x0 PUSH1 0x10 PUSH1 0x0 SWAP1 SLOAD SWAP1 PUSH2 0x100 EXP SWAP1 DIV PUSH20 0xFFFFFFFFFFFFFFFFFFFFFFFFFFFFFFFFFFFFFFFF AND PUSH20 0xFFFFFFFFFFFFFFFFFFFFFFFFFFFFFFFFFFFFFFFF AND CALLER PUSH20 0xFFFFFFFFFFFFFFFFFFFFFFFFFFFFFFFFFFFFFFFF AND EQ DUP1 ISZERO PUSH2 0xB14 JUMPI POP PUSH1 0x1 ISZERO ISZERO PUSH1 0x9 PUSH1 0x0 SWAP1 SLOAD SWAP1 PUSH2 0x100 EXP SWAP1 DIV PUSH1 0xFF AND ISZERO ISZERO EQ JUMPDEST PUSH2 0xB53 JUMPI PUSH1 0x40 MLOAD PUSH32 0x8C379A000000000000000000000000000000000000000000000000000000000 DUP2 MSTORE PUSH1 0x4 ADD PUSH2 0xB4A SWAP1 PUSH2 0x2855 JUMP JUMPDEST PUSH1 0x40 MLOAD DUP1 SWAP2 SUB SWAP1 REVERT JUMPDEST PUSH1 0x4 PUSH1 0x0 DUP10 DUP2 MSTORE PUSH1 0x20 ADD SWAP1 DUP2 MSTORE PUSH1 0x20 ADD PUSH1 0x0 KECCAK256 PUSH1 0x0 ADD PUSH1 0x0 SWAP1 SLOAD SWAP1 PUSH2 0x100 EXP SWAP1 DIV PUSH20 0xFFFFFFFFFFFFFFFFFFFFFFFFFFFFFFFFFFFFFFFF AND PUSH1 0x4 PUSH1 0x0 DUP11 DUP2 MSTORE PUSH1 0x20 ADD SWAP1 DUP2 MSTORE PUSH1 0x20 ADD PUSH1 0x0 KECCAK256 PUSH1 0x1 ADD SLOAD PUSH1 0x4 PUSH1 0x0 DUP12 DUP2 MSTORE PUSH1 0x20 ADD SWAP1 DUP2 MSTORE PUSH1 0x20 ADD PUSH1 0x0 KECCAK256 PUSH1 0x2 ADD SLOAD PUSH1 0x4 PUSH1 0x0 DUP13 DUP2 MSTORE PUSH1 0x20 ADD SWAP1 DUP2 MSTORE PUSH1 0x20 ADD PUSH1 0x0 KECCAK256 PUSH1 0x3 ADD SLOAD PUSH1 0x4 PUSH1 0x0 DUP14 DUP2 MSTORE PUSH1 0x20 ADD SWAP1 DUP2 MSTORE PUSH1 0x20 ADD PUSH1 0x0 KECCAK256 PUSH1 0x4 ADD PUSH1 0x0 SWAP1 SLOAD SWAP1 PUSH2 0x100 EXP SWAP1 DIV PUSH1 0xFF AND PUSH1 0x4 PUSH1 0x0 DUP15 DUP2 MSTORE PUSH1 0x20 ADD SWAP1 DUP2 MSTORE PUSH1 0x20 ADD PUSH1 0x0 KECCAK256 PUSH1 0x4 ADD PUSH1 0x2 SWAP1 SLOAD SWAP1 PUSH2 0x100 EXP SWAP1 DIV PUSH1 0xFF AND PUSH1 0x4 PUSH1 0x0 DUP16 DUP2 MSTORE PUSH1 0x20 ADD SWAP1 DUP2 MSTORE PUSH1 0x20 ADD PUSH1 0x0 KECCAK256 PUSH1 0x4 ADD PUSH1 0x3 SWAP1 SLOAD SWAP1 PUSH2 0x100 EXP SWAP1 DIV PUSH1 0xFF AND SWAP7 POP SWAP7 POP SWAP7 POP SWAP7 POP SWAP7 POP SWAP7 POP SWAP7 POP SWAP2 SWAP4 SWAP6 SWAP8 SWAP1 SWAP3 SWAP5 SWAP7 POP JUMP JUMPDEST PUSH1 0x0 DUP1 PUSH1 0x0 PUSH1 0x10 PUSH1 0x0 SWAP1 SLOAD SWAP1 PUSH2 0x100 EXP SWAP1 DIV PUSH20 0xFFFFFFFFFFFFFFFFFFFFFFFFFFFFFFFFFFFFFFFF AND PUSH20 0xFFFFFFFFFFFFFFFFFFFFFFFFFFFFFFFFFFFFFFFF AND CALLER PUSH20 0xFFFFFFFFFFFFFFFFFFFFFFFFFFFFFFFFFFFFFFFF AND EQ DUP1 ISZERO PUSH2 0xCC9 JUMPI POP PUSH1 0x1 ISZERO ISZERO PUSH1 0x9 PUSH1 0x0 SWAP1 SLOAD SWAP1 PUSH2 0x100 EXP SWAP1 DIV PUSH1 0xFF AND ISZERO ISZERO EQ JUMPDEST PUSH2 0xD08 JUMPI PUSH1 0x40 MLOAD PUSH32 0x8C379A000000000000000000000000000000000000000000000000000000000 DUP2 MSTORE PUSH1 0x4 ADD PUSH2 0xCFF SWAP1 PUSH2 0x2855 JUMP JUMPDEST PUSH1 0x40 MLOAD DUP1 SWAP2 SUB SWAP1 REVERT JUMPDEST PUSH1 0x13 SLOAD PUSH1 0x12 SLOAD PUSH1 0x14 SLOAD SWAP3 POP SWAP3 POP SWAP3 POP SWAP1 SWAP2 SWAP3 JUMP JUMPDEST PUSH1 0x0 ISZERO ISZERO PUSH1 0x9 PUSH1 0x2 SWAP1 SLOAD SWAP1 PUSH2 0x100 EXP SWAP1 DIV PUSH1 0xFF AND ISZERO ISZERO EQ PUSH2 0xD72 JUMPI PUSH1 0x40 MLOAD PUSH32 0x8C379A000000000000000000000000000000000000000000000000000000000 DUP2 MSTORE PUSH1 0x4 ADD PUSH2 0xD69 SWAP1 PUSH2 0x2F8D JUMP JUMPDEST PUSH1 0x40 MLOAD DUP1 SWAP2 SUB SWAP1 REVERT JUMPDEST PUSH1 0x0 JUMPDEST PUSH1 0xA SLOAD DUP2 LT ISZERO PUSH2 0x11BC JUMPI PUSH1 0x4 PUSH1 0x0 DUP3 DUP2 MSTORE PUSH1 0x20 ADD SWAP1 DUP2 MSTORE PUSH1 0x20 ADD PUSH1 0x0 KECCAK256 PUSH1 0x0 ADD PUSH1 0x0 SWAP1 SLOAD SWAP1 PUSH2 0x100 EXP SWAP1 DIV PUSH20 0xFFFFFFFFFFFFFFFFFFFFFFFFFFFFFFFFFFFFFFFF AND PUSH20 0xFFFFFFFFFFFFFFFFFFFFFFFFFFFFFFFFFFFFFFFF AND CALLER PUSH20 0xFFFFFFFFFFFFFFFFFFFFFFFFFFFFFFFFFFFFFFFF AND SUB PUSH2 0x11AF JUMPI PUSH1 0x0 ISZERO ISZERO PUSH1 0x4 PUSH1 0x0 DUP4 DUP2 MSTORE PUSH1 0x20 ADD SWAP1 DUP2 MSTORE PUSH1 0x20 ADD PUSH1 0x0 KECCAK256 PUSH1 0x4 ADD PUSH1 0x0 SWAP1 SLOAD SWAP1 PUSH2 0x100 EXP SWAP1 DIV PUSH1 0xFF AND ISZERO ISZERO SUB PUSH2 0x1116 JUMPI PUSH1 0x7 SLOAD CALLVALUE GT ISZERO PUSH2 0xF7C JUMPI PUSH1 0x1 PUSH1 0x4 PUSH1 0x0 DUP4 DUP2 MSTORE PUSH1 0x20 ADD SWAP1 DUP2 MSTORE PUSH1 0x20 ADD PUSH1 0x0 KECCAK256 PUSH1 0x4 ADD PUSH1 0x0 PUSH2 0x100 EXP DUP2 SLOAD DUP2 PUSH1 0xFF MUL NOT AND SWAP1 DUP4 ISZERO ISZERO MUL OR SWAP1 SSTORE POP PUSH1 0xB PUSH1 0x0 DUP2 SLOAD DUP1 SWAP3 SWAP2 SWAP1 PUSH2 0xE63 SWAP1 PUSH2 0x2FAD JUMP JUMPDEST SWAP2 SWAP1 POP SSTORE POP PUSH32 0x8219E183178A3D081FD913CF45272E0941A3458FB72727C776D4FDDE97139098 PUSH1 0x40 MLOAD PUSH2 0xE95 SWAP1 PUSH2 0x30D9 JUMP JUMPDEST PUSH1 0x40 MLOAD DUP1 SWAP2 SUB SWAP1 LOG1 CALLER PUSH20 0xFFFFFFFFFFFFFFFFFFFFFFFFFFFFFFFFFFFFFFFF AND PUSH2 0x8FC PUSH1 0x7 SLOAD CALLVALUE PUSH2 0xEC5 SWAP2 SWAP1 PUSH2 0x2C56 JUMP JUMPDEST SWAP1 DUP2 ISZERO MUL SWAP1 PUSH1 0x40 MLOAD PUSH1 0x0 PUSH1 0x40 MLOAD DUP1 DUP4 SUB DUP2 DUP6 DUP9 DUP9 CALL SWAP4 POP POP POP POP ISZERO DUP1 ISZERO PUSH2 0xEF0 JUMPI RETURNDATASIZE PUSH1 0x0 DUP1 RETURNDATACOPY RETURNDATASIZE PUSH1 0x0 REVERT JUMPDEST POP PUSH1 0x10 PUSH1 0x0 SWAP1 SLOAD SWAP1 PUSH2 0x100 EXP SWAP1 DIV PUSH20 0xFFFFFFFFFFFFFFFFFFFFFFFFFFFFFFFFFFFFFFFF AND PUSH20 0xFFFFFFFFFFFFFFFFFFFFFFFFFFFFFFFFFFFFFFFF AND PUSH2 0x8FC PUSH1 0x7 SLOAD SWAP1 DUP2 ISZERO MUL SWAP1 PUSH1 0x40 MLOAD PUSH1 0x0 PUSH1 0x40 MLOAD DUP1 DUP4 SUB DUP2 DUP6 DUP9 DUP9 CALL SWAP4 POP POP POP POP ISZERO DUP1 ISZERO PUSH2 0xF5B JUMPI RETURNDATASIZE PUSH1 0x0 DUP1 RETURNDATACOPY RETURNDATASIZE PUSH1 0x0 REVERT JUMPDEST POP PUSH1 0x7 SLOAD PUSH1 0x13 PUSH1 0x0 DUP3 DUP3 SLOAD PUSH2 0xF70 SWAP2 SWAP1 PUSH2 0x28A4 JUMP JUMPDEST SWAP3 POP POP DUP2 SWAP1 SSTORE POP PUSH2 0x1111 JUMP JUMPDEST PUSH1 0x7 SLOAD CALLVALUE LT ISZERO PUSH2 0x1007 JUMPI PUSH32 0x8219E183178A3D081FD913CF45272E0941A3458FB72727C776D4FDDE97139098 PUSH1 0x40 MLOAD PUSH2 0xFB3 SWAP1 PUSH2 0x31DD JUMP JUMPDEST PUSH1 0x40 MLOAD DUP1 SWAP2 SUB SWAP1 LOG1 CALLER PUSH20 0xFFFFFFFFFFFFFFFFFFFFFFFFFFFFFFFFFFFFFFFF AND PUSH2 0x8FC CALLVALUE SWAP1 DUP2 ISZERO MUL SWAP1 PUSH1 0x40 MLOAD PUSH1 0x0 PUSH1 0x40 MLOAD DUP1 DUP4 SUB DUP2 DUP6 DUP9 DUP9 CALL SWAP4 POP POP POP POP ISZERO DUP1 ISZERO PUSH2 0x1001 JUMPI RETURNDATASIZE PUSH1 0x0 DUP1 RETURNDATACOPY RETURNDATASIZE PUSH1 0x0 REVERT JUMPDEST POP PUSH2 0x1110 JUMP JUMPDEST PUSH1 0x7 SLOAD CALLVALUE SUB PUSH2 0x110F JUMPI PUSH1 0x1 PUSH1 0x4 PUSH1 0x0 DUP4 DUP2 MSTORE PUSH1 0x20 ADD SWAP1 DUP2 MSTORE PUSH1 0x20 ADD PUSH1 0x0 KECCAK256 PUSH1 0x4 ADD PUSH1 0x0 PUSH2 0x100 EXP DUP2 SLOAD DUP2 PUSH1 0xFF MUL NOT AND SWAP1 DUP4 ISZERO ISZERO MUL OR SWAP1 SSTORE POP PUSH1 0xB PUSH1 0x0 DUP2 SLOAD DUP1 SWAP3 SWAP2 SWAP1 PUSH2 0x1052 SWAP1 PUSH2 0x2FAD JUMP JUMPDEST SWAP2 SWAP1 POP SSTORE POP PUSH32 0x8219E183178A3D081FD913CF45272E0941A3458FB72727C776D4FDDE97139098 PUSH1 0x40 MLOAD PUSH2 0x1084 SWAP1 PUSH2 0x3295 JUMP JUMPDEST PUSH1 0x40 MLOAD DUP1 SWAP2 SUB SWAP1 LOG1 PUSH1 0x10 PUSH1 0x0 SWAP1 SLOAD SWAP1 PUSH2 0x100 EXP SWAP1 DIV PUSH20 0xFFFFFFFFFFFFFFFFFFFFFFFFFFFFFFFFFFFFFFFF AND PUSH20 0xFFFFFFFFFFFFFFFFFFFFFFFFFFFFFFFFFFFFFFFF AND PUSH2 0x8FC CALLVALUE SWAP1 DUP2 ISZERO MUL SWAP1 PUSH1 0x40 MLOAD PUSH1 0x0 PUSH1 0x40 MLOAD DUP1 DUP4 SUB DUP2 DUP6 DUP9 DUP9 CALL SWAP4 POP POP POP POP ISZERO DUP1 ISZERO PUSH2 0x10F4 JUMPI RETURNDATASIZE PUSH1 0x0 DUP1 RETURNDATACOPY RETURNDATASIZE PUSH1 0x0 REVERT JUMPDEST POP CALLVALUE PUSH1 0x13 PUSH1 0x0 DUP3 DUP3 SLOAD PUSH2 0x1107 SWAP2 SWAP1 PUSH2 0x28A4 JUMP JUMPDEST SWAP3 POP POP DUP2 SWAP1 SSTORE POP JUMPDEST JUMPDEST JUMPDEST PUSH2 0x1193 JUMP JUMPDEST PUSH32 0x8219E183178A3D081FD913CF45272E0941A3458FB72727C776D4FDDE97139098 PUSH1 0x40 MLOAD PUSH2 0x1143 SWAP1 PUSH2 0x334D JUMP JUMPDEST PUSH1 0x40 MLOAD DUP1 SWAP2 SUB SWAP1 LOG1 CALLER PUSH20 0xFFFFFFFFFFFFFFFFFFFFFFFFFFFFFFFFFFFFFFFF AND PUSH2 0x8FC CALLVALUE SWAP1 DUP2 ISZERO MUL SWAP1 PUSH1 0x40 MLOAD PUSH1 0x0 PUSH1 0x40 MLOAD DUP1 DUP4 SUB DUP2 DUP6 DUP9 DUP9 CALL SWAP4 POP POP POP POP ISZERO DUP1 ISZERO PUSH2 0x1191 JUMPI RETURNDATASIZE PUSH1 0x0 DUP1 RETURNDATACOPY RETURNDATASIZE PUSH1 0x0 REVERT JUMPDEST POP JUMPDEST PUSH1 0x1 PUSH1 0x9 PUSH1 0x1 PUSH2 0x100 EXP DUP2 SLOAD DUP2 PUSH1 0xFF MUL NOT AND SWAP1 DUP4 ISZERO ISZERO MUL OR SWAP1 SSTORE POP JUMPDEST DUP1 DUP1 PUSH1 0x1 ADD SWAP2 POP POP PUSH2 0xD75 JUMP JUMPDEST POP PUSH1 0x0 ISZERO ISZERO PUSH1 0x9 PUSH1 0x1 SWAP1 SLOAD SWAP1 PUSH2 0x100 EXP SWAP1 DIV PUSH1 0xFF AND ISZERO ISZERO SUB PUSH2 0x1255 JUMPI PUSH32 0x8219E183178A3D081FD913CF45272E0941A3458FB72727C776D4FDDE97139098 PUSH1 0x40 MLOAD PUSH2 0x1205 SWAP1 PUSH2 0x3561 JUMP JUMPDEST PUSH1 0x40 MLOAD DUP1 SWAP2 SUB SWAP1 LOG1 CALLER PUSH20 0xFFFFFFFFFFFFFFFFFFFFFFFFFFFFFFFFFFFFFFFF AND PUSH2 0x8FC CALLVALUE SWAP1 DUP2 ISZERO MUL SWAP1 PUSH1 0x40 MLOAD PUSH1 0x0 PUSH1 0x40 MLOAD DUP1 DUP4 SUB DUP2 DUP6 DUP9 DUP9 CALL SWAP4 POP POP POP POP ISZERO DUP1 ISZERO PUSH2 0x1253 JUMPI RETURNDATASIZE PUSH1 0x0 DUP1 RETURNDATACOPY RETURNDATASIZE PUSH1 0x0 REVERT JUMPDEST POP JUMPDEST PUSH1 0x0 PUSH1 0x9 PUSH1 0x1 PUSH2 0x100 EXP DUP2 SLOAD DUP2 PUSH1 0xFF MUL NOT AND SWAP1 DUP4 ISZERO ISZERO MUL OR SWAP1 SSTORE POP JUMP JUMPDEST PUSH1 0x1 ISZERO ISZERO PUSH1 0x9 PUSH1 0x2 SWAP1 SLOAD SWAP1 PUSH2 0x100 EXP SWAP1 DIV PUSH1 0xFF AND ISZERO ISZERO EQ PUSH2 0x12C8 JUMPI PUSH1 0x40 MLOAD PUSH32 0x8C379A000000000000000000000000000000000000000000000000000000000 DUP2 MSTORE PUSH1 0x4 ADD PUSH2 0x12BF SWAP1 PUSH2 0x35F3 JUMP JUMPDEST PUSH1 0x40 MLOAD DUP1 SWAP2 SUB SWAP1 REVERT JUMPDEST PUSH1 0x0 JUMPDEST PUSH1 0xA SLOAD DUP2 LT ISZERO PUSH2 0x1870 JUMPI PUSH1 0x4 PUSH1 0x0 DUP3 DUP2 MSTORE PUSH1 0x20 ADD SWAP1 DUP2 MSTORE PUSH1 0x20 ADD PUSH1 0x0 KECCAK256 PUSH1 0x0 ADD PUSH1 0x0 SWAP1 SLOAD SWAP1 PUSH2 0x100 EXP SWAP1 DIV PUSH20 0xFFFFFFFFFFFFFFFFFFFFFFFFFFFFFFFFFFFFFFFF AND PUSH20 0xFFFFFFFFFFFFFFFFFFFFFFFFFFFFFFFFFFFFFFFF AND CALLER PUSH20 0xFFFFFFFFFFFFFFFFFFFFFFFFFFFFFFFFFFFFFFFF AND SUB PUSH2 0x1863 JUMPI PUSH1 0x1 ISZERO ISZERO PUSH1 0x4 PUSH1 0x0 DUP4 DUP2 MSTORE PUSH1 0x20 ADD SWAP1 DUP2 MSTORE PUSH1 0x20 ADD PUSH1 0x0 KECCAK256 PUSH1 0x4 ADD PUSH1 0x0 SWAP1 SLOAD SWAP1 PUSH2 0x100 EXP SWAP1 DIV PUSH1 0xFF AND ISZERO ISZERO SUB PUSH2 0x17CA JUMPI PUSH1 0x0 ISZERO ISZERO PUSH1 0x4 PUSH1 0x0 DUP4 DUP2 MSTORE PUSH1 0x20 ADD SWAP1 DUP2 MSTORE PUSH1 0x20 ADD PUSH1 0x0 KECCAK256 PUSH1 0x4 ADD PUSH1 0x1 SWAP1 SLOAD SWAP1 PUSH2 0x100 EXP SWAP1 DIV PUSH1 0xFF AND ISZERO ISZERO SUB PUSH2 0x1748 JUMPI PUSH1 0x0 ISZERO ISZERO PUSH1 0x4 PUSH1 0x0 DUP4 DUP2 MSTORE PUSH1 0x20 ADD SWAP1 DUP2 MSTORE PUSH1 0x20 ADD PUSH1 0x0 KECCAK256 PUSH1 0x4 ADD PUSH1 0x2 SWAP1 SLOAD SWAP1 PUSH2 0x100 EXP SWAP1 DIV PUSH1 0xFF AND ISZERO ISZERO SUB PUSH2 0x16C6 JUMPI PUSH1 0x4 PUSH1 0x0 DUP3 DUP2 MSTORE PUSH1 0x20 ADD SWAP1 DUP2 MSTORE PUSH1 0x20 ADD PUSH1 0x0 KECCAK256 PUSH1 0x1 ADD SLOAD CALLVALUE GT ISZERO PUSH2 0x152C JUMPI PUSH32 0x8219E183178A3D081FD913CF45272E0941A3458FB72727C776D4FDDE97139098 PUSH1 0x40 MLOAD PUSH2 0x1416 SWAP1 PUSH2 0x36AB JUMP JUMPDEST PUSH1 0x40 MLOAD DUP1 SWAP2 SUB SWAP1 LOG1 PUSH1 0x1 PUSH1 0x4 PUSH1 0x0 DUP4 DUP2 MSTORE PUSH1 0x20 ADD SWAP1 DUP2 MSTORE PUSH1 0x20 ADD PUSH1 0x0 KECCAK256 PUSH1 0x4 ADD PUSH1 0x2 PUSH2 0x100 EXP DUP2 SLOAD DUP2 PUSH1 0xFF MUL NOT AND SWAP1 DUP4 ISZERO ISZERO MUL OR SWAP1 SSTORE POP PUSH1 0x4 PUSH1 0x0 DUP3 DUP2 MSTORE PUSH1 0x20 ADD SWAP1 DUP2 MSTORE PUSH1 0x20 ADD PUSH1 0x0 KECCAK256 PUSH1 0x1 ADD SLOAD PUSH1 0x15 PUSH1 0x0 DUP3 DUP3 SLOAD PUSH2 0x1475 SWAP2 SWAP1 PUSH2 0x36CB JUMP JUMPDEST SWAP3 POP POP DUP2 SWAP1 SSTORE POP PUSH1 0x4 PUSH1 0x0 DUP3 DUP2 MSTORE PUSH1 0x20 ADD SWAP1 DUP2 MSTORE PUSH1 0x20 ADD PUSH1 0x0 KECCAK256 PUSH1 0x1 ADD SLOAD PUSH1 0x4 PUSH1 0x0 DUP4 DUP2 MSTORE PUSH1 0x20 ADD SWAP1 DUP2 MSTORE PUSH1 0x20 ADD PUSH1 0x0 KECCAK256 PUSH1 0x3 ADD PUSH1 0x0 DUP3 DUP3 SLOAD PUSH2 0x14B8 SWAP2 SWAP1 PUSH2 0x36CB JUMP JUMPDEST SWAP3 POP POP DUP2 SWAP1 SSTORE POP CALLER PUSH20 0xFFFFFFFFFFFFFFFFFFFFFFFFFFFFFFFFFFFFFFFF AND PUSH2 0x8FC PUSH1 0x4 PUSH1 0x0 DUP5 DUP2 MSTORE PUSH1 0x20 ADD SWAP1 DUP2 MSTORE PUSH1 0x20 ADD PUSH1 0x0 KECCAK256 PUSH1 0x1 ADD SLOAD CALLVALUE PUSH2 0x14FB SWAP2 SWAP1 PUSH2 0x2C56 JUMP JUMPDEST SWAP1 DUP2 ISZERO MUL SWAP1 PUSH1 0x40 MLOAD PUSH1 0x0 PUSH1 0x40 MLOAD DUP1 DUP4 SUB DUP2 DUP6 DUP9 DUP9 CALL SWAP4 POP POP POP POP ISZERO DUP1 ISZERO PUSH2 0x1526 JUMPI RETURNDATASIZE PUSH1 0x0 DUP1 RETURNDATACOPY RETURNDATASIZE PUSH1 0x0 REVERT JUMPDEST POP PUSH2 0x16C1 JUMP JUMPDEST PUSH1 0x4 PUSH1 0x0 DUP3 DUP2 MSTORE PUSH1 0x20 ADD SWAP1 DUP2 MSTORE PUSH1 0x20 ADD PUSH1 0x0 KECCAK256 PUSH1 0x1 ADD SLOAD CALLVALUE LT ISZERO PUSH2 0x15CB JUMPI PUSH32 0x8219E183178A3D081FD913CF45272E0941A3458FB72727C776D4FDDE97139098 PUSH1 0x40 MLOAD PUSH2 0x1577 SWAP1 PUSH2 0x3797 JUMP JUMPDEST PUSH1 0x40 MLOAD DUP1 SWAP2 SUB SWAP1 LOG1 CALLER PUSH20 0xFFFFFFFFFFFFFFFFFFFFFFFFFFFFFFFFFFFFFFFF AND PUSH2 0x8FC CALLVALUE SWAP1 DUP2 ISZERO MUL SWAP1 PUSH1 0x40 MLOAD PUSH1 0x0 PUSH1 0x40 MLOAD DUP1 DUP4 SUB DUP2 DUP6 DUP9 DUP9 CALL SWAP4 POP POP POP POP ISZERO DUP1 ISZERO PUSH2 0x15C5 JUMPI RETURNDATASIZE PUSH1 0x0 DUP1 RETURNDATACOPY RETURNDATASIZE PUSH1 0x0 REVERT JUMPDEST POP PUSH2 0x16C0 JUMP JUMPDEST PUSH1 0x4 PUSH1 0x0 DUP3 DUP2 MSTORE PUSH1 0x20 ADD SWAP1 DUP2 MSTORE PUSH1 0x20 ADD PUSH1 0x0 KECCAK256 PUSH1 0x1 ADD SLOAD CALLVALUE SUB PUSH2 0x16BF JUMPI PUSH32 0x8219E183178A3D081FD913CF45272E0941A3458FB72727C776D4FDDE97139098 PUSH1 0x40 MLOAD PUSH2 0x1615 SWAP1 PUSH2 0x3829 JUMP JUMPDEST PUSH1 0x40 MLOAD DUP1 SWAP2 SUB SWAP1 LOG1 PUSH1 0x1 PUSH1 0x4 PUSH1 0x0 DUP4 DUP2 MSTORE PUSH1 0x20 ADD SWAP1 DUP2 MSTORE PUSH1 0x20 ADD PUSH1 0x0 KECCAK256 PUSH1 0x4 ADD PUSH1 0x2 PUSH2 0x100 EXP DUP2 SLOAD DUP2 PUSH1 0xFF MUL NOT AND SWAP1 DUP4 ISZERO ISZERO MUL OR SWAP1 SSTORE POP PUSH1 0x4 PUSH1 0x0 DUP3 DUP2 MSTORE PUSH1 0x20 ADD SWAP1 DUP2 MSTORE PUSH1 0x20 ADD PUSH1 0x0 KECCAK256 PUSH1 0x1 ADD SLOAD PUSH1 0x15 PUSH1 0x0 DUP3 DUP3 SLOAD PUSH2 0x1674 SWAP2 SWAP1 PUSH2 0x36CB JUMP JUMPDEST SWAP3 POP POP DUP2 SWAP1 SSTORE POP PUSH1 0x4 PUSH1 0x0 DUP3 DUP2 MSTORE PUSH1 0x20 ADD SWAP1 DUP2 MSTORE PUSH1 0x20 ADD PUSH1 0x0 KECCAK256 PUSH1 0x1 ADD SLOAD PUSH1 0x4 PUSH1 0x0 DUP4 DUP2 MSTORE PUSH1 0x20 ADD SWAP1 DUP2 MSTORE PUSH1 0x20 ADD PUSH1 0x0 KECCAK256 PUSH1 0x3 ADD PUSH1 0x0 DUP3 DUP3 SLOAD PUSH2 0x16B7 SWAP2 SWAP1 PUSH2 0x36CB JUMP JUMPDEST SWAP3 POP POP DUP2 SWAP1 SSTORE POP JUMPDEST JUMPDEST JUMPDEST PUSH2 0x1743 JUMP JUMPDEST PUSH32 0x8219E183178A3D081FD913CF45272E0941A3458FB72727C776D4FDDE97139098 PUSH1 0x40 MLOAD PUSH2 0x16F3 SWAP1 PUSH2 0x38BB JUMP JUMPDEST PUSH1 0x40 MLOAD DUP1 SWAP2 SUB SWAP1 LOG1 CALLER PUSH20 0xFFFFFFFFFFFFFFFFFFFFFFFFFFFFFFFFFFFFFFFF AND PUSH2 0x8FC CALLVALUE SWAP1 DUP2 ISZERO MUL SWAP1 PUSH1 0x40 MLOAD PUSH1 0x0 PUSH1 0x40 MLOAD DUP1 DUP4 SUB DUP2 DUP6 DUP9 DUP9 CALL SWAP4 POP POP POP POP ISZERO DUP1 ISZERO PUSH2 0x1741 JUMPI RETURNDATASIZE PUSH1 0x0 DUP1 RETURNDATACOPY RETURNDATASIZE PUSH1 0x0 REVERT JUMPDEST POP JUMPDEST PUSH2 0x17C5 JUMP JUMPDEST PUSH32 0x8219E183178A3D081FD913CF45272E0941A3458FB72727C776D4FDDE97139098 PUSH1 0x40 MLOAD PUSH2 0x1775 SWAP1 PUSH2 0x39E5 JUMP JUMPDEST PUSH1 0x40 MLOAD DUP1 SWAP2 SUB SWAP1 LOG1 CALLER PUSH20 0xFFFFFFFFFFFFFFFFFFFFFFFFFFFFFFFFFFFFFFFF AND PUSH2 0x8FC CALLVALUE SWAP1 DUP2 ISZERO MUL SWAP1 PUSH1 0x40 MLOAD PUSH1 0x0 PUSH1 0x40 MLOAD DUP1 DUP4 SUB DUP2 DUP6 DUP9 DUP9 CALL SWAP4 POP POP POP POP ISZERO DUP1 ISZERO PUSH2 0x17C3 JUMPI RETURNDATASIZE PUSH1 0x0 DUP1 RETURNDATACOPY RETURNDATASIZE PUSH1 0x0 REVERT JUMPDEST POP JUMPDEST PUSH2 0x1847 JUMP JUMPDEST PUSH32 0x8219E183178A3D081FD913CF45272E0941A3458FB72727C776D4FDDE97139098 PUSH1 0x40 MLOAD PUSH2 0x17F7 SWAP1 PUSH2 0x3AE9 JUMP JUMPDEST PUSH1 0x40 MLOAD DUP1 SWAP2 SUB SWAP1 LOG1 CALLER PUSH20 0xFFFFFFFFFFFFFFFFFFFFFFFFFFFFFFFFFFFFFFFF AND PUSH2 0x8FC CALLVALUE SWAP1 DUP2 ISZERO MUL SWAP1 PUSH1 0x40 MLOAD PUSH1 0x0 PUSH1 0x40 MLOAD DUP1 DUP4 SUB DUP2 DUP6 DUP9 DUP9 CALL SWAP4 POP POP POP POP ISZERO DUP1 ISZERO PUSH2 0x1845 JUMPI RETURNDATASIZE PUSH1 0x0 DUP1 RETURNDATACOPY RETURNDATASIZE PUSH1 0x0 REVERT JUMPDEST POP JUMPDEST PUSH1 0x1 PUSH1 0x9 PUSH1 0x1 PUSH2 0x100 EXP DUP2 SLOAD DUP2 PUSH1 0xFF MUL NOT AND SWAP1 DUP4 ISZERO ISZERO MUL OR SWAP1 SSTORE POP JUMPDEST DUP1 DUP1 PUSH1 0x1 ADD SWAP2 POP POP PUSH2 0x12CB JUMP JUMPDEST POP PUSH1 0x0 ISZERO ISZERO PUSH1 0x9 PUSH1 0x1 SWAP1 SLOAD SWAP1 PUSH2 0x100 EXP SWAP1 DIV PUSH1 0xFF AND ISZERO ISZERO SUB PUSH2 0x1909 JUMPI PUSH32 0x8219E183178A3D081FD913CF45272E0941A3458FB72727C776D4FDDE97139098 PUSH1 0x40 MLOAD PUSH2 0x18B9 SWAP1 PUSH2 0x3C13 JUMP JUMPDEST PUSH1 0x40 MLOAD DUP1 SWAP2 SUB SWAP1 LOG1 CALLER PUSH20 0xFFFFFFFFFFFFFFFFFFFFFFFFFFFFFFFFFFFFFFFF AND PUSH2 0x8FC CALLVALUE SWAP1 DUP2 ISZERO MUL SWAP1 PUSH1 0x40 MLOAD PUSH1 0x0 PUSH1 0x40 MLOAD DUP1 DUP4 SUB DUP2 DUP6 DUP9 DUP9 CALL SWAP4 POP POP POP POP ISZERO DUP1 ISZERO PUSH2 0x1907 JUMPI RETURNDATASIZE PUSH1 0x0 DUP1 RETURNDATACOPY RETURNDATASIZE PUSH1 0x0 REVERT JUMPDEST POP JUMPDEST PUSH1 0x0 PUSH1 0x9 PUSH1 0x1 PUSH2 0x100 EXP DUP2 SLOAD DUP2 PUSH1 0xFF MUL NOT AND SWAP1 DUP4 ISZERO ISZERO MUL OR SWAP1 SSTORE POP JUMP JUMPDEST PUSH1 0x10 PUSH1 0x0 SWAP1 SLOAD SWAP1 PUSH2 0x100 EXP SWAP1 DIV PUSH20 0xFFFFFFFFFFFFFFFFFFFFFFFFFFFFFFFFFFFFFFFF AND PUSH20 0xFFFFFFFFFFFFFFFFFFFFFFFFFFFFFFFFFFFFFFFF AND CALLER PUSH20 0xFFFFFFFFFFFFFFFFFFFFFFFFFFFFFFFFFFFFFFFF AND EQ DUP1 ISZERO PUSH2 0x1996 JUMPI POP PUSH1 0x1 ISZERO ISZERO PUSH1 0x9 PUSH1 0x0 SWAP1 SLOAD SWAP1 PUSH2 0x100 EXP SWAP1 DIV PUSH1 0xFF AND ISZERO ISZERO EQ JUMPDEST PUSH2 0x19D5 JUMPI PUSH1 0x40 MLOAD PUSH32 0x8C379A000000000000000000000000000000000000000000000000000000000 DUP2 MSTORE PUSH1 0x4 ADD PUSH2 0x19CC SWAP1 PUSH2 0x2855 JUMP JUMPDEST PUSH1 0x40 MLOAD DUP1 SWAP2 SUB SWAP1 REVERT JUMPDEST PUSH1 0x0 ISZERO ISZERO PUSH1 0x9 PUSH1 0x2 SWAP1 SLOAD SWAP1 PUSH2 0x100 EXP SWAP1 DIV PUSH1 0xFF AND ISZERO ISZERO SUB PUSH2 0x1D56 JUMPI PUSH1 0x1 ISZERO ISZERO PUSH1 0x9 PUSH1 0x0 SWAP1 SLOAD SWAP1 PUSH2 0x100 EXP SWAP1 DIV PUSH1 0xFF AND ISZERO ISZERO SUB PUSH2 0x1D1B JUMPI PUSH1 0x0 JUMPDEST PUSH1 0xA SLOAD DUP2 LT ISZERO PUSH2 0x1AAA JUMPI DUP2 PUSH20 0xFFFFFFFFFFFFFFFFFFFFFFFFFFFFFFFFFFFFFFFF AND PUSH1 0x4 PUSH1 0x0 DUP4 DUP2 MSTORE PUSH1 0x20 ADD SWAP1 DUP2 MSTORE PUSH1 0x20 ADD PUSH1 0x0 KECCAK256 PUSH1 0x0 ADD PUSH1 0x0 SWAP1 SLOAD SWAP1 PUSH2 0x100 EXP SWAP1 DIV PUSH20 0xFFFFFFFFFFFFFFFFFFFFFFFFFFFFFFFFFFFFFFFF AND PUSH20 0xFFFFFFFFFFFFFFFFFFFFFFFFFFFFFFFFFFFFFFFF AND SUB PUSH2 0x1A9D JUMPI PUSH1 0x1 PUSH1 0xC PUSH1 0x0 PUSH2 0x100 EXP DUP2 SLOAD DUP2 PUSH1 0xFF MUL NOT AND SWAP1 DUP4 ISZERO ISZERO MUL OR SWAP1 SSTORE POP JUMPDEST DUP1 DUP1 PUSH1 0x1 ADD SWAP2 POP POP PUSH2 0x1A0E JUMP JUMPDEST POP PUSH1 0x0 ISZERO ISZERO PUSH1 0xC PUSH1 0x0 SWAP1 SLOAD SWAP1 PUSH2 0x100 EXP SWAP1 DIV PUSH1 0xFF AND ISZERO ISZERO SUB PUSH2 0x1CC5 JUMPI PUSH1 0x40 MLOAD DUP1 PUSH2 0x100 ADD PUSH1 0x40 MSTORE DUP1 DUP3 PUSH20 0xFFFFFFFFFFFFFFFFFFFFFFFFFFFFFFFFFFFFFFFF AND DUP2 MSTORE PUSH1 0x20 ADD PUSH1 0x0 SLOAD DUP2 MSTORE PUSH1 0x20 ADD PUSH1 0x1 SLOAD DUP2 MSTORE PUSH1 0x20 ADD PUSH1 0x2 SLOAD DUP2 MSTORE PUSH1 0x20 ADD PUSH1 0x3 PUSH1 0x0 SWAP1 SLOAD SWAP1 PUSH2 0x100 EXP SWAP1 DIV PUSH1 0xFF AND ISZERO ISZERO DUP2 MSTORE PUSH1 0x20 ADD PUSH1 0x3 PUSH1 0x1 SWAP1 SLOAD SWAP1 PUSH2 0x100 EXP SWAP1 DIV PUSH1 0xFF AND ISZERO ISZERO DUP2 MSTORE PUSH1 0x20 ADD PUSH1 0x3 PUSH1 0x2 SWAP1 SLOAD SWAP1 PUSH2 0x100 EXP SWAP1 DIV PUSH1 0xFF AND ISZERO ISZERO DUP2 MSTORE PUSH1 0x20 ADD PUSH1 0x3 DUP1 SLOAD SWAP1 PUSH2 0x100 EXP SWAP1 DIV PUSH1 0xFF AND ISZERO ISZERO DUP2 MSTORE POP PUSH1 0x4 PUSH1 0x0 PUSH1 0xD SLOAD DUP2 MSTORE PUSH1 0x20 ADD SWAP1 DUP2 MSTORE PUSH1 0x20 ADD PUSH1 0x0 KECCAK256 PUSH1 0x0 DUP3 ADD MLOAD DUP2 PUSH1 0x0 ADD PUSH1 0x0 PUSH2 0x100 EXP DUP2 SLOAD DUP2 PUSH20 0xFFFFFFFFFFFFFFFFFFFFFFFFFFFFFFFFFFFFFFFF MUL NOT AND SWAP1 DUP4 PUSH20 0xFFFFFFFFFFFFFFFFFFFFFFFFFFFFFFFFFFFFFFFF AND MUL OR SWAP1 SSTORE POP PUSH1 0x20 DUP3 ADD MLOAD DUP2 PUSH1 0x1 ADD SSTORE PUSH1 0x40 DUP3 ADD MLOAD DUP2 PUSH1 0x2 ADD SSTORE PUSH1 0x60 DUP3 ADD MLOAD DUP2 PUSH1 0x3 ADD SSTORE PUSH1 0x80 DUP3 ADD MLOAD DUP2 PUSH1 0x4 ADD PUSH1 0x0 PUSH2 0x100 EXP DUP2 SLOAD DUP2 PUSH1 0xFF MUL NOT AND SWAP1 DUP4 ISZERO ISZERO MUL OR SWAP1 SSTORE POP PUSH1 0xA0 DUP3 ADD MLOAD DUP2 PUSH1 0x4 ADD PUSH1 0x1 PUSH2 0x100 EXP DUP2 SLOAD DUP2 PUSH1 0xFF MUL NOT AND SWAP1 DUP4 ISZERO ISZERO MUL OR SWAP1 SSTORE POP PUSH1 0xC0 DUP3 ADD MLOAD DUP2 PUSH1 0x4 ADD PUSH1 0x2 PUSH2 0x100 EXP DUP2 SLOAD DUP2 PUSH1 0xFF MUL NOT AND SWAP1 DUP4 ISZERO ISZERO MUL OR SWAP1 SSTORE POP PUSH1 0xE0 DUP3 ADD MLOAD DUP2 PUSH1 0x4 ADD PUSH1 0x3 PUSH2 0x100 EXP DUP2 SLOAD DUP2 PUSH1 0xFF MUL NOT AND SWAP1 DUP4 ISZERO ISZERO MUL OR SWAP1 SSTORE POP SWAP1 POP POP PUSH1 0xA PUSH1 0x0 DUP2 SLOAD DUP1 SWAP3 SWAP2 SWAP1 PUSH2 0x1C6E SWAP1 PUSH2 0x2FAD JUMP JUMPDEST SWAP2 SWAP1 POP SSTORE POP PUSH1 0xD PUSH1 0x0 DUP2 SLOAD DUP1 SWAP3 SWAP2 SWAP1 PUSH2 0x1C86 SWAP1 PUSH2 0x2FAD JUMP JUMPDEST SWAP2 SWAP1 POP SSTORE POP PUSH32 0x8219E183178A3D081FD913CF45272E0941A3458FB72727C776D4FDDE97139098 PUSH1 0x40 MLOAD PUSH2 0x1CB8 SWAP1 PUSH2 0x3CA5 JUMP JUMPDEST PUSH1 0x40 MLOAD DUP1 SWAP2 SUB SWAP1 LOG1 PUSH2 0x1D16 JUMP JUMPDEST PUSH32 0x8219E183178A3D081FD913CF45272E0941A3458FB72727C776D4FDDE97139098 PUSH1 0x40 MLOAD PUSH2 0x1CF2 SWAP1 PUSH2 0x3D11 JUMP JUMPDEST PUSH1 0x40 MLOAD DUP1 SWAP2 SUB SWAP1 LOG1 PUSH1 0x0 PUSH1 0xC PUSH1 0x0 PUSH2 0x100 EXP DUP2 SLOAD DUP2 PUSH1 0xFF MUL NOT AND SWAP1 DUP4 ISZERO ISZERO MUL OR SWAP1 SSTORE POP JUMPDEST PUSH2 0x1D51 JUMP JUMPDEST PUSH32 0x8219E183178A3D081FD913CF45272E0941A3458FB72727C776D4FDDE97139098 PUSH1 0x40 MLOAD PUSH2 0x1D48 SWAP1 PUSH2 0x3DA3 JUMP JUMPDEST PUSH1 0x40 MLOAD DUP1 SWAP2 SUB SWAP1 LOG1 JUMPDEST PUSH2 0x1D8C JUMP JUMPDEST PUSH32 0x8219E183178A3D081FD913CF45272E0941A3458FB72727C776D4FDDE97139098 PUSH1 0x40 MLOAD PUSH2 0x1D83 SWAP1 PUSH2 0x3E5B JUMP JUMPDEST PUSH1 0x40 MLOAD DUP1 SWAP2 SUB SWAP1 LOG1 JUMPDEST POP JUMP JUMPDEST PUSH1 0x0 JUMPDEST PUSH1 0xA SLOAD DUP2 LT ISZERO PUSH2 0x1EDE JUMPI PUSH1 0x1 ISZERO ISZERO PUSH1 0x4 PUSH1 0x0 DUP4 DUP2 MSTORE PUSH1 0x20 ADD SWAP1 DUP2 MSTORE PUSH1 0x20 ADD PUSH1 0x0 KECCAK256 PUSH1 0x4 ADD PUSH1 0x0 SWAP1 SLOAD SWAP1 PUSH2 0x100 EXP SWAP1 DIV PUSH1 0xFF AND ISZERO ISZERO EQ DUP1 ISZERO PUSH2 0x1DFA JUMPI POP PUSH1 0x0 ISZERO ISZERO PUSH1 0x4 PUSH1 0x0 DUP4 DUP2 MSTORE PUSH1 0x20 ADD SWAP1 DUP2 MSTORE PUSH1 0x20 ADD PUSH1 0x0 KECCAK256 PUSH1 0x4 ADD PUSH1 0x2 SWAP1 SLOAD SWAP1 PUSH2 0x100 EXP SWAP1 DIV PUSH1 0xFF AND ISZERO ISZERO EQ JUMPDEST DUP1 ISZERO PUSH2 0x1E2D JUMPI POP PUSH1 0x0 ISZERO ISZERO PUSH1 0x4 PUSH1 0x0 DUP4 DUP2 MSTORE PUSH1 0x20 ADD SWAP1 DUP2 MSTORE PUSH1 0x20 ADD PUSH1 0x0 KECCAK256 PUSH1 0x4 ADD PUSH1 0x1 SWAP1 SLOAD SWAP1 PUSH2 0x100 EXP SWAP1 DIV PUSH1 0xFF AND ISZERO ISZERO EQ JUMPDEST ISZERO PUSH2 0x1E9B JUMPI PUSH32 0x8219E183178A3D081FD913CF45272E0941A3458FB72727C776D4FDDE97139098 PUSH1 0x40 MLOAD PUSH2 0x1E5F SWAP1 PUSH2 0x3FFA JUMP JUMPDEST PUSH1 0x40 MLOAD DUP1 SWAP2 SUB SWAP1 LOG1 PUSH1 0x1 PUSH1 0x4 PUSH1 0x0 DUP4 DUP2 MSTORE PUSH1 0x20 ADD SWAP1 DUP2 MSTORE PUSH1 0x20 ADD PUSH1 0x0 KECCAK256 PUSH1 0x4 ADD PUSH1 0x1 PUSH2 0x100 EXP DUP2 SLOAD DUP2 PUSH1 0xFF MUL NOT AND SWAP1 DUP4 ISZERO ISZERO MUL OR SWAP1 SSTORE POP PUSH2 0x1ECB JUMP JUMPDEST PUSH1 0x0 PUSH1 0x4 PUSH1 0x0 DUP4 DUP2 MSTORE PUSH1 0x20 ADD SWAP1 DUP2 MSTORE PUSH1 0x20 ADD PUSH1 0x0 KECCAK256 PUSH1 0x4 ADD PUSH1 0x2 PUSH2 0x100 EXP DUP2 SLOAD DUP2 PUSH1 0xFF MUL NOT AND SWAP1 DUP4 ISZERO ISZERO MUL OR SWAP1 SSTORE POP JUMPDEST DUP1 DUP1 PUSH2 0x1ED6 SWAP1 PUSH2 0x2FAD JUMP JUMPDEST SWAP2 POP POP PUSH2 0x1D92 JUMP JUMPDEST POP JUMP JUMPDEST PUSH1 0x0 DUP1 JUMPDEST PUSH1 0xA SLOAD PUSH1 0x16 SLOAD LT ISZERO PUSH2 0x2144 JUMPI PUSH1 0x1 ISZERO ISZERO PUSH1 0x4 PUSH1 0x0 PUSH1 0x16 SLOAD DUP2 MSTORE PUSH1 0x20 ADD SWAP1 DUP2 MSTORE PUSH1 0x20 ADD PUSH1 0x0 KECCAK256 PUSH1 0x4 ADD PUSH1 0x0 SWAP1 SLOAD SWAP1 PUSH2 0x100 EXP SWAP1 DIV PUSH1 0xFF AND ISZERO ISZERO EQ DUP1 ISZERO PUSH2 0x1F53 JUMPI POP PUSH1 0x0 ISZERO ISZERO PUSH1 0x4 PUSH1 0x0 PUSH1 0x16 SLOAD DUP2 MSTORE PUSH1 0x20 ADD SWAP1 DUP2 MSTORE PUSH1 0x20 ADD PUSH1 0x0 KECCAK256 PUSH1 0x4 ADD PUSH1 0x3 SWAP1 SLOAD SWAP1 PUSH2 0x100 EXP SWAP1 DIV PUSH1 0xFF AND ISZERO ISZERO EQ JUMPDEST ISZERO PUSH2 0x2127 JUMPI PUSH1 0xE PUSH1 0x0 DUP2 SLOAD DUP1 SWAP3 SWAP2 SWAP1 PUSH2 0x1F6B SWAP1 PUSH2 0x2FAD JUMP JUMPDEST SWAP2 SWAP1 POP SSTORE POP PUSH32 0x5A6A6B6346AD9F320415C39C64020F70AFDA843975CC98D6B8C858B530BE81FB PUSH1 0xB SLOAD PUSH1 0xE SLOAD PUSH1 0x40 MLOAD PUSH2 0x1FA5 SWAP3 SWAP2 SWAP1 PUSH2 0x40B2 JUMP JUMPDEST PUSH1 0x40 MLOAD DUP1 SWAP2 SUB SWAP1 LOG1 PUSH1 0xB SLOAD PUSH1 0xE SLOAD LT ISZERO PUSH2 0x20C2 JUMPI PUSH1 0x15 SLOAD PUSH1 0x4 PUSH1 0x0 PUSH1 0x16 SLOAD DUP2 MSTORE PUSH1 0x20 ADD SWAP1 DUP2 MSTORE PUSH1 0x20 ADD PUSH1 0x0 KECCAK256 PUSH1 0x2 ADD DUP2 SWAP1 SSTORE POP PUSH1 0x1 PUSH1 0x4 PUSH1 0x0 PUSH1 0x16 SLOAD DUP2 MSTORE PUSH1 0x20 ADD SWAP1 DUP2 MSTORE PUSH1 0x20 ADD PUSH1 0x0 KECCAK256 PUSH1 0x4 ADD PUSH1 0x3 PUSH2 0x100 EXP DUP2 SLOAD DUP2 PUSH1 0xFF MUL NOT AND SWAP1 DUP4 ISZERO ISZERO MUL OR SWAP1 SSTORE POP PUSH1 0xE SLOAD PUSH1 0xB SLOAD PUSH2 0x2019 SWAP2 SWAP1 PUSH2 0x2C56 JUMP JUMPDEST SWAP2 POP PUSH1 0x4 PUSH1 0x0 PUSH1 0x16 SLOAD DUP2 MSTORE PUSH1 0x20 ADD SWAP1 DUP2 MSTORE PUSH1 0x20 ADD PUSH1 0x0 KECCAK256 PUSH1 0x3 ADD SLOAD PUSH1 0x15 SLOAD PUSH2 0x2041 SWAP2 SWAP1 PUSH2 0x2C8A JUMP JUMPDEST SWAP1 POP PUSH1 0x0 DUP2 SGT ISZERO PUSH2 0x209E JUMPI DUP2 PUSH1 0x4 PUSH1 0x0 PUSH1 0x16 SLOAD DUP2 MSTORE PUSH1 0x20 ADD SWAP1 DUP2 MSTORE PUSH1 0x20 ADD PUSH1 0x0 KECCAK256 PUSH1 0x3 ADD SLOAD PUSH1 0x15 SLOAD PUSH2 0x2073 SWAP2 SWAP1 PUSH2 0x2C56 JUMP JUMPDEST PUSH2 0x207D SWAP2 SWAP1 PUSH2 0x4130 JUMP JUMPDEST PUSH1 0x4 PUSH1 0x0 PUSH1 0x16 SLOAD DUP2 MSTORE PUSH1 0x20 ADD SWAP1 DUP2 MSTORE PUSH1 0x20 ADD PUSH1 0x0 KECCAK256 PUSH1 0x1 ADD DUP2 SWAP1 SSTORE POP PUSH2 0x20BD JUMP JUMPDEST PUSH1 0x0 PUSH1 0x4 PUSH1 0x0 PUSH1 0x16 SLOAD DUP2 MSTORE PUSH1 0x20 ADD SWAP1 DUP2 MSTORE PUSH1 0x20 ADD PUSH1 0x0 KECCAK256 PUSH1 0x1 ADD DUP2 SWAP1 SSTORE POP JUMPDEST PUSH2 0x2108 JUMP JUMPDEST PUSH32 0x8219E183178A3D081FD913CF45272E0941A3458FB72727C776D4FDDE97139098 PUSH1 0x40 MLOAD PUSH2 0x20EF SWAP1 PUSH2 0x41D3 JUMP JUMPDEST PUSH1 0x40 MLOAD DUP1 SWAP2 SUB SWAP1 LOG1 PUSH2 0x20FF PUSH2 0x2149 JUMP JUMPDEST PUSH2 0x2107 PUSH2 0x22A5 JUMP JUMPDEST JUMPDEST PUSH1 0x16 PUSH1 0x0 DUP2 SLOAD DUP1 SWAP3 SWAP2 SWAP1 PUSH2 0x211B SWAP1 PUSH2 0x2FAD JUMP JUMPDEST SWAP2 SWAP1 POP SSTORE POP POP POP PUSH2 0x2147 JUMP JUMPDEST PUSH1 0x16 PUSH1 0x0 DUP2 SLOAD DUP1 SWAP3 SWAP2 SWAP1 PUSH2 0x213A SWAP1 PUSH2 0x2FAD JUMP JUMPDEST SWAP2 SWAP1 POP SSTORE POP PUSH2 0x1EE5 JUMP JUMPDEST POP POP JUMPDEST JUMP JUMPDEST PUSH1 0x0 JUMPDEST PUSH1 0xA SLOAD DUP2 LT ISZERO PUSH2 0x22A2 JUMPI PUSH1 0x4 PUSH1 0x0 DUP3 DUP2 MSTORE PUSH1 0x20 ADD SWAP1 DUP2 MSTORE PUSH1 0x20 ADD PUSH1 0x0 KECCAK256 PUSH1 0x3 ADD SLOAD SELFBALANCE LT ISZERO PUSH2 0x21AF JUMPI PUSH1 0x40 MLOAD PUSH32 0x8C379A000000000000000000000000000000000000000000000000000000000 DUP2 MSTORE PUSH1 0x4 ADD PUSH2 0x21A6 SWAP1 PUSH2 0x4265 JUMP JUMPDEST PUSH1 0x40 MLOAD DUP1 SWAP2 SUB SWAP1 REVERT JUMPDEST PUSH1 0x0 PUSH1 0x4 PUSH1 0x0 DUP4 DUP2 MSTORE PUSH1 0x20 ADD SWAP1 DUP2 MSTORE PUSH1 0x20 ADD PUSH1 0x0 KECCAK256 PUSH1 0x3 ADD SLOAD GT DUP1 ISZERO PUSH2 0x21FC JUMPI POP PUSH1 0x1 ISZERO ISZERO PUSH1 0x4 PUSH1 0x0 DUP4 DUP2 MSTORE PUSH1 0x20 ADD SWAP1 DUP2 MSTORE PUSH1 0x20 ADD PUSH1 0x0 KECCAK256 PUSH1 0x4 ADD PUSH1 0x0 SWAP1 SLOAD SWAP1 PUSH2 0x100 EXP SWAP1 DIV PUSH1 0xFF AND ISZERO ISZERO EQ JUMPDEST ISZERO PUSH2 0x2295 JUMPI PUSH1 0x4 PUSH1 0x0 DUP3 DUP2 MSTORE PUSH1 0x20 ADD SWAP1 DUP2 MSTORE PUSH1 0x20 ADD PUSH1 0x0 KECCAK256 PUSH1 0x0 ADD PUSH1 0x0 SWAP1 SLOAD SWAP1 PUSH2 0x100 EXP SWAP1 DIV PUSH20 0xFFFFFFFFFFFFFFFFFFFFFFFFFFFFFFFFFFFFFFFF AND PUSH20 0xFFFFFFFFFFFFFFFFFFFFFFFFFFFFFFFFFFFFFFFF AND PUSH2 0x8FC PUSH1 0x4 PUSH1 0x0 DUP5 DUP2 MSTORE PUSH1 0x20 ADD SWAP1 DUP2 MSTORE PUSH1 0x20 ADD PUSH1 0x0 KECCAK256 PUSH1 0x3 ADD SLOAD SWAP1 DUP2 ISZERO MUL SWAP1 PUSH1 0x40 MLOAD PUSH1 0x0 PUSH1 0x40 MLOAD DUP1 DUP4 SUB DUP2 DUP6 DUP9 DUP9 CALL SWAP4 POP POP POP POP ISZERO DUP1 ISZERO PUSH2 0x2293 JUMPI RETURNDATASIZE PUSH1 0x0 DUP1 RETURNDATACOPY RETURNDATASIZE PUSH1 0x0 REVERT JUMPDEST POP JUMPDEST DUP1 DUP1 PUSH1 0x1 ADD SWAP2 POP POP PUSH2 0x214C JUMP JUMPDEST POP JUMP JUMPDEST PUSH1 0x0 JUMPDEST PUSH1 0xA SLOAD DUP2 LT ISZERO PUSH2 0x2453 JUMPI PUSH1 0x40 MLOAD DUP1 PUSH2 0x100 ADD PUSH1 0x40 MSTORE DUP1 PUSH1 0x0 PUSH20 0xFFFFFFFFFFFFFFFFFFFFFFFFFFFFFFFFFFFFFFFF AND DUP2 MSTORE PUSH1 0x20 ADD PUSH1 0x0 SLOAD DUP2 MSTORE PUSH1 0x20 ADD PUSH1 0x1 SLOAD DUP2 MSTORE PUSH1 0x20 ADD PUSH1 0x2 SLOAD DUP2 MSTORE PUSH1 0x20 ADD PUSH1 0x3 PUSH1 0x0 SWAP1 SLOAD SWAP1 PUSH2 0x100 EXP SWAP1 DIV PUSH1 0xFF AND ISZERO ISZERO DUP2 MSTORE PUSH1 0x20 ADD PUSH1 0x3 PUSH1 0x1 SWAP1 SLOAD SWAP1 PUSH2 0x100 EXP SWAP1 DIV PUSH1 0xFF AND ISZERO ISZERO DUP2 MSTORE PUSH1 0x20 ADD PUSH1 0x3 PUSH1 0x2 SWAP1 SLOAD SWAP1 PUSH2 0x100 EXP SWAP1 DIV PUSH1 0xFF AND ISZERO ISZERO DUP2 MSTORE PUSH1 0x20 ADD PUSH1 0x3 DUP1 SLOAD SWAP1 PUSH2 0x100 EXP SWAP1 DIV PUSH1 0xFF AND ISZERO ISZERO DUP2 MSTORE POP PUSH1 0x4 PUSH1 0x0 DUP4 DUP2 MSTORE PUSH1 0x20 ADD SWAP1 DUP2 MSTORE PUSH1 0x20 ADD PUSH1 0x0 KECCAK256 PUSH1 0x0 DUP3 ADD MLOAD DUP2 PUSH1 0x0 ADD PUSH1 0x0 PUSH2 0x100 EXP DUP2 SLOAD DUP2 PUSH20 0xFFFFFFFFFFFFFFFFFFFFFFFFFFFFFFFFFFFFFFFF MUL NOT AND SWAP1 DUP4 PUSH20 0xFFFFFFFFFFFFFFFFFFFFFFFFFFFFFFFFFFFFFFFF AND MUL OR SWAP1 SSTORE POP PUSH1 0x20 DUP3 ADD MLOAD DUP2 PUSH1 0x1 ADD SSTORE PUSH1 0x40 DUP3 ADD MLOAD DUP2 PUSH1 0x2 ADD SSTORE PUSH1 0x60 DUP3 ADD MLOAD DUP2 PUSH1 0x3 ADD SSTORE PUSH1 0x80 DUP3 ADD MLOAD DUP2 PUSH1 0x4 ADD PUSH1 0x0 PUSH2 0x100 EXP DUP2 SLOAD DUP2 PUSH1 0xFF MUL NOT AND SWAP1 DUP4 ISZERO ISZERO MUL OR SWAP1 SSTORE POP PUSH1 0xA0 DUP3 ADD MLOAD DUP2 PUSH1 0x4 ADD PUSH1 0x1 PUSH2 0x100 EXP DUP2 SLOAD DUP2 PUSH1 0xFF MUL NOT AND SWAP1 DUP4 ISZERO ISZERO MUL OR SWAP1 SSTORE POP PUSH1 0xC0 DUP3 ADD MLOAD DUP2 PUSH1 0x4 ADD PUSH1 0x2 PUSH2 0x100 EXP DUP2 SLOAD DUP2 PUSH1 0xFF MUL NOT AND SWAP1 DUP4 ISZERO ISZERO MUL OR SWAP1 SSTORE POP PUSH1 0xE0 DUP3 ADD MLOAD DUP2 PUSH1 0x4 ADD PUSH1 0x3 PUSH2 0x100 EXP DUP2 SLOAD DUP2 PUSH1 0xFF MUL NOT AND SWAP1 DUP4 ISZERO ISZERO MUL OR SWAP1 SSTORE POP SWAP1 POP POP DUP1 DUP1 PUSH1 0x1 ADD SWAP2 POP POP PUSH2 0x22A8 JUMP JUMPDEST POP PUSH1 0x0 PUSH1 0x9 PUSH1 0x2 PUSH2 0x100 EXP DUP2 SLOAD DUP2 PUSH1 0xFF MUL NOT AND SWAP1 DUP4 ISZERO ISZERO MUL OR SWAP1 SSTORE POP PUSH1 0x0 PUSH1 0xE DUP2 SWAP1 SSTORE POP PUSH1 0x0 PUSH1 0x9 PUSH1 0x0 PUSH2 0x100 EXP DUP2 SLOAD DUP2 PUSH1 0xFF MUL NOT AND SWAP1 DUP4 ISZERO ISZERO MUL OR SWAP1 SSTORE POP PUSH1 0x0 PUSH1 0x9 PUSH1 0x2 PUSH2 0x100 EXP DUP2 SLOAD DUP2 PUSH1 0xFF MUL NOT AND SWAP1 DUP4 ISZERO ISZERO MUL OR SWAP1 SSTORE POP PUSH1 0x0 PUSH1 0xC PUSH1 0x0 PUSH2 0x100 EXP DUP2 SLOAD DUP2 PUSH1 0xFF MUL NOT AND SWAP1 DUP4 ISZERO ISZERO MUL OR SWAP1 SSTORE POP PUSH1 0x0 PUSH1 0xA DUP2 SWAP1 SSTORE POP PUSH1 0x0 PUSH1 0xB DUP2 SWAP1 SSTORE POP PUSH1 0x0 PUSH1 0xD DUP2 SWAP1 SSTORE POP PUSH1 0x0 PUSH1 0xE DUP2 SWAP1 SSTORE POP PUSH1 0x0 PUSH1 0x9 PUSH1 0x1 PUSH2 0x100 EXP DUP2 SLOAD DUP2 PUSH1 0xFF MUL NOT AND SWAP1 DUP4 ISZERO ISZERO MUL OR SWAP1 SSTORE POP PUSH1 0x0 PUSH1 0x12 DUP2 SWAP1 SSTORE POP PUSH1 0x0 PUSH1 0x13 DUP2 SWAP1 SSTORE POP PUSH1 0x0 PUSH1 0x14 DUP2 SWAP1 SSTORE POP PUSH1 0x0 PUSH1 0x15 DUP2 SWAP1 SSTORE POP PUSH1 0x0 PUSH1 0x16 DUP2 SWAP1 SSTORE POP JUMP JUMPDEST PUSH1 0x0 DUP1 REVERT JUMPDEST PUSH1 0x0 DUP2 SWAP1 POP SWAP2 SWAP1 POP JUMP JUMPDEST PUSH2 0x2545 DUP2 PUSH2 0x2532 JUMP JUMPDEST DUP2 EQ PUSH2 0x2550 JUMPI PUSH1 0x0 DUP1 REVERT JUMPDEST POP JUMP JUMPDEST PUSH1 0x0 DUP2 CALLDATALOAD SWAP1 POP PUSH2 0x2562 DUP2 PUSH2 0x253C JUMP JUMPDEST SWAP3 SWAP2 POP POP JUMP JUMPDEST PUSH1 0x0 PUSH1 0x20 DUP3 DUP5 SUB SLT ISZERO PUSH2 0x257E JUMPI PUSH2 0x257D PUSH2 0x252D JUMP JUMPDEST JUMPDEST PUSH1 0x0 PUSH2 0x258C DUP5 DUP3 DUP6 ADD PUSH2 0x2553 JUMP JUMPDEST SWAP2 POP POP SWAP3 SWAP2 POP POP JUMP JUMPDEST PUSH1 0x0 PUSH20 0xFFFFFFFFFFFFFFFFFFFFFFFFFFFFFFFFFFFFFFFF DUP3 AND SWAP1 POP SWAP2 SWAP1 POP JUMP JUMPDEST PUSH1 0x0 PUSH2 0x25C0 DUP3 PUSH2 0x2595 JUMP JUMPDEST SWAP1 POP SWAP2 SWAP1 POP JUMP JUMPDEST PUSH2 0x25D0 DUP2 PUSH2 0x25B5 JUMP JUMPDEST DUP3 MSTORE POP POP JUMP JUMPDEST PUSH2 0x25DF DUP2 PUSH2 0x2532 JUMP JUMPDEST DUP3 MSTORE POP POP JUMP JUMPDEST PUSH1 0x0 DUP2 ISZERO ISZERO SWAP1 POP SWAP2 SWAP1 POP JUMP JUMPDEST PUSH2 0x25FA DUP2 PUSH2 0x25E5 JUMP JUMPDEST DUP3 MSTORE POP POP JUMP JUMPDEST PUSH1 0x0 PUSH2 0x100 DUP3 ADD SWAP1 POP PUSH2 0x2616 PUSH1 0x0 DUP4 ADD DUP12 PUSH2 0x25C7 JUMP JUMPDEST PUSH2 0x2623 PUSH1 0x20 DUP4 ADD DUP11 PUSH2 0x25D6 JUMP JUMPDEST PUSH2 0x2630 PUSH1 0x40 DUP4 ADD DUP10 PUSH2 0x25D6 JUMP JUMPDEST PUSH2 0x263D PUSH1 0x60 DUP4 ADD DUP9 PUSH2 0x25D6 JUMP JUMPDEST PUSH2 0x264A PUSH1 0x80 DUP4 ADD DUP8 PUSH2 0x25F1 JUMP JUMPDEST PUSH2 0x2657 PUSH1 0xA0 DUP4 ADD DUP7 PUSH2 0x25F1 JUMP JUMPDEST PUSH2 0x2664 PUSH1 0xC0 DUP4 ADD DUP6 PUSH2 0x25F1 JUMP JUMPDEST PUSH2 0x2671 PUSH1 0xE0 DUP4 ADD DUP5 PUSH2 0x25F1 JUMP JUMPDEST SWAP10 SWAP9 POP POP POP POP POP POP POP POP POP JUMP JUMPDEST PUSH1 0x0 PUSH2 0x2689 DUP3 PUSH2 0x2595 JUMP JUMPDEST SWAP1 POP SWAP2 SWAP1 POP JUMP JUMPDEST PUSH2 0x2699 DUP2 PUSH2 0x267E JUMP JUMPDEST DUP3 MSTORE POP POP JUMP JUMPDEST PUSH1 0x0 PUSH1 0x20 DUP3 ADD SWAP1 POP PUSH2 0x26B4 PUSH1 0x0 DUP4 ADD DUP5 PUSH2 0x2690 JUMP JUMPDEST SWAP3 SWAP2 POP POP JUMP JUMPDEST PUSH1 0x0 PUSH1 0xE0 DUP3 ADD SWAP1 POP PUSH2 0x26CF PUSH1 0x0 DUP4 ADD DUP11 PUSH2 0x25C7 JUMP JUMPDEST PUSH2 0x26DC PUSH1 0x20 DUP4 ADD DUP10 PUSH2 0x25D6 JUMP JUMPDEST PUSH2 0x26E9 PUSH1 0x40 DUP4 ADD DUP9 PUSH2 0x25D6 JUMP JUMPDEST PUSH2 0x26F6 PUSH1 0x60 DUP4 ADD DUP8 PUSH2 0x25D6 JUMP JUMPDEST PUSH2 0x2703 PUSH1 0x80 DUP4 ADD DUP7 PUSH2 0x25F1 JUMP JUMPDEST PUSH2 0x2710 PUSH1 0xA0 DUP4 ADD DUP6 PUSH2 0x25F1 JUMP JUMPDEST PUSH2 0x271D PUSH1 0xC0 DUP4 ADD DUP5 PUSH2 0x25F1 JUMP JUMPDEST SWAP9 SWAP8 POP POP POP POP POP POP POP POP JUMP JUMPDEST PUSH1 0x0 DUP2 SWAP1 POP SWAP2 SWAP1 POP JUMP JUMPDEST PUSH2 0x273C DUP2 PUSH2 0x2729 JUMP JUMPDEST DUP3 MSTORE POP POP JUMP JUMPDEST PUSH1 0x0 PUSH1 0x60 DUP3 ADD SWAP1 POP PUSH2 0x2757 PUSH1 0x0 DUP4 ADD DUP7 PUSH2 0x2733 JUMP JUMPDEST PUSH2 0x2764 PUSH1 0x20 DUP4 ADD DUP6 PUSH2 0x2733 JUMP JUMPDEST PUSH2 0x2771 PUSH1 0x40 DUP4 ADD DUP5 PUSH2 0x25D6 JUMP JUMPDEST SWAP5 SWAP4 POP POP POP POP JUMP JUMPDEST PUSH2 0x2782 DUP2 PUSH2 0x25B5 JUMP JUMPDEST DUP2 EQ PUSH2 0x278D JUMPI PUSH1 0x0 DUP1 REVERT JUMPDEST POP JUMP JUMPDEST PUSH1 0x0 DUP2 CALLDATALOAD SWAP1 POP PUSH2 0x279F DUP2 PUSH2 0x2779 JUMP JUMPDEST SWAP3 SWAP2 POP POP JUMP JUMPDEST PUSH1 0x0 PUSH1 0x20 DUP3 DUP5 SUB SLT ISZERO PUSH2 0x27BB JUMPI PUSH2 0x27BA PUSH2 0x252D JUMP JUMPDEST JUMPDEST PUSH1 0x0 PUSH2 0x27C9 DUP5 DUP3 DUP6 ADD PUSH2 0x2790 JUMP JUMPDEST SWAP2 POP POP SWAP3 SWAP2 POP POP JUMP JUMPDEST PUSH1 0x0 DUP3 DUP3 MSTORE PUSH1 0x20 DUP3 ADD SWAP1 POP SWAP3 SWAP2 POP POP JUMP JUMPDEST PUSH32 0x536F6C6F20656C206475656E6F206465206C6120636164656E61207075656465 PUSH1 0x0 DUP3 ADD MSTORE PUSH32 0x207265616C697A6172206573746120616363696F6E0000000000000000000000 PUSH1 0x20 DUP3 ADD MSTORE POP JUMP JUMPDEST PUSH1 0x0 PUSH2 0x283F PUSH1 0x35 DUP4 PUSH2 0x27D2 JUMP JUMPDEST SWAP2 POP PUSH2 0x284A DUP3 PUSH2 0x27E3 JUMP JUMPDEST PUSH1 0x40 DUP3 ADD SWAP1 POP SWAP2 SWAP1 POP JUMP JUMPDEST PUSH1 0x0 PUSH1 0x20 DUP3 ADD SWAP1 POP DUP2 DUP2 SUB PUSH1 0x0 DUP4 ADD MSTORE PUSH2 0x286E DUP2 PUSH2 0x2832 JUMP JUMPDEST SWAP1 POP SWAP2 SWAP1 POP JUMP JUMPDEST PUSH32 0x4E487B7100000000000000000000000000000000000000000000000000000000 PUSH1 0x0 MSTORE PUSH1 0x11 PUSH1 0x4 MSTORE PUSH1 0x24 PUSH1 0x0 REVERT JUMPDEST PUSH1 0x0 PUSH2 0x28AF DUP3 PUSH2 0x2729 JUMP JUMPDEST SWAP2 POP PUSH2 0x28BA DUP4 PUSH2 0x2729 JUMP JUMPDEST SWAP3 POP DUP3 DUP3 ADD SWAP1 POP DUP3 DUP2 SLT ISZERO PUSH1 0x0 DUP4 SLT AND DUP4 DUP3 SLT PUSH1 0x0 DUP5 SLT ISZERO AND OR ISZERO PUSH2 0x28E2 JUMPI PUSH2 0x28E1 PUSH2 0x2875 JUMP JUMPDEST JUMPDEST SWAP3 SWAP2 POP POP JUMP JUMPDEST PUSH32 0x5961207365206861206461646F20696E6963696F2061206C6120636164656E61 PUSH1 0x0 DUP3 ADD MSTORE POP JUMP JUMPDEST PUSH1 0x0 PUSH2 0x291E PUSH1 0x20 DUP4 PUSH2 0x27D2 JUMP JUMPDEST SWAP2 POP PUSH2 0x2929 DUP3 PUSH2 0x28E8 JUMP JUMPDEST PUSH1 0x20 DUP3 ADD SWAP1 POP SWAP2 SWAP1 POP JUMP JUMPDEST PUSH1 0x0 PUSH1 0x20 DUP3 ADD SWAP1 POP DUP2 DUP2 SUB PUSH1 0x0 DUP4 ADD MSTORE PUSH2 0x294D DUP2 PUSH2 0x2911 JUMP JUMPDEST SWAP1 POP SWAP2 SWAP1 POP JUMP JUMPDEST PUSH32 0x456C206E756D65726F206465207573756172696F732061637469766F73206465 PUSH1 0x0 DUP3 ADD MSTORE PUSH32 0x62652073657220616C6D656E6F7320646520646F73207061726120696E696369 PUSH1 0x20 DUP3 ADD MSTORE PUSH32 0x6172206C6120636164656E612C20202020202020202020202020202020202020 PUSH1 0x40 DUP3 ADD MSTORE PUSH32 0x202020202020202020202020202020656C206D6F6E746F20636F6E7369676E61 PUSH1 0x60 DUP3 ADD MSTORE PUSH32 0x646F207661206120736572207265746F726E61646F20646520666F726D612069 PUSH1 0x80 DUP3 ADD MSTORE PUSH32 0x6E6D65646961746120616C20756E69636F207573756172696F20202020202020 PUSH1 0xA0 DUP3 ADD MSTORE PUSH32 0x2020202020202020202020202020202020202020202020202020206163746976 PUSH1 0xC0 DUP3 ADD MSTORE PUSH32 0x6F20656E206C6120636164656E612E0000000000000000000000000000000000 PUSH1 0xE0 DUP3 ADD MSTORE POP JUMP JUMPDEST PUSH1 0x0 PUSH2 0x2A94 PUSH1 0xEF DUP4 PUSH2 0x27D2 JUMP JUMPDEST SWAP2 POP PUSH2 0x2A9F DUP3 PUSH2 0x2954 JUMP JUMPDEST PUSH2 0x100 DUP3 ADD SWAP1 POP SWAP2 SWAP1 POP JUMP JUMPDEST PUSH1 0x0 PUSH1 0x20 DUP3 ADD SWAP1 POP DUP2 DUP2 SUB PUSH1 0x0 DUP4 ADD MSTORE PUSH2 0x2AC4 DUP2 PUSH2 0x2A87 JUMP JUMPDEST SWAP1 POP SWAP2 SWAP1 POP JUMP JUMPDEST PUSH32 0x4C6120636164656E61206E6F206861207369646F20696E696369616461000000 PUSH1 0x0 DUP3 ADD MSTORE POP JUMP JUMPDEST PUSH1 0x0 PUSH2 0x2B01 PUSH1 0x1D DUP4 PUSH2 0x27D2 JUMP JUMPDEST SWAP2 POP PUSH2 0x2B0C DUP3 PUSH2 0x2ACB JUMP JUMPDEST PUSH1 0x20 DUP3 ADD SWAP1 POP SWAP2 SWAP1 POP JUMP JUMPDEST PUSH1 0x0 PUSH1 0x20 DUP3 ADD SWAP1 POP DUP2 DUP2 SUB PUSH1 0x0 DUP4 ADD MSTORE PUSH2 0x2B30 DUP2 PUSH2 0x2AF4 JUMP JUMPDEST SWAP1 POP SWAP2 SWAP1 POP JUMP JUMPDEST PUSH1 0x0 PUSH1 0x20 DUP3 ADD SWAP1 POP PUSH2 0x2B4C PUSH1 0x0 DUP4 ADD DUP5 PUSH2 0x25D6 JUMP JUMPDEST SWAP3 SWAP2 POP POP JUMP JUMPDEST PUSH32 0x5375207061676F206861207369646F207265616C697A61646F20636F6E206578 PUSH1 0x0 DUP3 ADD MSTORE PUSH32 0x69746F20792061686F726120657320656C206475656E6F206465206C61206361 PUSH1 0x20 DUP3 ADD MSTORE PUSH32 0x64656E6120202020202020202020202020202020202020202020202020202020 PUSH1 0x40 DUP3 ADD MSTORE PUSH32 0x20202020202020202C207365206C65206465766F6C7665726120656C2063616D PUSH1 0x60 DUP3 ADD MSTORE PUSH32 0x62696F2061207375206375656E74610000000000000000000000000000000000 PUSH1 0x80 DUP3 ADD MSTORE POP JUMP JUMPDEST PUSH1 0x0 PUSH2 0x2C20 PUSH1 0x8F DUP4 PUSH2 0x27D2 JUMP JUMPDEST SWAP2 POP PUSH2 0x2C2B DUP3 PUSH2 0x2B52 JUMP JUMPDEST PUSH1 0xA0 DUP3 ADD SWAP1 POP SWAP2 SWAP1 POP JUMP JUMPDEST PUSH1 0x0 PUSH1 0x20 DUP3 ADD SWAP1 POP DUP2 DUP2 SUB PUSH1 0x0 DUP4 ADD MSTORE PUSH2 0x2C4F DUP2 PUSH2 0x2C13 JUMP JUMPDEST SWAP1 POP SWAP2 SWAP1 POP JUMP JUMPDEST PUSH1 0x0 PUSH2 0x2C61 DUP3 PUSH2 0x2532 JUMP JUMPDEST SWAP2 POP PUSH2 0x2C6C DUP4 PUSH2 0x2532 JUMP JUMPDEST SWAP3 POP DUP3 DUP3 SUB SWAP1 POP DUP2 DUP2 GT ISZERO PUSH2 0x2C84 JUMPI PUSH2 0x2C83 PUSH2 0x2875 JUMP JUMPDEST JUMPDEST SWAP3 SWAP2 POP POP JUMP JUMPDEST PUSH1 0x0 PUSH2 0x2C95 DUP3 PUSH2 0x2729 JUMP JUMPDEST SWAP2 POP PUSH2 0x2CA0 DUP4 PUSH2 0x2729 JUMP JUMPDEST SWAP3 POP DUP3 DUP3 SUB SWAP1 POP DUP2 DUP2 SLT PUSH1 0x0 DUP5 SLT AND DUP3 DUP3 SGT PUSH1 0x0 DUP6 SLT ISZERO AND OR ISZERO PUSH2 0x2CC7 JUMPI PUSH2 0x2CC6 PUSH2 0x2875 JUMP JUMPDEST JUMPDEST SWAP3 SWAP2 POP POP JUMP JUMPDEST PUSH32 0x5375207061676F206573206D656E6F7220616C2065737461626C656369646F2C PUSH1 0x0 DUP3 ADD MSTORE PUSH32 0x20656C2061637469766F20736572612072657665727469646F00000000000000 PUSH1 0x20 DUP3 ADD MSTORE POP JUMP JUMPDEST PUSH1 0x0 PUSH2 0x2D29 PUSH1 0x39 DUP4 PUSH2 0x27D2 JUMP JUMPDEST SWAP2 POP PUSH2 0x2D34 DUP3 PUSH2 0x2CCD JUMP JUMPDEST PUSH1 0x40 DUP3 ADD SWAP1 POP SWAP2 SWAP1 POP JUMP JUMPDEST PUSH1 0x0 PUSH1 0x20 DUP3 ADD SWAP1 POP DUP2 DUP2 SUB PUSH1 0x0 DUP4 ADD MSTORE PUSH2 0x2D58 DUP2 PUSH2 0x2D1C JUMP JUMPDEST SWAP1 POP SWAP2 SWAP1 POP JUMP JUMPDEST PUSH32 0x5375207061676F206861207369646F207265616C697A61646F20636F6E206578 PUSH1 0x0 DUP3 ADD MSTORE PUSH32 0x69746F20792061686F726120657320656C206475656E6F206465206C61206361 PUSH1 0x20 DUP3 ADD MSTORE PUSH32 0x64656E6100000000000000000000000000000000000000000000000000000000 PUSH1 0x40 DUP3 ADD MSTORE POP JUMP JUMPDEST PUSH1 0x0 PUSH2 0x2DE1 PUSH1 0x44 DUP4 PUSH2 0x27D2 JUMP JUMPDEST SWAP2 POP PUSH2 0x2DEC DUP3 PUSH2 0x2D5F JUMP JUMPDEST PUSH1 0x60 DUP3 ADD SWAP1 POP SWAP2 SWAP1 POP JUMP JUMPDEST PUSH1 0x0 PUSH1 0x20 DUP3 ADD SWAP1 POP DUP2 DUP2 SUB PUSH1 0x0 DUP4 ADD MSTORE PUSH2 0x2E10 DUP2 PUSH2 0x2DD4 JUMP JUMPDEST SWAP1 POP SWAP2 SWAP1 POP JUMP JUMPDEST PUSH32 0x5961207365206861207265616C697A61646F20656C207061676F207061726120 PUSH1 0x0 DUP3 ADD MSTORE PUSH32 0x686162696C6974617220656C20696E6963696F206465206C6120636164656E61 PUSH1 0x20 DUP3 ADD MSTORE POP JUMP JUMPDEST PUSH1 0x0 PUSH2 0x2E73 PUSH1 0x40 DUP4 PUSH2 0x27D2 JUMP JUMPDEST SWAP2 POP PUSH2 0x2E7E DUP3 PUSH2 0x2E17 JUMP JUMPDEST PUSH1 0x40 DUP3 ADD SWAP1 POP SWAP2 SWAP1 POP JUMP JUMPDEST PUSH1 0x0 PUSH1 0x20 DUP3 ADD SWAP1 POP DUP2 DUP2 SUB PUSH1 0x0 DUP4 ADD MSTORE PUSH2 0x2EA2 DUP2 PUSH2 0x2E66 JUMP JUMPDEST SWAP1 POP SWAP2 SWAP1 POP JUMP JUMPDEST PUSH32 0x5961206E6F207365206163657074616E207061676F7320706172612070617274 PUSH1 0x0 DUP3 ADD MSTORE PUSH32 0x69636970617220656E206C6120636164656E612C202020202020202020202020 PUSH1 0x20 DUP3 ADD MSTORE PUSH32 0x2020202020202020202020202020202020202020202020202020202079612071 PUSH1 0x40 DUP3 ADD MSTORE PUSH32 0x75652065737461206861207369646F20696E696369616461207920737520706C PUSH1 0x60 DUP3 ADD MSTORE PUSH32 0x617A6F206465207061676F2068612076656E6369646F2E000000000000000000 PUSH1 0x80 DUP3 ADD MSTORE POP JUMP JUMPDEST PUSH1 0x0 PUSH2 0x2F77 PUSH1 0x97 DUP4 PUSH2 0x27D2 JUMP JUMPDEST SWAP2 POP PUSH2 0x2F82 DUP3 PUSH2 0x2EA9 JUMP JUMPDEST PUSH1 0xA0 DUP3 ADD SWAP1 POP SWAP2 SWAP1 POP JUMP JUMPDEST PUSH1 0x0 PUSH1 0x20 DUP3 ADD SWAP1 POP DUP2 DUP2 SUB PUSH1 0x0 DUP4 ADD MSTORE PUSH2 0x2FA6 DUP2 PUSH2 0x2F6A JUMP JUMPDEST SWAP1 POP SWAP2 SWAP1 POP JUMP JUMPDEST PUSH1 0x0 PUSH2 0x2FB8 DUP3 PUSH2 0x2532 JUMP JUMPDEST SWAP2 POP PUSH32 0xFFFFFFFFFFFFFFFFFFFFFFFFFFFFFFFFFFFFFFFFFFFFFFFFFFFFFFFFFFFFFFFF DUP3 SUB PUSH2 0x2FEA JUMPI PUSH2 0x2FE9 PUSH2 0x2875 JUMP JUMPDEST JUMPDEST PUSH1 0x1 DUP3 ADD SWAP1 POP SWAP2 SWAP1 POP JUMP JUMPDEST PUSH32 0x5375207061676F206861207369646F2070726F63657361646F20657869746F73 PUSH1 0x0 DUP3 ADD MSTORE PUSH32 0x616D656E74652079206861207369646F20616772656761646F2061206C612063 PUSH1 0x20 DUP3 ADD MSTORE PUSH32 0x6164656E61202020202020202020202020202020202020202020202020202020 PUSH1 0x40 DUP3 ADD MSTORE PUSH32 0x202020202020202020202020202020202020202C7365206C65206465766F6C76 PUSH1 0x60 DUP3 ADD MSTORE PUSH32 0x65726120656C2063616D62696F2061207375206375656E746100000000000000 PUSH1 0x80 DUP3 ADD MSTORE POP JUMP JUMPDEST PUSH1 0x0 PUSH2 0x30C3 PUSH1 0x99 DUP4 PUSH2 0x27D2 JUMP JUMPDEST SWAP2 POP PUSH2 0x30CE DUP3 PUSH2 0x2FF5 JUMP JUMPDEST PUSH1 0xA0 DUP3 ADD SWAP1 POP SWAP2 SWAP1 POP JUMP JUMPDEST PUSH1 0x0 PUSH1 0x20 DUP3 ADD SWAP1 POP DUP2 DUP2 SUB PUSH1 0x0 DUP4 ADD MSTORE PUSH2 0x30F2 DUP2 PUSH2 0x30B6 JUMP JUMPDEST SWAP1 POP SWAP2 SWAP1 POP JUMP JUMPDEST PUSH32 0x4572726F7220616C2070726F6365736172207375207061676F3A20656C206D6F PUSH1 0x0 DUP3 ADD MSTORE PUSH32 0x6E746F20696E6772657361646F206573206D656E6F7220616C2065737461626C PUSH1 0x20 DUP3 ADD MSTORE PUSH32 0x656369646F2E2020202020202020202020202020202020202020202020202020 PUSH1 0x40 DUP3 ADD MSTORE PUSH32 0x20202020202020202020202020202020202020205375207061676F2073657261 PUSH1 0x60 DUP3 ADD MSTORE PUSH32 0x2072657665727469646F00000000000000000000000000000000000000000000 PUSH1 0x80 DUP3 ADD MSTORE POP JUMP JUMPDEST PUSH1 0x0 PUSH2 0x31C7 PUSH1 0x8A DUP4 PUSH2 0x27D2 JUMP JUMPDEST SWAP2 POP PUSH2 0x31D2 DUP3 PUSH2 0x30F9 JUMP JUMPDEST PUSH1 0xA0 DUP3 ADD SWAP1 POP SWAP2 SWAP1 POP JUMP JUMPDEST PUSH1 0x0 PUSH1 0x20 DUP3 ADD SWAP1 POP DUP2 DUP2 SUB PUSH1 0x0 DUP4 ADD MSTORE PUSH2 0x31F6 DUP2 PUSH2 0x31BA JUMP JUMPDEST SWAP1 POP SWAP2 SWAP1 POP JUMP JUMPDEST PUSH32 0x5375207061676F206861207369646F2070726F63657361646F20657869746F73 PUSH1 0x0 DUP3 ADD MSTORE PUSH32 0x616D656E74652079206861207369646F20616772656761646F2061206C612063 PUSH1 0x20 DUP3 ADD MSTORE PUSH32 0x6164656E61000000000000000000000000000000000000000000000000000000 PUSH1 0x40 DUP3 ADD MSTORE POP JUMP JUMPDEST PUSH1 0x0 PUSH2 0x327F PUSH1 0x45 DUP4 PUSH2 0x27D2 JUMP JUMPDEST SWAP2 POP PUSH2 0x328A DUP3 PUSH2 0x31FD JUMP JUMPDEST PUSH1 0x60 DUP3 ADD SWAP1 POP SWAP2 SWAP1 POP JUMP JUMPDEST PUSH1 0x0 PUSH1 0x20 DUP3 ADD SWAP1 POP DUP2 DUP2 SUB PUSH1 0x0 DUP4 ADD MSTORE PUSH2 0x32AE DUP2 PUSH2 0x3272 JUMP JUMPDEST SWAP1 POP SWAP2 SWAP1 POP JUMP JUMPDEST PUSH32 0x5573746564207961206861207265616C697A61646F20656C207061676F20616E PUSH1 0x0 DUP3 ADD MSTORE PUSH32 0x746572696F726D656E74652C207375207061676F207365726120726576657274 PUSH1 0x20 DUP3 ADD MSTORE PUSH32 0x69646F2E00000000000000000000000000000000000000000000000000000000 PUSH1 0x40 DUP3 ADD MSTORE POP JUMP JUMPDEST PUSH1 0x0 PUSH2 0x3337 PUSH1 0x44 DUP4 PUSH2 0x27D2 JUMP JUMPDEST SWAP2 POP PUSH2 0x3342 DUP3 PUSH2 0x32B5 JUMP JUMPDEST PUSH1 0x60 DUP3 ADD SWAP1 POP SWAP2 SWAP1 POP JUMP JUMPDEST PUSH1 0x0 PUSH1 0x20 DUP3 ADD SWAP1 POP DUP2 DUP2 SUB PUSH1 0x0 DUP4 ADD MSTORE PUSH2 0x3366 DUP2 PUSH2 0x332A JUMP JUMPDEST SWAP1 POP SWAP2 SWAP1 POP JUMP JUMPDEST PUSH32 0x537520646972656363696F6E206465207573756172696F206E6F206861207369 PUSH1 0x0 DUP3 ADD MSTORE PUSH32 0x646F20616772656761646120706F7220656C20646573706C656761646F722064 PUSH1 0x20 DUP3 ADD MSTORE PUSH32 0x656C20636F6E747261746F2E2020202020202020202020202020202020202020 PUSH1 0x40 DUP3 ADD MSTORE PUSH32 0x2020202020202020202020202020506F72206C6F2074616E746F2C2073752070 PUSH1 0x60 DUP3 ADD MSTORE PUSH32 0x61676F206861207369646F2064656E656761646F2E2053692064657365612066 PUSH1 0x80 DUP3 ADD MSTORE PUSH32 0x6F726D6172207061727465206465206573746520636F6E747261746F2C202020 PUSH1 0xA0 DUP3 ADD MSTORE PUSH32 0x2020202020202020202020202020202020202020202020202020202020202070 PUSH1 0xC0 DUP3 ADD MSTORE PUSH32 0x6F72206661766F722C20706F6E6761736520656E20636F6E746163746F20636F PUSH1 0xE0 DUP3 ADD MSTORE PUSH32 0x6E20656C20646573706C656761646F722064656C20636F6E747261746F207061 PUSH2 0x100 DUP3 ADD MSTORE PUSH32 0x726120717565206C6F2020202020202020202020202020202020202020202020 PUSH2 0x120 DUP3 ADD MSTORE PUSH32 0x2020202020202020202020616772656775652061206573746120636164656E61 PUSH2 0x140 DUP3 ADD MSTORE PUSH32 0x2E00000000000000000000000000000000000000000000000000000000000000 PUSH2 0x160 DUP3 ADD MSTORE POP JUMP JUMPDEST PUSH1 0x0 PUSH2 0x354A PUSH2 0x161 DUP4 PUSH2 0x27D2 JUMP JUMPDEST SWAP2 POP PUSH2 0x3555 DUP3 PUSH2 0x336D JUMP JUMPDEST PUSH2 0x180 DUP3 ADD SWAP1 POP SWAP2 SWAP1 POP JUMP JUMPDEST PUSH1 0x0 PUSH1 0x20 DUP3 ADD SWAP1 POP DUP2 DUP2 SUB PUSH1 0x0 DUP4 ADD MSTORE PUSH2 0x357A DUP2 PUSH2 0x353C JUMP JUMPDEST SWAP1 POP SWAP2 SWAP1 POP JUMP JUMPDEST PUSH32 0x456C20636F6E747261746F206E6F206861207369646F20646573706C65676164 PUSH1 0x0 DUP3 ADD MSTORE PUSH32 0x6F00000000000000000000000000000000000000000000000000000000000000 PUSH1 0x20 DUP3 ADD MSTORE POP JUMP JUMPDEST PUSH1 0x0 PUSH2 0x35DD PUSH1 0x21 DUP4 PUSH2 0x27D2 JUMP JUMPDEST SWAP2 POP PUSH2 0x35E8 DUP3 PUSH2 0x3581 JUMP JUMPDEST PUSH1 0x40 DUP3 ADD SWAP1 POP SWAP2 SWAP1 POP JUMP JUMPDEST PUSH1 0x0 PUSH1 0x20 DUP3 ADD SWAP1 POP DUP2 DUP2 SUB PUSH1 0x0 DUP4 ADD MSTORE PUSH2 0x360C DUP2 PUSH2 0x35D0 JUMP JUMPDEST SWAP1 POP SWAP2 SWAP1 POP JUMP JUMPDEST PUSH32 0x456C207061676F2064652073752063756F7461206861207369646F207265616C PUSH1 0x0 DUP3 ADD MSTORE PUSH32 0x697A61646F20636F6E20657869746F2C207365206C65206465766F6C76657261 PUSH1 0x20 DUP3 ADD MSTORE PUSH32 0x20656C2063616D62696F2061207375206375656E746100000000000000000000 PUSH1 0x40 DUP3 ADD MSTORE POP JUMP JUMPDEST PUSH1 0x0 PUSH2 0x3695 PUSH1 0x56 DUP4 PUSH2 0x27D2 JUMP JUMPDEST SWAP2 POP PUSH2 0x36A0 DUP3 PUSH2 0x3613 JUMP JUMPDEST PUSH1 0x60 DUP3 ADD SWAP1 POP SWAP2 SWAP1 POP JUMP JUMPDEST PUSH1 0x0 PUSH1 0x20 DUP3 ADD SWAP1 POP DUP2 DUP2 SUB PUSH1 0x0 DUP4 ADD MSTORE PUSH2 0x36C4 DUP2 PUSH2 0x3688 JUMP JUMPDEST SWAP1 POP SWAP2 SWAP1 POP JUMP JUMPDEST PUSH1 0x0 PUSH2 0x36D6 DUP3 PUSH2 0x2532 JUMP JUMPDEST SWAP2 POP PUSH2 0x36E1 DUP4 PUSH2 0x2532 JUMP JUMPDEST SWAP3 POP DUP3 DUP3 ADD SWAP1 POP DUP1 DUP3 GT ISZERO PUSH2 0x36F9 JUMPI PUSH2 0x36F8 PUSH2 0x2875 JUMP JUMPDEST JUMPDEST SWAP3 SWAP2 POP POP JUMP JUMPDEST PUSH32 0x456C207061676F2064652073752063756F7461206573206D656E6F7220616C20 PUSH1 0x0 DUP3 ADD MSTORE PUSH32 0x65737461626C656369646F2C20656C2061637469766F20736572612072657665 PUSH1 0x20 DUP3 ADD MSTORE PUSH32 0x727469646F000000000000000000000000000000000000000000000000000000 PUSH1 0x40 DUP3 ADD MSTORE POP JUMP JUMPDEST PUSH1 0x0 PUSH2 0x3781 PUSH1 0x45 DUP4 PUSH2 0x27D2 JUMP JUMPDEST SWAP2 POP PUSH2 0x378C DUP3 PUSH2 0x36FF JUMP JUMPDEST PUSH1 0x60 DUP3 ADD SWAP1 POP SWAP2 SWAP1 POP JUMP JUMPDEST PUSH1 0x0 PUSH1 0x20 DUP3 ADD SWAP1 POP DUP2 DUP2 SUB PUSH1 0x0 DUP4 ADD MSTORE PUSH2 0x37B0 DUP2 PUSH2 0x3774 JUMP JUMPDEST SWAP1 POP SWAP2 SWAP1 POP JUMP JUMPDEST PUSH32 0x456C207061676F2064652073752063756F7461206861207369646F207265616C PUSH1 0x0 DUP3 ADD MSTORE PUSH32 0x697A61646F20636F6E20657869746F0000000000000000000000000000000000 PUSH1 0x20 DUP3 ADD MSTORE POP JUMP JUMPDEST PUSH1 0x0 PUSH2 0x3813 PUSH1 0x2F DUP4 PUSH2 0x27D2 JUMP JUMPDEST SWAP2 POP PUSH2 0x381E DUP3 PUSH2 0x37B7 JUMP JUMPDEST PUSH1 0x40 DUP3 ADD SWAP1 POP SWAP2 SWAP1 POP JUMP JUMPDEST PUSH1 0x0 PUSH1 0x20 DUP3 ADD SWAP1 POP DUP2 DUP2 SUB PUSH1 0x0 DUP4 ADD MSTORE PUSH2 0x3842 DUP2 PUSH2 0x3806 JUMP JUMPDEST SWAP1 POP SWAP2 SWAP1 POP JUMP JUMPDEST PUSH32 0x5961206861207265616C697A61646F20656C207061676F207061726120737520 PUSH1 0x0 DUP3 ADD MSTORE PUSH32 0x63756F7461000000000000000000000000000000000000000000000000000000 PUSH1 0x20 DUP3 ADD MSTORE POP JUMP JUMPDEST PUSH1 0x0 PUSH2 0x38A5 PUSH1 0x25 DUP4 PUSH2 0x27D2 JUMP JUMPDEST SWAP2 POP PUSH2 0x38B0 DUP3 PUSH2 0x3849 JUMP JUMPDEST PUSH1 0x40 DUP3 ADD SWAP1 POP SWAP2 SWAP1 POP JUMP JUMPDEST PUSH1 0x0 PUSH1 0x20 DUP3 ADD SWAP1 POP DUP2 DUP2 SUB PUSH1 0x0 DUP4 ADD MSTORE PUSH2 0x38D4 DUP2 PUSH2 0x3898 JUMP JUMPDEST SWAP1 POP SWAP2 SWAP1 POP JUMP JUMPDEST PUSH32 0x4E6F2070756564652070616761722073752063756F74612064656269646F2061 PUSH1 0x0 DUP3 ADD MSTORE PUSH32 0x20717565207375207573756172696F2066756520696E686162696C697461646F PUSH1 0x20 DUP3 ADD MSTORE PUSH32 0x206465206C6120636164656E6120202020202020202020202020202020202020 PUSH1 0x40 DUP3 ADD MSTORE PUSH32 0x202020202020202020202020202020202020202020202020202020706F72206E PUSH1 0x60 DUP3 ADD MSTORE PUSH32 0x6F2063756D706C697220636F6E20756E207061676F2064652063756F74612061 PUSH1 0x80 DUP3 ADD MSTORE PUSH32 0x6E746572696F7200000000000000000000000000000000000000000000000000 PUSH1 0xA0 DUP3 ADD MSTORE POP JUMP JUMPDEST PUSH1 0x0 PUSH2 0x39CF PUSH1 0xA7 DUP4 PUSH2 0x27D2 JUMP JUMPDEST SWAP2 POP PUSH2 0x39DA DUP3 PUSH2 0x38DB JUMP JUMPDEST PUSH1 0xC0 DUP3 ADD SWAP1 POP SWAP2 SWAP1 POP JUMP JUMPDEST PUSH1 0x0 PUSH1 0x20 DUP3 ADD SWAP1 POP DUP2 DUP2 SUB PUSH1 0x0 DUP4 ADD MSTORE PUSH2 0x39FE DUP2 PUSH2 0x39C2 JUMP JUMPDEST SWAP1 POP SWAP2 SWAP1 POP JUMP JUMPDEST PUSH32 0x4E6F2070756564652070617274696369706172206E69207265616C697A617220 PUSH1 0x0 DUP3 ADD MSTORE PUSH32 0x7061676F2064652063756F746173202020202020202020202020202020202020 PUSH1 0x20 DUP3 ADD MSTORE PUSH32 0x202020202020202020202020202020202020202020202020706F727175652073 PUSH1 0x40 DUP3 ADD MSTORE PUSH32 0x75207573756172696F20736520656E6375656E74726120696E686162696C6974 PUSH1 0x60 DUP3 ADD MSTORE PUSH32 0x61646F0000000000000000000000000000000000000000000000000000000000 PUSH1 0x80 DUP3 ADD MSTORE POP JUMP JUMPDEST PUSH1 0x0 PUSH2 0x3AD3 PUSH1 0x83 DUP4 PUSH2 0x27D2 JUMP JUMPDEST SWAP2 POP PUSH2 0x3ADE DUP3 PUSH2 0x3A05 JUMP JUMPDEST PUSH1 0xA0 DUP3 ADD SWAP1 POP SWAP2 SWAP1 POP JUMP JUMPDEST PUSH1 0x0 PUSH1 0x20 DUP3 ADD SWAP1 POP DUP2 DUP2 SUB PUSH1 0x0 DUP4 ADD MSTORE PUSH2 0x3B02 DUP2 PUSH2 0x3AC6 JUMP JUMPDEST SWAP1 POP SWAP2 SWAP1 POP JUMP JUMPDEST PUSH32 0x537520646972656363696F6E206465207573756172696F206E6F206861207369 PUSH1 0x0 DUP3 ADD MSTORE PUSH32 0x646F20616772656761646120706F7220656C20646573706C656761646F722064 PUSH1 0x20 DUP3 ADD MSTORE PUSH32 0x656C20636F6E747261746F2E2020202020202020202020202020202020202020 PUSH1 0x40 DUP3 ADD MSTORE PUSH32 0x2020202020202020202020202020506F72206C6F2074616E746F207375206163 PUSH1 0x60 DUP3 ADD MSTORE PUSH32 0x6365736F2065732064656E656761646F20706172612070617274696369706172 PUSH1 0x80 DUP3 ADD MSTORE PUSH32 0x20656E206573746120636164656E612E00000000000000000000000000000000 PUSH1 0xA0 DUP3 ADD MSTORE POP JUMP JUMPDEST PUSH1 0x0 PUSH2 0x3BFD PUSH1 0xB0 DUP4 PUSH2 0x27D2 JUMP JUMPDEST SWAP2 POP PUSH2 0x3C08 DUP3 PUSH2 0x3B09 JUMP JUMPDEST PUSH1 0xC0 DUP3 ADD SWAP1 POP SWAP2 SWAP1 POP JUMP JUMPDEST PUSH1 0x0 PUSH1 0x20 DUP3 ADD SWAP1 POP DUP2 DUP2 SUB PUSH1 0x0 DUP4 ADD MSTORE PUSH2 0x3C2C DUP2 PUSH2 0x3BF0 JUMP JUMPDEST SWAP1 POP SWAP2 SWAP1 POP JUMP JUMPDEST PUSH32 0x456C207573756172696F206861207369646F20616772656761646F20636F7272 PUSH1 0x0 DUP3 ADD MSTORE PUSH32 0x656374616D656E74650000000000000000000000000000000000000000000000 PUSH1 0x20 DUP3 ADD MSTORE POP JUMP JUMPDEST PUSH1 0x0 PUSH2 0x3C8F PUSH1 0x29 DUP4 PUSH2 0x27D2 JUMP JUMPDEST SWAP2 POP PUSH2 0x3C9A DUP3 PUSH2 0x3C33 JUMP JUMPDEST PUSH1 0x40 DUP3 ADD SWAP1 POP SWAP2 SWAP1 POP JUMP JUMPDEST PUSH1 0x0 PUSH1 0x20 DUP3 ADD SWAP1 POP DUP2 DUP2 SUB PUSH1 0x0 DUP4 ADD MSTORE PUSH2 0x3CBE DUP2 PUSH2 0x3C82 JUMP JUMPDEST SWAP1 POP SWAP2 SWAP1 POP JUMP JUMPDEST PUSH32 0x45737465207573756172696F207961206861207369646F20616772656761646F PUSH1 0x0 DUP3 ADD MSTORE POP JUMP JUMPDEST PUSH1 0x0 PUSH2 0x3CFB PUSH1 0x20 DUP4 PUSH2 0x27D2 JUMP JUMPDEST SWAP2 POP PUSH2 0x3D06 DUP3 PUSH2 0x3CC5 JUMP JUMPDEST PUSH1 0x20 DUP3 ADD SWAP1 POP SWAP2 SWAP1 POP JUMP JUMPDEST PUSH1 0x0 PUSH1 0x20 DUP3 ADD SWAP1 POP DUP2 DUP2 SUB PUSH1 0x0 DUP4 ADD MSTORE PUSH2 0x3D2A DUP2 PUSH2 0x3CEE JUMP JUMPDEST SWAP1 POP SWAP2 SWAP1 POP JUMP JUMPDEST PUSH32 0x44656265206465207265616C697A617220656C207061676F20616E7465732064 PUSH1 0x0 DUP3 ADD MSTORE PUSH32 0x6520706F6465722061677265676172207573756172696F730000000000000000 PUSH1 0x20 DUP3 ADD MSTORE POP JUMP JUMPDEST PUSH1 0x0 PUSH2 0x3D8D PUSH1 0x38 DUP4 PUSH2 0x27D2 JUMP JUMPDEST SWAP2 POP PUSH2 0x3D98 DUP3 PUSH2 0x3D31 JUMP JUMPDEST PUSH1 0x40 DUP3 ADD SWAP1 POP SWAP2 SWAP1 POP JUMP JUMPDEST PUSH1 0x0 PUSH1 0x20 DUP3 ADD SWAP1 POP DUP2 DUP2 SUB PUSH1 0x0 DUP4 ADD MSTORE PUSH2 0x3DBC DUP2 PUSH2 0x3D80 JUMP JUMPDEST SWAP1 POP SWAP2 SWAP1 POP JUMP JUMPDEST PUSH32 0x4E6F2070756564652061677265676172206D617320696E74656772616E746573 PUSH1 0x0 DUP3 ADD MSTORE PUSH32 0x20706F72717565207961206861206461646F20696E6963696F2061206C612063 PUSH1 0x20 DUP3 ADD MSTORE PUSH32 0x6164656E61000000000000000000000000000000000000000000000000000000 PUSH1 0x40 DUP3 ADD MSTORE POP JUMP JUMPDEST PUSH1 0x0 PUSH2 0x3E45 PUSH1 0x45 DUP4 PUSH2 0x27D2 JUMP JUMPDEST SWAP2 POP PUSH2 0x3E50 DUP3 PUSH2 0x3DC3 JUMP JUMPDEST PUSH1 0x60 DUP3 ADD SWAP1 POP SWAP2 SWAP1 POP JUMP JUMPDEST PUSH1 0x0 PUSH1 0x20 DUP3 ADD SWAP1 POP DUP2 DUP2 SUB PUSH1 0x0 DUP4 ADD MSTORE PUSH2 0x3E74 DUP2 PUSH2 0x3E38 JUMP JUMPDEST SWAP1 POP SWAP2 SWAP1 POP JUMP JUMPDEST PUSH32 0x537520706C617A6F207061726120656C207061676F206465206C612063756F74 PUSH1 0x0 DUP3 ADD MSTORE PUSH32 0x612068612076656E6369646F2E20436F6D6F20726573756C7461646F2C207365 PUSH1 0x20 DUP3 ADD MSTORE PUSH32 0x7261202020202020202020202020202020202020202020202020202020202020 PUSH1 0x40 DUP3 ADD MSTORE PUSH32 0x2020202020202020696E686162696C697461646F206465206C6120636164656E PUSH1 0x60 DUP3 ADD MSTORE PUSH32 0x612064652061686F72726F732079206E6F20706F647261207061727469636970 PUSH1 0x80 DUP3 ADD MSTORE PUSH32 0x6172206E69207265616C697A6172202020202020202020202020202020202020 PUSH1 0xA0 DUP3 ADD MSTORE PUSH32 0x20202020202020202020202020202020202020206D6173207061676F732E2053 PUSH1 0xC0 DUP3 ADD MSTORE PUSH32 0x752073616C646F20656E206C6120636164656E61207365206C65206465766F6C PUSH1 0xE0 DUP3 ADD MSTORE PUSH32 0x7665726120616C2066696E616C697A6172206C61206D69736D61000000000000 PUSH2 0x100 DUP3 ADD MSTORE POP JUMP JUMPDEST PUSH1 0x0 PUSH2 0x3FE3 PUSH2 0x11A DUP4 PUSH2 0x27D2 JUMP JUMPDEST SWAP2 POP PUSH2 0x3FEE DUP3 PUSH2 0x3E7B JUMP JUMPDEST PUSH2 0x120 DUP3 ADD SWAP1 POP SWAP2 SWAP1 POP JUMP JUMPDEST PUSH1 0x0 PUSH1 0x20 DUP3 ADD SWAP1 POP DUP2 DUP2 SUB PUSH1 0x0 DUP4 ADD MSTORE PUSH2 0x4013 DUP2 PUSH2 0x3FD5 JUMP JUMPDEST SWAP1 POP SWAP2 SWAP1 POP JUMP JUMPDEST PUSH32 0x4E756D65726F5573756172696F7341637469766F730000000000000000000000 PUSH1 0x0 DUP3 ADD MSTORE POP JUMP JUMPDEST PUSH1 0x0 PUSH2 0x4050 PUSH1 0x15 DUP4 PUSH2 0x27D2 JUMP JUMPDEST SWAP2 POP PUSH2 0x405B DUP3 PUSH2 0x401A JUMP JUMPDEST PUSH1 0x20 DUP3 ADD SWAP1 POP SWAP2 SWAP1 POP JUMP JUMPDEST PUSH32 0x506572696F646F735472616E736375727269646F730000000000000000000000 PUSH1 0x0 DUP3 ADD MSTORE POP JUMP JUMPDEST PUSH1 0x0 PUSH2 0x409C PUSH1 0x15 DUP4 PUSH2 0x27D2 JUMP JUMPDEST SWAP2 POP PUSH2 0x40A7 DUP3 PUSH2 0x4066 JUMP JUMPDEST PUSH1 0x20 DUP3 ADD SWAP1 POP SWAP2 SWAP1 POP JUMP JUMPDEST PUSH1 0x0 PUSH1 0x80 DUP3 ADD SWAP1 POP DUP2 DUP2 SUB PUSH1 0x0 DUP4 ADD MSTORE PUSH2 0x40CB DUP2 PUSH2 0x4043 JUMP JUMPDEST SWAP1 POP PUSH2 0x40DA PUSH1 0x20 DUP4 ADD DUP6 PUSH2 0x25D6 JUMP JUMPDEST DUP2 DUP2 SUB PUSH1 0x40 DUP4 ADD MSTORE PUSH2 0x40EB DUP2 PUSH2 0x408F JUMP JUMPDEST SWAP1 POP PUSH2 0x40FA PUSH1 0x60 DUP4 ADD DUP5 PUSH2 0x25D6 JUMP JUMPDEST SWAP4 SWAP3 POP POP POP JUMP JUMPDEST PUSH32 0x4E487B7100000000000000000000000000000000000000000000000000000000 PUSH1 0x0 MSTORE PUSH1 0x12 PUSH1 0x4 MSTORE PUSH1 0x24 PUSH1 0x0 REVERT JUMPDEST PUSH1 0x0 PUSH2 0x413B DUP3 PUSH2 0x2532 JUMP JUMPDEST SWAP2 POP PUSH2 0x4146 DUP4 PUSH2 0x2532 JUMP JUMPDEST SWAP3 POP DUP3 PUSH2 0x4156 JUMPI PUSH2 0x4155 PUSH2 0x4101 JUMP JUMPDEST JUMPDEST DUP3 DUP3 DIV SWAP1 POP SWAP3 SWAP2 POP POP JUMP JUMPDEST PUSH32 0x41717569207365207375706F6E6520717565207465726D696E616E206C6F7320 PUSH1 0x0 DUP3 ADD MSTORE PUSH32 0x706572696F646F73206465207469656D706F0000000000000000000000000000 PUSH1 0x20 DUP3 ADD MSTORE POP JUMP JUMPDEST PUSH1 0x0 PUSH2 0x41BD PUSH1 0x32 DUP4 PUSH2 0x27D2 JUMP JUMPDEST SWAP2 POP PUSH2 0x41C8 DUP3 PUSH2 0x4161 JUMP JUMPDEST PUSH1 0x40 DUP3 ADD SWAP1 POP SWAP2 SWAP1 POP JUMP JUMPDEST PUSH1 0x0 PUSH1 0x20 DUP3 ADD SWAP1 POP DUP2 DUP2 SUB PUSH1 0x0 DUP4 ADD MSTORE PUSH2 0x41EC DUP2 PUSH2 0x41B0 JUMP JUMPDEST SWAP1 POP SWAP2 SWAP1 POP JUMP JUMPDEST PUSH32 0x456C20636F6E747261746F206E6F207469656E6520737566696369656E746520 PUSH1 0x0 DUP3 ADD MSTORE PUSH32 0x73616C646F000000000000000000000000000000000000000000000000000000 PUSH1 0x20 DUP3 ADD MSTORE POP JUMP JUMPDEST PUSH1 0x0 PUSH2 0x424F PUSH1 0x25 DUP4 PUSH2 0x27D2 JUMP JUMPDEST SWAP2 POP PUSH2 0x425A DUP3 PUSH2 0x41F3 JUMP JUMPDEST PUSH1 0x40 DUP3 ADD SWAP1 POP SWAP2 SWAP1 POP JUMP JUMPDEST PUSH1 0x0 PUSH1 0x20 DUP3 ADD SWAP1 POP DUP2 DUP2 SUB PUSH1 0x0 DUP4 ADD MSTORE PUSH2 0x427E DUP2 PUSH2 0x4242 JUMP JUMPDEST SWAP1 POP SWAP2 SWAP1 POP JUMP INVALID LOG2 PUSH5 0x6970667358 0x22 SLT KECCAK256 MSIZE 0xFC EXTCODEHASH 0xB2 0xEC 0x4C PUSH11 0xF084B415221BB0CC28EA6D DUP15 0xA5 MULMOD PUSH29 0x1DB28380915FDA78D19064736F6C634300081800330000000000000000 "},"methodIdentifiers":{"ActualizarCuota()":"296a46ea","AgregarDireccionesDeUsuarios(address)":"f35b5dba","DuenoCadena()":"76879e2c","IniciarContrato()":"23cc2910","MostrarBalanceUsuarios()":"dda3ae06","MostrarInformacionUsuarios(uint256)":"7946a632","RecibirIngresosCuotasUsuarios()":"ef7d74a7","RecibirIngresosDeParticipacionUsuarios()":"ec091412","RecibirPagoDuenoCadena()":"51755ac7","Usuarios(uint256)":"5ce639e4"}}}}}